S017000047425F4144435F5044425F44656D6F2E7372656344
S11300000070002011040000C9040000A5050000D0
S1130010A7050000A9050000AB05000000000000D2
S1130020000000000000000000000000AD0500001A
S1130030AF05000000000000B1050000B30500009A
S1130040B5050000B5050000B5050000B5050000C4
S1130050B5050000B5050000B5050000B5050000B4
S1130060B5050000B5050000B5050000B5050000A4
S1130070B5050000B5050000B5050000B505000094
S1130400FFFFFFFFFFFFFFFFFFFFFFFFFE7FFFFF79
S113041072B64FF000004FF000014FF000024FF0B1
S113042000034FF000044FF000054FF000064FF0BA
S113043000071B484FF4401101601A481A49016033
S11304401A4880F30888FFE7194842F220510160F6
S113045018484FF6FF710160FFE71748002809D0DC
S11304601649174A521A013A04DD0020002309C133
S1130470083AFCDA134800684FF05A318842F9D040
S1130480FFE700F0FBF800F020F862B600F0BAF9DC
S113049000F0F4F900BFFEE7AFF30080AFF3008093
S11304A00480044008ED00E00090FF1F007000206D
S11304B00020054008200540010000000080FF1FC7
S11304C0007000201094FF1FFEE708B54FF0E023F2
S11304D0D3F8883D4FF0E02243F47003C2F8883D1E
S11304E0BFF34F8FBFF36F8F4FF0E023D3F8143D6A
S11304F04FF0E02243F00103C2F8143D4FF0E02333
S1130500D3F8203D4FF0E02223F47F03C2F8203DCE
S11305104FF080434FF077321A604FF0804300224F
S11305201A624FF0804300225A624FF08043002247
S1130530DA624FF0804300221A644FF080430022B5
S11305405A644FF0804300229A644FF080430022A3
S1130550DA644FF0804300221A654FF08043002292
S11305605A654FF0804300229A654FF08043002281
S1130570DA654FF0804300221A664FF08043002270
S11305805A664FF0804300229A664FF0804300225F
S1130590DA66BFF34F8FBFF36F8F002000F004F9CA
S11305A000BF08BDFEE7FEE7FEE7FEE7FEE7FEE765
S11305B0FEE7FEE7FEE7000082B001904FF0E02383
S11305C0D3F80C3D23F4E0624FF0E021019B134388
S11305D0C1F80C3D00BF02B0704782B003468DF8ED
S11305E007309DF8073003F01F0307499DF80720E3
S11305F05209D2B21046012202FA03F341F8203024
S113060000BF02B0704700BF00E100E082B00346C3
S11306108DF807309DF8073003F01F0307499DF854
S113062007205209D2B2104601229A4000F1200359
S113063041F8232000BF02B0704700BF00E100E092
S113064084B003460A468DF8073013468DF8063009
S113065004238DF80F309DF806209DF80F3002FA20
S113066003F1054A9DF80730C9B213440A4683F8DA
S1130670002300BF04B0704700E100E08AB000230B
S11306800793002306930023099300230893444B04
S11306900593444B0493059B1B680793059B043304
S11306A00593059B0393002309933DE0099A1346A0
S11306B05B0013449B001A46039B13445B6800933E
S11306C0099A13465B0013449B001A46039B134488
S11306D01B680193099A13465B0013449B001A4656
S11306E0039B13449B681946099A13465B00134401
S11306F09B001A46039B13445B68CB1A06930023A2
S113070008930AE0009A089B1A440199089B0B4439
S113071012781A70089B01330893089A069B9A4230
S1130720F0D3099B01330993099A079B9A42BDD3DD
S1130730049B1B680793049B04330493049B029358
S11307400023099324E0099BDB00029A13441B68ED
S11307500193099BDB00029A13445B681946099BC9
S1130760DB00029A13441B68CB1A069300230893F8
S113077007E0019A089B134400221A70089B013376
S11307800893089A069B9A42F3D3099B0133099371
S1130790099A079B9A42D6D300BF00BF0AB070479C
S11307A030BA00004CBA000084B003468DF807301C
S11307B000238DF80F309DF80730002B18D1104B13
S11307C04FF0A0621A600E4B1B680D4A43F00043C1
S11307D0136000BF0A4B1B6803F00043B3F1004FE2
S11307E0F8D0074B1B68064A43F00103136002E08C
S11307F001238DF80F309DF80F30184604B0704770
S1130800002008E000BF7047FEE700231846704749
S113081082B003468DF807309DF80730DBB2002B19
S113082000D1FEE700BF02B0704782B003468DF8E6
S113083007309DF80730DBB2002B00D1FEE700BF84
S113084002B0704710B4EFF310831C4623461846D9
S11308505DF8044B704710B4EFF310831C46234635
S113086018465DF8044B704710B4EFF310831C4630
S1130870234618465DF8044B7047000000B583B06A
S11308801B4801F0B1F8019003E0194801F0ACF8FD
S11308900190019B002BF8D100BF01F013FC03462B
S11308A0002BFAD101F052FC002005F069FE114939
S11308B0002000F0D0F9002000F05AFD009003E081
S11308C0002000F055FD0090009B002BF8D10A4950
S11308D0002005F04AFA002005F0E2FB0421002084
S11308E000F02EFD03461A46044B1A60F6E700BFDB
S11308F0F4A40000E8A8000044B000009898FF1F8A
S113090086B0039002910192039BD3F89030059333
S1130910029BDB43059A13400593059A019B1343FD
S11309200593039B059AC3F8902000BF06B0704757
S113093086B0039002910192039B1B6C0593059B67
S113094023F063030593029B5B0103F06003059AA4
S113095013430593019B03F00303059A1343059383
S1130960039B059A1A6400BF06B0704784B00190D7
S113097000230393019B5B0903F00303032B0CD0B7
S1130980032B0DD8012B02D0022B03D008E0012346
S1130990039306E00223039303E00323039300E09D
S11309A000BF039B184604B0704784B00190002335
S11309B00393019B03F00303032B0CD0032B0DD8EB
S11309C0012B02D0022B03D008E00123039306E09D
S11309D00223039303E00323039300E000BF039B7C
S11309E0184604B0704784B001900B468DF803306C
S11309F09DF80330002B02D09DF8033000E0012362
S1130A008DF80F30019B5B6C0293029B23F0FF0374
S1130A1002939DF80F30029A13430293019B029AAA
S1130A205A6400BF04B0704786B003900B4601922D
S1130A308DF80B30039BD3F894300593059B23F07A
S1130A40070305939DF80B30002B01D0042300E02D
S1130A500023059A13430593019B03F00303059AAE
S1130A6013430593039B059AC3F8942000BF06B073
S1130A70704784B0019000230393019B03F00303A8
S1130A80032B0CD0032B0DD8012B02D0022B03D047
S1130A9008E00123039306E00223039303E0032306
S1130AA0039300E000BF039B184604B0704784B072
S1130AB001900091019BD3F890300393039B23F0A2
S1130AC040030393009B9B0103F04003039A1343E9
S1130AD00393019B039AC3F8902000BF04B07047AE
S1130AE084B0019000230393019B03F04003002B87
S1130AF001D001230393039B184604B0704786B0CA
S1130B00039001921A460B468DF80B3013468DF86C
S1130B100A309DF80B20039B53F822300593059B64
S1130B2023F05F030593019B03F01F03059A13430E
S1130B3005939DF80A30002B01D0402300E00023E8
S1130B40059A134305939DF80B20039B059943F8DD
S1130B50221000BF06B0704782B001900B46ADF87A
S1130B6002301346ADF80030BDF80030DAB2019B14
S1130B70C3F8A020BDF80230C3F30902019BC3F8F7
S1130B80B02000BF02B0704782B00190019B9B0966
S1130B9003F00103002B14BF01230023DBB218462A
S1130BA002B0704782B00190019BDB0903F001039E
S1130BB0002B14BF01230023DBB2184602B0704798
S1130BC084B001900B468DF803309DF80320019BFF
S1130BD0123253F82230ADF80E30BDF80E30C3F3A4
S1130BE00B03ADF80E30BDF80E30184604B0704754
S1130BF000B585B003900291019207F0C1FB029BFE
S1130C00597A029BDB681A460398FFF70DFF07F039
S1130C10E3FB07F02FFA01990398FFF748FF07F069
S1130C2055FA06F069FF029B1B7A19460398FFF7F1
S1130C30DAFE06F08DFF06F0C3FE029B1968029BE4
S1130C405B681A460398FFF773FE06F0E5FE00BFE3
S1130C5005B05DF804FB00B587B001900091764AB9
S1130C60019B52F82330029300230593002304933D
S1130C70009B1968009B9B681A460298FFF758FE70
S1130C80009B1B7B19460298FFF7ADFE009B597B26
S1130C90009B1B691A460298FFF7C6FE009B5B691E
S1130CA01946019800F000FA009B1B6ADBB2194652
S1130CB0019800F0CFFD009BDB69DBB21946019877
S1130CC000F008FE049B43F040030493009B9B69DF
S1130CD09B0103F04003059A13430593009B93F88B
S1130CE02430002B04D0059B43F00403059303E058
S1130CF0049B43F004030493049B43F00303049311
S1130D00009B9B6A03F00303059A13430593049B1A
S1130D1043F038030493009B93F82D30002B01D04B
S1130D20202300E00023059A13430593009B93F8C6
S1130D302E30002B01D0102300E00023059A13432A
S1130D400593009B93F82F30002B01D0082300E07B
S1130D500023059A13430593009B1B8E1A46029B9E
S1130D60C3F88820009B5B8E1A46029BC3F88C2034
S1130D70059A04990298FFF7C3FD009B998E009B86
S1130D80DB8E1A460298FFF7E7FE009B93F82C309F
S1130D901946019800F05CF9009BDB6B002B1CD01A
S1130DA000238DF80F3011E0009BD96B9DF80F20C4
S1130DB013465B0013449B000B441946019800F052
S1130DC0C9F99DF80F3001338DF80F30009B93F86B
S1130DD038309DF80F209A42E6D3009B196C1748CF
S1130DE0019A13469B0013441B0103440C331960FE
S1130DF0009B59681148019A13469B0013441B0138
S1130E000344043319600D49019A13469B001344AB
S1130E101B010B4401221A70009BD9690748019AEF
S1130E2013469B0013441B0103440833196000BF9D
S1130E3007B05DF804FB00BF78B200001494FF1FF4
S1130E4000B5C5B001AB186000233293032333937C
S1130E50002334930C238DF8D43000238DF8D5303F
S1130E6000233693002337930023389300233993C8
S1130E7000233A9300238DF8EC3000233C930023A5
S1130E808DF8F43000238DF8F53000238DF8F6301A
S1130E9000238DF8F7300023ADF8F8300023ADF8C7
S1130EA0FA300423ADF8FC300023ADF8FE301023F3
S1130EB08DF8003100238DF80F3125E09DF80F21C6
S1130EC002A913465B0013449B000B449DF80F21B9
S1130ED01A709DF80F2102A913465B0013449B006E
S1130EE00B4404331F221A609DF80F2102A91346F4
S1130EF05B0013449B000B44083300221A709DF8D6
S1130F000F3101338DF80F319DF80F310F2BD5D9E7
S1130F1002AB41930023429332AA01AB11461868F5
S1130F20FFF799FE064901AB1A6813469B00134468
S1130F301B010B4400221A7000BF45B05DF804FB8E
S1130F401494FF1F00B587B003900B4601928DF8EF
S1130F500B300A4A039B52F82330059307F074F9C7
S1130F609DF80B30019A19460598FFF75DFD07F0CF
S1130F7097F900BF07B05DF804FB00BF78B200002A
S1130F8000B585B001900B468DF80330094A019BEA
S1130F9052F82330039306F0FDFD9DF80330194603
S1130FA00398FFF720FD06F021FE00BF05B05DF8B1
S1130FB004FB00BF78B2000000B585B001900A4A76
S1130FC0019B52F82330039307F0F0F8039BD3F806
S1130FD0903043F00402039BC3F8902007F012F909
S1130FE000BF05B05DF804FB78B2000000B585B021
S1130FF001900A4A019B52F82330039306F09EFFA6
S1131000039BD3F8903023F00402039BC3F8902091
S113101006F0C0FF00BF05B05DF804FB78B2000025
S113102000B585B001900091084A019B52F8233025
S1131030039306F0D1FF00990398FFF738FD06F0FB
S1131040F7FF00BF05B05DF804FB00BF78B20000F5
S113105000B585B001900B468DF80330114A019B11
S113106052F82330039307F0D9F9039BD3F8943053
S11310700293029B23F0080302939DF80330002B94
S113108001D0082300E00023029A13430293039B38
S1131090029AC3F8942007F0EDF900BF05B05DF89B
S11310A004FB00BF78B2000000B585B00190009148
S11310B00E4A019B52F82330039306F097FB039BDF
S11310C01B6C0293029B23F00C030293009B9B0076
S11310D003F00C03029A13430293039B029A1A64CB
S11310E006F0B0FB00BF05B05DF804FB78B2000069
S11310F000B585B001900091154A019B52F8233048
S1131100039306F0C1FB009B1968009B5B681A46B9
S11311100398FFF70DFC06F0E3FB06F09FFC009B31
S11311201B7A19460398FFF75EFC06F0C3FC07F030
S1131130D9F8009B597A009BDB681A460398FFF79D
S113114073FC07F0FBF800BF05B05DF804FB00BFBB
S113115078B2000010B584B001900091124A019B4E
S113116052F823300393009B5B68029306F098FEC9
S1131170009B1978009B1B7A029A0398FFF7BFFC27
S113118006F0BAFE009B1B781C46009B5968074872
S1131190019A13469B0013449B002344043340F8F4
S11311A0231000BF04B010BD78B200001494FF1FD8
S11311B000B589B001900B468DF8033013468DF8C5
S11311C00230254A019B52F82330059300230793EC
S11311D0002142F2107004F0F2FC0490002004F0AC
S11311E0B8FC034603930023069306F021FD9DF803
S11311F00320059B53F822309DF8032043F01F0180
S1131200059B43F8221006F03FFD9DF80230002BA9
S11312101CD008E003AB0021184604F0ACFC0246E5
S1131220069B134406939DF80320059B53F8223034
S113123003F01F031F2B03D0069A049B9A42E9D3A1
S1131240069A049B9A4201D302230793079B1846EC
S113125009B05DF804FB00BF78B2000000B587B0A8
S11312600390029113468DF807300A4A039B52F803
S11312702330059306F02AFD9DF80730029A0021D9
S11312800598FFF73CFC06F04DFD00BF07B05DF884
S113129004FB00BF78B2000084B001900B4A019BAC
S11312A052F823300393039BD3F890300293029BAC
S11312B0DB0903F001030293029B002B14BF0123FB
S11312C00023DBB2184604B0704700BF78B20000B8
S11312D000B585B001900B468DF80330094A019B97
S11312E052F8233003939DF80320039B53F82230D4
S11312F002930298FFF748FC0346184605B05DF8D0
S113130004FB00BF78B2000000B585B001900B4625
S11313108DF80330094A019B52F8233003939DF85A
S11313200320039B53F8223002930298FFF73AFC00
S11313300346184605B05DF804FB00BF78B2000010
S113134000B585B001900B468DF80330074A019B28
S113135052F8233003939DF8033019460398FFF79E
S11313602FFC0346184605B05DF804FB78B2000074
S113137000B593B001905A4A019B52F823300F9361
S113138000231193002142F2107004F018FC0E9017
S1131390002004F0DEFB03460B93002310930F9B05
S11313A0D3F894300D930D9B9B0803F00103002B9D
S11313B014BF01230023DBB28DF825300D98FFF70D
S11313C058FB03460A930F9B5B6C0D930D9BDBB29A
S11313D08DF824300F9BD3F890301846FFF780FB2C
S11313E00C900F9B1B6C0D930D98FFF7BFFA0346EF
S11313F007930D98FFF7D9FA0346089301238DF854
S11314001530032306930C238DF814303549019AC3
S113141013469B0013441B010B4404331B680393C2
S1131420089B049303AB002219460F98FFF7E0FBD7
S11314300F9B0022C3F8B4200F9B0022C3F8B820EE
S11314400F9B0022C3F8BC200F9B0022C3F8C020CE
S11314500F9B0022C3F8C4200F9B0022C3F8C820AE
S11314600F9B0022C3F8CC2006F08AFF0F9BD3F811
S113147094300D930D9B23F080030D930D9B43F04B
S113148080030D930F9B0D9AC3F8942006F0A4FFDC
S113149008E00BAB0021184604F06DFB0246109BDC
S11314A0134410930F9BD3F8943003F08003002B64
S11314B003D0109A0E9B9A42EBD3109A0E9B9A4239
S11314C001D30223119307AB0C9A19460F98FFF727
S11314D08FFB0F9B9B6C119B184613B05DF804FBAC
S11314E078B200001494FF1F00B589B001901F4A20
S11314F0019B52F82330059300230793002142F205
S1131500107004F05CFB0490002004F022FB0346FE
S113151003930023069306F005FA059B1B6C43F422
S11315208072059B1A6406F029FA08E003AB0021D7
S1131530184604F020FB0246069B13440693059BC1
S1131540D3F8903003F47023002B03D0069A049B45
S11315509A42EBD3069A049B9A4201D3022307933F
S1131560079B184609B05DF804FB00BF78B2000081
S113157000B585B001900B468DF803300C4A019BF1
S113158052F82330039306F0EFFB9DF80320039BEE
S113159053F822309DF8032043F04001039B43F8A5
S11315A0221006F00DFC00BF05B05DF804FB00BF7F
S11315B078B2000000B585B001900B468DF8033079
S11315C00C4A019B52F82330039306F01BFC9DF850
S11315D00320039B53F822309DF8032023F040019D
S11315E0039B43F8221006F039FC00BF05B05DF8F8
S11315F004FB00BF78B2000000B585B001900A4A30
S1131600019B52F82330039306F082FD039BD3F829
S1131610903043F07062039BC3F8902006F0A4FD61
S113162000BF05B05DF804FB78B2000084B00190FF
S1131630064A019B52F823300393039BD3F890305E
S11316401B0E03F00F03184604B0704778B2000075
S113165082B001900B468DF80330064A019B52F884
S113166023209DF8033012339B001344184602B024
S1131670704700BF78B2000088B0039002910192D5
S1131680244A039B52F82330059300230793002335
S1131690ADF81A3000238DF8183000238DF8193076
S11316A017E09DF819101C48039A13469B00134435
S11316B09B000B44043350F82330029A9A4203D11E
S11316C001238DF8183008E09DF8193001338DF8A6
S11316D019309DF819300F2BE3D99DF81830002BE1
S11316E00ED09DF81920059B123253F82230ADF824
S11316F01A30BDF81A30C3F30B03ADF81A3001E009
S113170001230793019BBDF81A201A80079B1846F2
S113171008B0704778B200001494FF1F00B583B07E
S113172001900091009BDBB21946019800F014F976
S113173000BF03B05DF804FB00B587B00190434AD5
S1131740019B52F82330049300238DF80F300023BB
S11317508DF80E303E49019A13469B0013441B0139
S11317600B441B78002B58D03949019A13469B002F
S113177013441B010B440C331B68002B4DD0002376
S11317808DF8173044E09DF81720049B53F822305D
S113179002930298FFF7F8F903468DF80F30029888
S11317A0FFF700FA03468DF80E309DF80F30002B3A
S11317B011D09DF80E30002B0DD02549019A134607
S11317C09B0013441B010B440C331B689DF817202A
S11317D01046984717E09DF817101D48019A1346C4
S11317E09B0013449B000B44043350F823301F2BFD
S11317F009D19DF80E30002B05D09DF817301946FD
S11318000498FFF7DDF99DF8173001338DF8173090
S11318109DF817300F2BB6D913E000238DF817303D
S11318200AE09DF8173019460498FFF7C9F99DF8A6
S1131830173001338DF817309DF817300F2BF0D97E
S113184000BF00BF07B05DF804FB00BF78B2000022
S11318501494FF1F00B583B001900B468DF803303C
S11318609DF803301946019800F004F800BF03B056
S11318705DF804FB84B001900B468DF80330144BE3
S11318809B690393019B002B03D0019B012B0CD07C
S113189018E0039B23F0010303939DF8033003F046
S11318A00103039A134303930CE0039B23F4807313
S11318B003939DF803301B0203F48073039A1343CC
S11318C0039300BF024A039B936100BF04B07047B7
S11318D00080044000B583B001900B468DF80330BE
S11318E09DF803301946019800F004F800BF03B0D6
S11318F05DF804FB84B001900B468DF80330154B62
S11319009B690393019B002B03D0019B012B0DD0FA
S113191019E0039B23F0300303939DF803301B016C
S113192003F03003039A134303930CE0039B23F463
S1131930405303939DF803301B0303F44053039A6D
S11319401343039300BF034A039B936100BF04B096
S1131950704700BF0080044000B585B001900B467D
S11319608DF8033006F0A8FD164B9B690393019B89
S1131970002B03D0019B012B0DD019E0039B23F016
S11319800E0303939DF803305B0003F00E03039AE8
S1131990134303930CE0039B23F4606303939DF8C8
S11319A003305B0203F46063039A1343039300BFA1
S11319B0044A039B936106F0ABFD00BF05B05DF8DC
S11319C004FB00BF0080044008B50020FFF7B4FE0C
S11319D0BFF34F8F00BF08BD08B50120FFF7ACFE71
S11319E0BFF34F8F00BF08BD00B585B00190012340
S11319F00393019800F018F80A4B1B78002B0AD0C7
S1131A0000F060FB0290029B002B06D100F09EFBCD
S1131A100023039301E000230393039B184605B0BE
S1131A205DF804FBB494FF1F00B585B001909B4B97
S1131A301B68002B2DD00023039324E0019A039B01
S1131A401B01134403F56E731A6895491346DB00B2
S1131A5013440B4401331B781A46924B9B5C02934C
S1131A609149029A13465B001344DB000B441B6844
S1131A70039A120102F56E7201990A4410469847BE
S1131A80039B01330393019B9B7B1A46039B934265
S1131A90D4D3824A019B1360019802F0DFFC0198C1
S1131AA000F0B4FD0023039328E00199039A134640
S1131AB05B0013449B000B4410331A6878491346A7
S1131AC0DB0013440B4401331B781A46774B9B5CB1
S1131AD002937749029A13465B0013449B000B441C
S1131AE01968039A13465B0013449B001033019A50
S1131AF0134418468847039B01330393019B1B79C6
S1131B001A46039B9342D0D30023039329E00199FF
S1131B10039A13469B0013449B000B4428331A6812
S1131B205F491346DB0013440B4401331B781A4608
S1131B30604B9B5C02936049029A13469B001344DA
S1131B409B000B4404331968039A13469B00134407
S1131B509B002833019A134418468847039B01339A
S1131B600393019B5B791A46039B9342CFD301985D
S1131B7000F0D1FC0023039327E00199039A134654
S1131B809B0013449B000B4403F569731A68444992
S1131B901346DB0013440B4401331B781A46474BAE
S1131BA09B5C0293464A029B52F82310039A134605
S1131BB09B0013449B0003F56873019A1344043398
S1131BC018468847039B01330393019B5B7B1A46AA
S1131BD0039B9342D1D30023039326E00199039AF4
S1131BE013465B0013449B000B4403F50A731A6805
S1131BF02B491346DB0013440B4401331B781A466C
S1131C00304B9B5C0293304A029B52F83310039A88
S1131C1013465B0013449B0003F50A73019A1344B3
S1131C2018468847039B01330393019B5B7A1A464A
S1131C30039B9342D2D30023039326E00199039A92
S1131C4013465B0013449B000B4403F59C731A6812
S1131C5013491346DB0013440B4401331B781A4623
S1131C601A4B9B5C02931A4A029B52F82310039A64
S1131C7013465B0013449B0003F59C73019A1344C1
S1131C8018468847039B01330393019B1B7A1A462A
S1131C90039B9342D2D30023039343E0B894FF1FE2
S1131CA020B3000010B30000ECB80000B0B2000094
S1131CB0B0B80000A0B2000044B8000000B30000B7
S1131CC02CB9000090B200003CB8000080B20000C3
S1131CD000B800000199039A13465B0013449B006B
S1131CE00B4403F50A731A68A5491346DB00134431
S1131CF00B4401331B781A46A24B9B5C0293A24A05
S1131D00029BDB0013445968039A13465B00134497
S1131D109B0003F50A73019A134418468847039BF2
S1131D2001330393019B5B7A1A46039B9342D1D3FD
S1131D30002303932AE00199039A1346DB009B1ABC
S1131D409B000B443C331A688D491346DB00134453
S1131D500B4401331B781A468C4B9B5C02938C49D1
S1131D60029A13469B0013449B000B4404331968E6
S1131D70039A1346DB009B1A9B003833019A1344E1
S1131D80043318468847039B01330393019B9B79D3
S1131D901A46039B9342CED30023039325E0019A72
S1131DA0039B1B01134403F56E731A6874491346AD
S1131DB0DB0013440B4401331B781A46754B9B5CC0
S1131DC002937549029A13465B001344DB000B44EB
S1131DD004331B68039A120102F56E7201990A44D6
S1131DE010469847039B01330393019B9B7B1A4640
S1131DF0039B9342D3D30023039329E00199039ACD
S1131E0013469B0013449B000B4428331A685C4917
S1131E101346DB0013440B4401331B781A465F4B13
S1131E209B5C02935E49029A13469B0013449B00F9
S1131E300B4408331968039A13469B0013449B0010
S1131E402833019A134418468847039B01330393AC
S1131E50019B5B791A46039B9342CFD300230393E0
S1131E602AE00199039A1346DB009B1A9B000B445A
S1131E703C331A6842491346DB0013440B440133D4
S1131E801B781A46414B9B5C02934149029A1346C4
S1131E909B0013449B000B440C331968039A1346AC
S1131EA0DB009B1A9B003833019A13440433184611
S1131EB08847039B01330393019B9B791A46039B39
S1131EC09342CED30023039325E0019A039B23334B
S1131ED01B01134404331A6829491346DB001344D5
S1131EE00B4401331B781A462E4B9B5C02932E49FC
S1131EF0029A13465B0013449B000B4404331B6893
S1131F00039A2332120101990A4404321046984775
S1131F10039B01330393019B9B7A1A46039B9342D1
S1131F20D3D3224B00221A70002303934CE0019A6E
S1131F30039B0B33DB0013445B681D4A52F82330C8
S1131F40032B3BD0019B039A0B3253F832200C49EC
S1131F501346DB0013440B4401331B781A46154B1C
S1131F609B5C0293144A029BDB0013445B68039A54
S1131F700B32D20001990A441046984721E000BF71
S1131F8020B3000090B200003CB80000E0B20000B2
S1131F9004B9000010B30000ECB80000A0B20000C7
S1131FA044B80000D0B200006CB80000B494FF1F25
S1131FB03CB70000F0B2000030B900003B4B0122F6
S1131FC01A70039B01330393019BDB791A46039B2D
S1131FD09342ACD3354B1B7883F00103DBB2002B67
S1131FE060D0002303931FE0019A039B4C33DB0072
S1131FF013445A682E491346DB0013440B4401333F
S11320001B781A462B4B9B5C02932B4A029B52F87B
S11320103330039A4C32D20001990A4404321046F8
S11320209847039B01330393019B1B7B1A46039B35
S11320309342D9D3019B03F57273184602F01EF93B
S11320400023039325E0019A039B1B01134403F52A
S11320506E731A6816491346DB0013440B440133AC
S11320601B781A46154B9B5C02931549029A13463A
S11320705B001344DB000B4414331B68039A120106
S113208002F56E7201990A4410469847039B013386
S11320900393019B9B7B1A46039B9342D3D30198E2
S11320A002F0F1F800BF05B05DF804FBB494FF1F23
S11320B020B30000C0B2000078B8000010B30000E4
S11320C0ECB8000000B585B002230393002302930B
S11320D02CE01A4A029B52F8232019491346DB00CC
S11320E013440B4401331B781A46164B9B5C019333
S11320F01549019A13469B0013449B000B44083373
S11321001B680E49029A51F8222010469847009005
S1132110009B012B02D1012303930AE0009B022BB5
S113212001D100230393029B01330293029B002BF2
S1132130CFD0039B184605B05DF804FBFCB7000044
S113214020B30000E0B2000004B9000000B583B081
S1132150564B1B68002B00F0A580002301932CE054
S1132160524B1A68019B0B33DB0013445B68504AE3
S113217052F82330032B1DD14C4B1B68019A0B32B0
S113218053F832204B491346DB0013440B4401330C
S11321901B781A46484B9B5C0093484A009BDB0023
S11321A013445B68414A1168019A0B32D2000A4415
S11321B010469847019B013301933C4B1B68DB7924
S11321C01A46019B9342CBD33D4B1B78002B69D01D
S11321D00023019321E0354B1A68019B4C33DB004B
S11321E013445A6833491346DB0013440B44013348
S11321F01B781A46334B9B5C0093334A009B52F87E
S113220033302A4A1168019A4C32D2000A4404320B
S113221010469847019B01330193244B1B681B7B99
S11322201A46019B9342D6D3204B1B6803F5727365
S1132230184602F023F80023019327E01B4B1A6889
S1132240019B1B01134403F56E731A681949134665
S1132250DB0013440B4401331B781A461B4B9B5C75
S113226000931B49009A13465B001344DB000B44A4
S113227014331B680D4A1168019A120102F56E723B
S11322800A4410469847019B01330193074B1B688E
S11322909B7B1A46019B9342D0D3044B1B68184680
S11322A001F0F1FF00BF03B05DF804FBB894FF1F19
S11322B03CB7000020B30000F0B2000030B90000C9
S11322C0B494FF1FC0B2000078B8000010B300003F
S11322D0ECB8000000B585B001900D49019A134691
S11322E0DB0013440B4401331B781A46094B9B5CF7
S11322F003930949039A13465B001344DB000B4420
S113230008331B680198984700BF05B05DF804FBCB
S113231020B3000010B30000ECB8000000B585B095
S113232001900E49019A1346DB0013440B44013318
S11323301B781A460A4B9B5C03930A49039A13467B
S11323405B001344DB000B4410331B68019898476F
S11323500346184605B05DF804FB00BF20B3000037
S113236010B30000ECB8000000B585B001900D4931
S1132370019A1346DB0013440B4401331B781A46BD
S1132380094B9B5C03930949039A13465B0013446E
S1132390DB000B440C331B680198984700BF05B061
S11323A05DF804FB20B3000010B30000ECB800009B
S11323B000B583B001900091094B1B7883F00103B1
S11323C0DBB2002B04D002F01DFC054B01221A7075
S11323D00099019802F012FD00BF03B05DF804FB00
S11323E0B594FF1F82B00190024A019B136000BFA5
S11323F002B070470094FF1F00B585B001900C49EE
S1132400019A1346DB0013440B4401331B781A462C
S1132410084B9B5C0393084A039BDB0013445B68F3
S113242001210198984700BF05B05DF804FB00BF87
S113243020B30000C0B2000078B8000000B585B039
S113244001900C49019A1346DB0013440B440133F9
S11324501B781A46084B9B5C0393084A039BDB00DA
S113246013445B6800210198984700BF05B05DF8EC
S113247004FB00BF20B30000C0B2000078B8000025
S113248082B00190009100BF02B0704700B583B0E4
S113249001900091044B1B6800990198984700BF74
S11324A003B05DF804FB00BF0094FF1F00B585B0C6
S11324B00390029101920093002003F04AFB02462C
S11324C0039B1A60029B00221A600021009803F00B
S11324D076FB0246019B1A6000BF05B05DF804FB61
S11324E000B585B00390029101920021039803F096
S11324F042FB0246029B1B681A44029B1A60029B21
S11325001B68019A9A4294BF01230023DBB2184648
S113251005B05DF804FB00B583B00190084B1B784F
S113252083F00103DBB2002B04D002F06BFB044BFD
S113253001221A7000F006F800BF03B05DF804FB36
S1132540B594FF1F08B5264B1B7883F00103DBB25B
S1132550002B43D0224B01221A70224B5B680020CF
S11325609847204B9B68572098471E4BDB685720A1
S113257098471C4B1B69572098471B4B1B6800202E
S113258098471A4B1B6800209847194B1B6800207A
S11325909847184B5B6800209847164B9B68572058
S11325A09847154B1B6800209847134B5B68002124
S11325B057209847114B1B6800209847104B5B68C5
S11325C0002098470E4B9B68572098470D4B5B683B
S11325D0002098470C4B1B680020984700BF08BD9B
S11325E0BC94FF1FECB8000000B800003CB8000029
S11325F044B800006CB8000078B80000B0B800001F
S113260004B9000030B900002CB9000000B585B051
S11326100190019BDB7903931FE0039B5A1E019BEE
S11326200B3253F832205A491346DB0013440B444F
S113263001331B781A46574B9B5C0293564A029B04
S113264052F83330039A013A0B32D20001990A440A
S113265010469847039B013B0393039B002BDCD15B
S1132660019B9B7A039326E0039B013B019A23334E
S11326701B01134404331A6845491346DB00134411
S11326800B4401331B781A46444B9B5C0293444928
S1132690029A13465B0013449B000B441B68039A85
S11326A0013A2332120101990A4404321046984730
S11326B0039B013B0393039B002BD5D1019B9B7987
S11326C003932BE0039B5A1E01991346DB009B1ACC
S11326D09B000B443C331A682D491346DB0013441A
S11326E00B4401331B781A462E4B9B5C02932E49F4
S11326F0029A13469B0013449B000B441968039BE6
S11327005A1E1346DB009B1A9B003833019A13446C
S1132710043318468847039B013B0393039B002B18
S1132720D0D1019B5B7903932AE0039B5A1E019944
S113273013469B0013449B000B4428331A68144926
S11327401346DB0013440B4401331B781A46174B22
S11327509B5C02931649029A13469B0013449B0008
S11327600B441968039B5A1E13469B0013449B0099
S11327702833019A134418468847039B013B03936B
S1132780039B002BD1D100BF00BF05B05DF804FB53
S113279020B30000F0B2000030B90000D0B2000055
S11327A06CB80000E0B2000004B90000A0B2000060
S11327B044B8000082B0019000BF02B0704786B0F8
S11327C00190019B1A6811491346DB0013440B4422
S11327D01B780593019B5B680D4AD35C04930D4AF7
S11327E0059B52F823301B680393039B23F00703D4
S11327F00393039A049B13430393064A059B52F8DD
S11328002330039A1A6000BF06B0704720B300005B
S1132810E8B600002CB7000000B583B00190019821
S1132820FFF7CDFF00BF03B05DF804FB86B0019055
S1132830019B1A6811491346DB0013440B441B78AF
S11328400593019B5B680E4AD35C04930D4A059B78
S113285052F823301B680393039B23F4E063039330
S1132860049B1B02039A13430393064A059B52F8E5
S11328702330039A1A6000BF06B0704720B30000EB
S1132880E8B600002CB7000000B583B001900198B1
S1132890FFF7CCFF00BF03B05DF804FB84B00190E8
S11328A0019B5B68002B10D0094B5B690393039B6E
S11328B023F470230393019B5B68013B1B04039A7D
S11328C013430393024A039B536100BF04B0704750
S11328D00040064000B583B001900198FFF7DEFF89
S11328E000BF03B05DF804FB84B00190019B5B68FA
S11328F0002B10D0094B5B690393039B23F0F00377
S11329000393019B5B68013B1B01039A13430393ED
S1132910024A039B536100BF04B070470040064065
S113292000B583B001900198FFF7DEFF00BF03B04C
S11329305DF804FB84B00190019B5B68002B0FD011
S1132940094B5B690393039B23F00F030393019BE0
S11329505B68013B039A13430393034A039B53614C
S113296000BF04B0704700BF0040064000B583B00C
S113297001900198FFF7DEFF00BF03B05DF804FB90
S113298084B00190019B5B68002B10D0094B9B69BC
S11329900393039B23F470230393019B5B68013B24
S11329A01B04039A13430393024A039B936100BFDE
S11329B004B070470040064000B583B00190019810
S11329C0FFF7DEFF00BF03B05DF804FB84B00190A5
S11329D0019B5B68002B10D0094B9B690393039BFD
S11329E023F0F0030393019B5B68013B1B01039AF3
S11329F013430393024A039B936100BF04B07047DF
S1132A000040064000B583B001900198FFF7DEFF57
S1132A1000BF03B05DF804FB84B00190019B5B68C8
S1132A20002B0FD0094B9B690393039B23F00F03E7
S1132A300393019B5B68013B039A13430393034A8B
S1132A40039B936100BF04B0704700BF0040064081
S1132A5000B583B001900198FFF7DEFF00BF03B01B
S1132A605DF804FB84B00190019B5B68002B10D0DF
S1132A70094BDB690393039B23F470230393019BAA
S1132A805B68013B1B04039A13430393024A039BB1
S1132A90D36100BF04B070470040064000B583B066
S1132AA001900198FFF7DEFF00BF03B05DF804FB5F
S1132AB084B00190019B5B68002B10D0094BDB694B
S1132AC00393039B23F0F0030393019B5B68013B97
S1132AD01B01039A13430393024A039BD36100BF70
S1132AE004B070470040064000B583B001900198DF
S1132AF0FFF7DEFF00BF03B05DF804FB84B0019074
S1132B00019B5B68002B0FD0094BDB690393039B8C
S1132B1023F00F030393019B5B68013B039A134368
S1132B200393034A039BD36100BF04B0704700BF03
S1132B300040064000B583B001900198FFF7DEFF26
S1132B4000BF03B05DF804FB84B00190019B5B6897
S1132B50002B12D00A4B5B680393039B23F4E063BE
S1132B600393019B5B68013B1B0203F4E063039A3C
S1132B7013430393024A039B536000BF04B070479E
S1132B800080044000B583B001900198FFF7DCFF9A
S1132B9000BF03B05DF804FB84B001901949019BA8
S1132BA01A6819481346DB001344034405331B78A1
S1132BB051F823300393039B23F00F030393019BEA
S1132BC05B68013B03F00703039A13430393019BE0
S1132BD01B7A013BDB0003F00803039A13430393BE
S1132BE00849019B1A6808481346DB001344034450
S1132BF005331B781A46039B41F8223000BF04B00A
S1132C00704700BF0050064020B3000000B583B0F9
S1132C1001900198FFF7C0FF00BF03B05DF804FB0B
S1132C2082B00190094B9A6E019B5B68013B5B008B
S1132C3003F00E01019B1B7A013B03F001030B43DC
S1132C40024913438B6600BF02B070470080044002
S1132C5000B583B001900198FFF7E2FF00BF03B015
S1132C605DF804FB82B0019000BF02B07047000021
S1132C7082B0019000BF02B0704782B0019000BFE3
S1132C8002B0704782B00190094BD3F80031084A72
S1132C9023F40003C2F80031054BD3F80031044A91
S1132CA023F00103C2F8003100BF02B0704700BF37
S1132CB00040064000B583B001900198FFF7E2FFA1
S1132CC000BF03B05DF804FB82B00190019B1B8937
S1132CD0012B74D1019BDB7B002B02D0012B09D08B
S1132CE011E0394BD3F80831374A23F00803C2F80E
S1132CF0083108E0344BD3F80831334A43F0080371
S1132D00C2F8083100BF304BD3F808312E4A23F003
S1132D103003C2F80831019B5B682C4A93420DD9F9
S1132D20019B5B682A4A934208D2274BD3F80831A7
S1132D30254A43F02003C2F8083107E0224BD3F8B8
S1132D400831214A43F03003C2F80831019B1B7B50
S1132D50002B08D11C4BD3F808311B4A43F0040361
S1132D60C2F8083107E0184BD3F80831164A23F0AB
S1132D700403C2F80831019B1B7C022B11D0022BE7
S1132D8014DC002B02D0012B05D00FE00E4B0122E6
S1132D90C3F8002114E00C4B4FF00112C3F80021DA
S1132DA00EE0094B0B4AC3F8002109E0064BD3F8A7
S1132DB00031054A43F00103C2F8003100E000BFCE
S1132DC000BF02B0704700BF00400640FF083D004E
S1132DD000127A000100030000B583B0019001984D
S1132DE0FFF772FF00BF03B05DF804FB00B589B0C4
S1132DF0019000238DF81F301A4BD3F8003103F0F3
S1132E000103002B2AD003AA04A905A84CF25033CD
S1132E10FFF74CFB134BD3F800311B0E03F00103F7
S1132E200693039A04A905AB1846FFF759FB03461A
S1132E308DF81F30069B002B06D19DF81F3083F0C0
S1132E400103DBB2002BE5D19DF81F30002B05D028
S1132E50019B1B6819460120FFF718FB00BF09B04E
S1132E605DF804FB0040064082B00190054BD3F8A6
S1132E700031044A23F00103C2F8003100BF02B05C
S1132E80704700BF0040064000B583B00190019830
S1132E90FFF7EAFF00BF03B05DF804FB82B00190C6
S1132EA0019B1B89012B07D1054BD3F80031044A40
S1132EB043F00103C2F8003100BF02B0704700BF05
S1132EC00040064000B583B001900198FFF7E6FF8B
S1132ED000BF03B05DF804FB82B0019000BF02B0F4
S1132EE0704782B001900023184602B0704700007A
S1132EF082B0019000BF02B0704782B001900B46CF
S1132F008DF8033000BF02B0704784B00190094BC4
S1132F101B690393039B23F001030393019B9B8889
S1132F201A46039B13430393024A039B136100BF96
S1132F3004B070470080044000B583B0019001984C
S1132F40FFF7E3FF00BF03B05DF804FB00B585B0F5
S1132F5001900B468DF80330019B02939DF80330DA
S1132F60002B03D00023ADF80C3002E00123ADF8B0
S1132F700C3002AB1846FFF7DFFF00BF05B05DF869
S1132F8004FB84B00190094B1B690393039B23F05A
S1132F9002030393019B9B885B00039A13430393EF
S1132FA0024A039B136100BF04B0704700800440D1
S1132FB000B583B001900198FFF7E3FF00BF03B0B1
S1132FC05DF804FB00B585B001900B468DF8033025
S1132FD0019B02939DF80330002B03D00023ADF82E
S1132FE00C3002E00123ADF80C3002AB1846FFF7B9
S1132FF0DFFF00BF05B05DF804FB84B00190094B0E
S11330005B680393039B23F400630393019B9B88F6
S1133010DB02039A13430393024A039B536000BFEA
S113302004B070470080044000B583B0019001985B
S1133030FFF7E3FF00BF03B05DF804FB00B585B004
S113304001900B468DF80330019B02939DF80330E9
S1133050002B03D00023ADF80C3002E00123ADF8BF
S11330600C3002AB1846FFF7DFFF00BF05B05DF878
S113307004FB84B001901449019B1A681348134659
S1133080DB001344034406331B7851F823300393C5
S1133090039B23F080430393019B9B889B07039A24
S11330A0134303930849019B1A6808481346DB003D
S11330B01344034406331B781A46039B41F8223019
S11330C000BF04B0704700BF0050064020B30000AA
S11330D000B583B001900198FFF7CBFF00BF03B0A8
S11330E05DF804FB00B585B001900B468DF8033004
S11330F0019B02939DF80330002B03D00023ADF80D
S11331000C3002E00123ADF80C3002AB1846FFF797
S1133110DFFF00BF05B05DF804FB86B00190019BA2
S11331209B880593019B1A680F491346DB001344DF
S11331300B4406331B7804930C4B1B6C0393012242
S1133140049B02FA03F3DB43039A13400393059AA7
S1133150049B02FA03F3039A13430393034A039B66
S1133160136400BF06B0704720B300000080044021
S113317000B583B001900198FFF7CFFF00BF03B003
S11331805DF804FB00B585B001900B468DF8033063
S1133190019B02939DF80330002B03D00023ADF86C
S11331A00C3002E00123ADF80C3002AB1846FFF7F7
S11331B0DFFF00BF05B05DF804FB84B001900B4B4A
S11331C09B6E0393019B9B88012B04D1039B43F0CB
S11331D08053039303E0039B23F080530393034A38
S11331E0039B936600BF04B0704700BF0080044097
S11331F000B583B001900198FFF7DFFF00BF03B073
S11332005DF804FB00B585B001900B468DF80330E2
S1133210019B02939DF80330002B03D00023ADF8EB
S11332200C3002E00123ADF80C3002AB1846FFF776
S1133230DFFF00BF05B05DF804FB00BF82B0019062
S113324000BF02B0704782B0019000BF02B0704767
S113325000B58BB0019000238DF82730019B002B23
S11332600BD10523029301238DF80F300123ADF810
S11332700C3001238DF810300EE0019B1B68029383
S1133280019BDB798DF80F30019B9B88ADF80C30E6
S1133290019B1B7A8DF81030324BD3F80032314A3F
S11332A023F40003C2F800322E4BD3F800322D4A27
S11332B023F00103C2F800322A4BD3F80032294A22
S11332C023F00403C2F80032BDF80C30012B44D1C2
S11332D09DF80F30234A03F00103C2F80832214B52
S11332E0D3F800321F4A43F00103C2F800321D4BE9
S11332F0D3F800229DF810309B0003F00403194911
S11333001343C1F8003205AA06A907A84CF25033AA
S1133310FFF7CCF8134BD3F800321B0E03F0010374
S11333200893059A06A907AB1846FFF7D9F8034690
S11333308DF82730089B002B06D19DF8273083F0A9
S11333400103DBB2002BE5D19DF82730002B04D01C
S1133350029B19460120FFF799F800BF0BB05DF8F6
S113336004FB00BF0040064000B583B00190019803
S1133370FFF76EFF00BF03B05DF804FB00B589B032
S1133380019000238DF81F301F4BD3F800321E4AE2
S113339043F00103C2F800321B4BD3F800321A4A3F
S11333A043F00403C2F8003203AA04A905A84CF2AE
S11333B05033FFF77BF8144BD3F800321B0E03F0A5
S11333C001030693039A04A905AB1846FFF788F88E
S11333D003468DF81F30069B002B06D19DF81F3045
S11333E083F00103DBB2002BE5D19DF81F30002BE5
S11333F005D0019B1B6819460120FFF747F800BF61
S113340009B05DF804FB00BF0040064000B583B07E
S113341001900198FFF7B2FF00BF03B05DF804FB11
S113342082B00190094BD3F80032084A23F001031B
S1133430C2F80032054BD3F80032044A23F00403E7
S1133440C2F8003200BF02B0704700BF004006401F
S113345000B583B001900198FFF7E2FF00BF03B00D
S11334605DF804FB82B001900F4BD3F800320E4A92
S113347023F40003C2F800320B4BD3F800320A4A9B
S113348023F00403C2F80032074BD3F80022019B57
S11334901B7A9B0003F0040303491343C1F8003271
S11334A000BF02B0704700BF0040064000B583B0C3
S11334B001900198FFF7D6FF00BF03B05DF804FB4D
S11334C082B00190019B9B88012B07D1054BD3F857
S11334D00032044A43F00403C2F8003200BF02B0D1
S11334E0704700BF0040064000B583B001900198CA
S11334F0FFF7E6FF00BF03B05DF804FB82B0019064
S1133500054BD3F80032044A23F00403C2F8003216
S113351000BF02B0704700BF0040064000B583B052
S113352001900198FFF7EAFF00BF03B05DF804FBC8
S113353082B001900F4BD3F800320E4A23F40003FB
S1133540C2F800320B4BD3F800320A4A23F00203CC
S1133550C2F80032074BD3F80022019B5B7A5B0070
S113356003F0020303491343C1F8003200BF02B061
S1133570704700BF0040064000B583B00190019839
S1133580FFF7D6FF00BF03B05DF804FB82B00190E3
S1133590019B9B88012B07D1054BD3F80032044AC9
S11335A043F00203C2F8003200BF02B0704700BF0C
S11335B00040064000B583B001900198FFF7E6FF94
S11335C000BF03B05DF804FB82B00190054BD3F853
S11335D00032044A23F00203C2F8003200BF02B0F2
S11335E0704700BF0040064000B583B001900198C9
S11335F0FFF7EAFF00BF03B05DF804FB00B589B034
S1133600019000238DF81F30204B5B690693069BC5
S113361023F070630693019B1B06069A13430693DB
S11336201A4A069B536102AA03A904A84CF2503318
S1133630FEF73CFF154B1B691B0E03F00F03019AA9
S11336409A4201D0012300E000230593029A03A9C2
S113365004AB1846FEF744FF03468DF81F30059B64
S1133660002B06D19DF81F3083F00103DBB2002B41
S1133670E0D19DF81F30002B03D005210120FEF777
S113368005FF00BF09B05DF804FB00BF0040064021
S113369000B58BB00190019B1A6875491346DB0095
S11336A013440B441B78089300238DF81F30002328
S11336B08DF827306F4BD3F800336E4A23F40003A0
S11336C0C2F800336B4BD3F8003303F00073002BC4
S11336D07DD0019BDB791A46664BD3F8083303F09F
S11336E003039A420BD1019B9B791A46614BD3F891
S11336F00033DB0803F001039A4200F0B4805D4B11
S1133700D3F8003203F00103002B05D101238DF817
S113371027300020FFF728FE0220FFF76FFF554BEC
S1133720D3F80033534A23F00103C2F80033019B5A
S11337309B88012B40F09780019BDB794D4A03F075
S11337400303C2F808334B4BD3F80023019B9B7946
S1133750DB0003F008031343464A43F00103C2F8B5
S1133760003303AA04A905A84CF25033FEF79EFEC9
S1133770404BD3F800331B0E03F001030693039A66
S113378004A905AB1846FEF7ABFE03468DF81F30BF
S1133790069B002B06D19DF81F3083F00103DBB29A
S11337A0002BE5D19DF81F30002B05D0019B1B6831
S11337B019460120FEF76AFE0320FFF71FFF9DF85C
S11337C02730002B4FD00220FFF742FE4BE0294B5D
S11337D0D3F80033274A23F00103C2F80033019BD6
S11337E09B88012B3FD1019BDB79224A03F0030321
S11337F0C2F808331F4BD3F80023019B9B79DB00ED
S113380003F0080313431B4A43F00103C2F80033D7
S113381003AA04A905A84CF25033FEF747FE154B42
S1133820D3F800331B0E03F001030693039A04A993
S113383005AB1846FEF754FE03468DF81F30069B71
S1133840002B06D19DF81F3083F00103DBB2002B5F
S1133850E5D19DF81F30002B05D0019B1B6819464C
S11338600120FEF713FE00BF0BB05DF804FB00BFA0
S113387020B300000040064000B583B001900198D9
S1133880FFF706FF00BF03B05DF804FB00B589B085
S1133890019000238DF81F30019B9B88012B32D1AE
S11338A01B4BD3F800331A4A43F00103C2F8003328
S11338B003AA04A905A84CF25033FEF7F7FD144BF4
S11338C0D3F800331B0E03F001030693039A04A9F3
S11338D005AB1846FEF704FE03468DF81F30069B21
S11338E0002B06D19DF81F3083F00103DBB2002BBF
S11338F0E5D19DF81F30002B05D0019B1B681946AC
S11339000120FEF7C3FD00BF09B05DF804FB00BF52
S11339100040064000B583B001900198FFF7B6FF60
S113392000BF03B05DF804FB82B00190054BD3F8EF
S11339300033044A23F00103C2F8003300BF02B08D
S1133940704700BF0040064000B583B00190019865
S1133950FFF7EAFF00BF03B05DF804FB82B00190FB
S113396000BF02B0704782B0019000BF02B0704740
S113397082B0019000BF02B0704782B0019003236F
S1133980184602B07047000082B0019000BF02B038
S1133990704782B001900023184602B0704782B08D
S11339A0019000BF02B0704782B00190114BD3F870
S11339B00036104A23F40003C2F800360D4BD3F846
S11339C000360C4A23F00103C2F80036094BD3F841
S11339D00836084A23F4E063C2F80836054BD3F8E6
S11339E00836044A23F4F813C2F8083600BF02B0BC
S11339F0704700BF0040064000B583B001900198B5
S1133A00FFF7D2FF00BF03B05DF804FB82B0019062
S1133A10019B9B88012B2FD11A4BD3F80826019BBD
S1133A205B7B013B1B0203F4E061019B1B7C103BAD
S1133A301B0403F4F8130B4312491343C1F808366B
S1133A40019BDB7E022B11D0022B17DC002B02D052
S1133A50012B05D012E00B4B0022C3F800260EE028
S1133A60084B4FF48032C3F8002608E0054B4FF4AE
S1133A704032C3F8002602E000BF00E000BF00BFF0
S1133A8002B070470040064000B583B00190019831
S1133A90FFF7BCFF00BF03B05DF804FB00B589B0BD
S1133AA001900123079300238DF81B301E4BD3F89C
S1133AB0003603F00103002B2FD002AA03A904A8A7
S1133AC04CF25033FEF7F2FC174BD3F800361B0EC2
S1133AD003F001030593029A03A904AB1846FEF709
S1133AE0FFFC03468DF81B30059B002B06D19DF887
S1133AF01B3083F00103DBB2002BE5D19DF81B30B2
S1133B0083F00103DBB2002B02D00223079306E00B
S1133B1001990120FEF7BAFC01E000230793079BFB
S1133B20184609B05DF804FB0040064082B00190DD
S1133B30094BD3F80036084A23F40003C2F80036D0
S1133B40054BD3F80036044A23F00103C2F80036CB
S1133B5000BF02B0704700BF0040064000B583B00C
S1133B6001900198FFF7E2FF00BF03B05DF804FB8A
S1133B7082B00190019B9B88012B07D1054BD3F8A0
S1133B800036044A43F00103C2F8003600BF02B015
S1133B90704700BF0040064000B583B00190019813
S1133BA0FFF7E6FF00BF03B05DF804FB82B00190AD
S1133BB000BF02B07047000082B0019000BF02B0A5
S1133BC0704784B001900B4B5B7903930A4B5B699C
S1133BD00293029B23F070630293039B1B0603F082
S1133BE07063029A13430293034A029B536100BF1A
S1133BF004B0704788B600000040064000B583B0AA
S1133C0001900198FFF7DDFF00BF03B05DF804FBEE
S1133C1084B00190019B5B680B4AD35C03930B4B0C
S1133C205B690293029B23F070630293039B1B0660
S1133C3003F07063029A13430293044A029B536194
S1133C4000BF04B0704700BF88B6000000400640C3
S1133C5000B583B001900198FFF7DAFF00BF03B00D
S1133C605DF804FB84B00190019B5B680B4AD35C54
S1133C7003930B4B9B690293029B23F070630293A3
S1133C80039B1B0603F07063029A13430293044AD6
S1133C90029B936100BF04B0704700BF88B6000068
S1133CA00040064000B583B001900198FFF7DAFFA9
S1133CB000BF03B05DF804FB84B001900B4B5B794B
S1133CC003930B4BDB690293029B23F07063029313
S1133CD0039B1B0603F07063029A13430293044A86
S1133CE0029BD36100BF04B0704700BF88B60000D8
S1133CF00040064000B583B001900198FFF7DCFF57
S1133D0000BF03B05DF804FB84B00190019B5B68C5
S1133D100B4AD35C03930B4BDB690293029B23F0A6
S1133D2070630293039B1B0603F07063029A1343B0
S1133D300293044A029BD36100BF04B0704700BFE2
S1133D4088B600000040064000B583B00190019899
S1133D50FFF7DAFF00BF03B05DF804FB84B0019005
S1133D600A4B9B7B03930A4B1B690293029B23F030
S1133D7030030293039B1B01029A13430293044AE8
S1133D80029B136100BF04B0704700BF30B600004F
S1133D900080044000B583B001900198FFF7DEFF76
S1133DA000BF03B05DF804FB84B00190019B5B6825
S1133DB00A4AD35C03930A4B1B690293029B23F0C8
S1133DC030030293039B1B01029A13430293044A98
S1133DD0029B136100BF04B0704700BF30B60000FF
S1133DE00080044000B583B001900198FFF7DCFF28
S1133DF000BF03B05DF804FB84B001900A4B5B780C
S1133E0003930A4B1B690293029B23F00C03029356
S1133E10039B9B00029A13430293044A029B13617F
S1133E2000BF04B0704700BFB8B600000080044073
S1133E3000B583B001900198FFF7DEFF00BF03B027
S1133E405DF804FB84B00190019B5B680A4AD35C73
S1133E5003930A4B1B690293029B23F00C03029306
S1133E60039B9B00029A13430293044A029B13612F
S1133E7000BF04B0704700BFB8B600000080044023
S1133E8000B583B001900198FFF7DCFF00BF03B0D9
S1133E905DF804FB84B001900A4B5B7903930A4BF1
S1133EA01B6A0293029B23F070630293039B1B061D
S1133EB0029A13430293044A029B136200BF04B0A4
S1133EC0704700BF88B600000040064000B583B0CC
S1133ED001900198FFF7DEFF00BF03B05DF804FB1B
S1133EE084B00190019B5B680A4AD35C03930A4B3C
S1133EF01B6A0293029B23F070630293039B1B06CD
S1133F00029A13430293044A029B136200BF04B053
S1133F10704700BF88B600000040064000B583B07B
S1133F2001900198FFF7DCFF00BF03B05DF804FBCC
S1133F3086B00190204B5B790493019B1A681F495A
S1133F401346DB0013440B441B7803931C4BDB68C0
S1133F500593039B032B13D8039B5B0018330322A5
S1133F6002FA03F3DB43059A13400593039B5B00BA
S1133F701833049A02FA03F3059A1343059314E0E1
S1133F80039B043B5B001033032202FA03F3DB437D
S1133F90059A13400593039B043B5B001033049A7A
S1133FA002FA03F3059A13430593054A059BD3606C
S1133FB000BF06B0704700BF30B6000020B3000059
S1133FC00080044000B583B001900198FFF7B0FF72
S1133FD000BF03B05DF804FB86B00190019B5B68F1
S1133FE0204AD35C0493019B1A681F491346DB00E3
S1133FF013440B441B7803931C4BDB680593039B0E
S1134000032B13D8039B5B001833032202FA03F338
S1134010DB43059A13400593039B5B001833049A12
S113402002FA03F3059A1343059314E0039B043B3C
S11340305B001033032202FA03F3DB43059A1340B7
S11340400593039B043B5B001033049A02FA03F3C9
S1134050059A13430593054A059BD36000BF06B038
S1134060704700BF30B6000020B300000080044059
S113407000B583B001900198FFF7AEFF00BF03B015
S11340805DF804FB84B00190064B5B680393039BCB
S113409023F40F630393034A039B536000BF04B0EC
S11340A0704700BF0080044000B583B001900198C0
S11340B0FFF7E8FF00BF03B05DF804FB84B0019094
S11340C0019B5B680A4AD35C03930A4B5B680293C7
S11340D0029B23F0F0030293039B1B01029A1343F8
S11340E00293044A029B536000BF04B0704700BFB0
S11340F030B600000080044000B583B00190019800
S1134100FFF7DCFF00BF03B05DF804FB84B001904F
S1134110019B1A680C491346DB0013440B44043317
S11341201B780393094A039B52F823300293029BA2
S113413023F08E4302930549039B029A41F82320FE
S113414000BF04B0704700BF20B300000050064019
S113415000B583B001900198FFF7D8FF00BF03B00A
S11341605DF804FB86B00190019B1A68124913465E
S1134170DB0013440B4404331B780593019B5B68F9
S11341800E4AD35C04930E4A059B52F823300393E2
S1134190039B23F0E0630393049B1B0603F0E0639B
S11341A0039A134303930649059B039A41F823207A
S11341B000BF06B0704700BF20B30000B8B60000CF
S11341C00050064000B583B001900198FFF7CAFF84
S11341D000BF03B05DF804FB84B001900B4B1B7F60
S11341E003930B4B5B680293029B23F4805302936B
S11341F0039B1B0303F48053029A13430293044A60
S1134200029B536000BF04B0704700BFB8B6000003
S11342100080044000B583B001900198FFF7DCFFF3
S113422000BF03B05DF804FB84B00190019B5B68A0
S11342300B4AD35C03930B4B5B680293029B23F4FE
S113424080530293039B1B0303F48053029A13438A
S11342500293044A029B536000BF04B0704700BF3E
S1134260B8B600000080044000B583B00190019806
S1134270FFF7DAFF00BF03B05DF804FB82B00190E2
S113428000BF02B0704700B585B0019000238DF8DF
S11342900B30019B002B37D0002303932BE02A4BD8
S11342A01968039A13465B0013449B000B441033B4
S11342B01B68052B1CD101238DF80B30224B196888
S11342C0039A13465B0013449B000B4414331B886E
S11342D0002B18D11D4B1B7919461D4A0B465B0058
S11342E00B449B00134408331B68052098470AE0DD
S11342F0039B01330393144B1B681B791A46039BDE
S11343009342CCD300E000BF9DF80B3083F001034F
S1134310DBB2002B13D00F4B1B7883F00103DBB20D
S1134320002B0CD0094B1B791946094A0B465B003C
S11343300B449B00134408331B680520984700BFB7
S113434005B05DF804FB00BFC494FF1FB0B20000C9
S1134350B0B80000C094FF1F064B0022C3F8082326
S1134360044BD3F80033034A43F00103C2F800338B
S113437000BF70470040064084B0019003230393BC
S11343800023029328E0019B029A0B3253F8323047
S1134390282B0BD1019A029B0B33DB0013445B687F
S11343A02B4AD35C1B01039A13430393019B029A88
S11343B00B3253F83230292B0BD1019A029B0B3369
S11343C0DB0013445B68234AD35C9B00039A1343CA
S11343D00393029B01330293019BDB791A46029BF0
S11343E09342D0D30023029326E0019A029B4C33DC
S11343F0DB0013445B68122B09D1019A029B4C33F6
S1134400DB0013441B895B00039A13430393019A53
S1134410029B4C33DB0013445B68132B09D1019AD4
S1134420029B4C33DB0013441B891A46039B134342
S11344300393029B01330293019B1B7B1A46029B4D
S11344409342D2D3044A039B136100BF04B0704764
S113445030B60000B8B600000080044000B589B052
S1134460019000238DF81F30214A019B1360214BDA
S1134470D3F8003303F00103002B2ED11E4B00228E
S11344801A70FFF769FF03AA04A905A84CF2503378
S1134490FEF70CF8174BD3F800331B0E03F001039F
S11344A00693039A04A905AB1846FEF719F80346C8
S11344B08DF81F30069B002B06D19DF81F3083F02A
S11344C00103DBB2002BE5D19DF81F30002B07D090
S11344D005210120FDF7DAFF02E0074B01221A70E3
S11344E00198FFF749FF00BF09B05DF804FB00BF66
S11344F0C494FF1F00400640C094FF1F82B00023F5
S11345000093284B1B68002B23D00023019319E050
S1134510244B1968019A13465B0013449B000B4417
S113452010331B68052B0AD11E4B1968019A1346D8
S11345305B0013449B0010330B44009309E0019B80
S113454001330193174B1B681B791A46019B934255
S1134550DED3009B002B21D1134B0093124B052279
S11345601A60124BD3F800339BB203F001039AB2E2
S11345700D4B9A800D4BD3F80833DBB203F00303E1
S1134580DAB2094BDA71094BD3F80033DBB2DB1032
S1134590DBB203F00103DAB2034B9A71009B1846B5
S11345A002B07047C494FF1F3095FF1F00400640BF
S11345B082B000230093204B1B68002B23D00023E0
S11345C0019319E01C4B1968019A13469B0013448C
S11345D09B000B4428331B68082B0AD1164B19681F
S11345E0019A13469B0013449B0028330B44009309
S11345F009E0019B013301930F4B1B685B791A4659
S1134600019B9342DED3009B002B10D10B4B0093F4
S11346100A4B08221A600A4BD3F800319BB203F00C
S113462001039AB2054B1A81044B064A5A60009B57
S1134630184602B0704700BFC494FF1F3C95FF1F8B
S113464000400640005A620282B000230093294BC6
S11346501B68002B24D0002301931AE0254B196812
S1134660019A1346DB009B1A9B000B443C331B68E6
S1134670092B0BD11F4B1968019A1346DB009B1AB7
S11346809B0038330B440433009309E0019B01334E
S11346900193184B1B689B791A46019B9342DDD307
S11346A0009B002B21D1144B0093134B09221A6059
S11346B0124BD3F800369BB203F001039AB20E4BAF
S11346C09A800E4BD3F808361B0ADBB203F00703BB
S11346D0DAB2094B5A73094BD3F808361B0CDBB218
S11346E003F01F03DAB2044B1A74009B184602B09D
S11346F0704700BFC494FF1F5095FF1F0040064041
S113470086B0019000230593019B1B2B0FD0019BC6
S11347101B2B0FD8019B192B03D0019B1A2B03D001
S113472008E00023049308E00123049305E0022336
S1134730049302E00023049300BF364B1B68002B54
S11347401DD00023039313E0324B1B68039A0B32F2
S113475053F83230019A9A4207D12E4B1A68039BC0
S11347600B33DB001344059309E0039B01330393EC
S1134770284B1B68DB791A46039B9342E4D3059BC1
S1134780002B40D1049BDB00234A134405932249A8
S1134790049B019A41F83320019B1B2B25D0019BDC
S11347A01B2B32D8019B192B03D0019B1A2B0ED043
S11347B02BE01A4B5B691B0E03F00F03184A52F8E7
S11347C023201549049BDB000B445A601EE0134B65
S11347D09B691B0E03F00F03114A52F823200E4964
S11347E0049BDB000B445A6010E00C4BDB691B0E8E
S11347F003F00F030A4A52F823200749049BDB0005
S11348000B445A6002E000BF00E000BF059B18465D
S113481006B07047C494FF1F6C95FF1F004006400C
S1134820D8A4000086B001900023059300230493CC
S1134830019B1F2B0FD0019B1F2B0FD8019B1D2BFE
S113484003D0019B1E2B03D008E00023049306E051
S11348500123049303E00223049300E000BF414BCF
S11348601B68002B26D0002303931CE03D4B1968E2
S1134870039A13465B0013449B000B4403F59C739B
S11348801B68019A9A420BD1364B1968039A134656
S11348905B0013449B0003F59C730B44059309E0F0
S11348A0039B013303932F4B1B681B7A1A46039B0C
S11348B09342DBD3059B002B4DD1049A13465B0036
S11348C013449B00284A134405932749049A13462A
S11348D05B0013449B000B44019A1A60019B1F2B3D
S11348E029D0019B1F2B38D8019B1D2B03D0019B82
S11348F01E2B10D031E01D4B5B691B0C03F00F0322
S1134900591C1948049A13465B0013449B00034442
S11349100433196022E0154B9B691B0C03F00F0351
S1134920591C1148049A13465B0013449B0003442A
S11349300433196012E00D4BDB691B0C03F00F0309
S1134940591C0948049A13465B0013449B00034412
S11349500433196002E000BF00E000BF059B184665
S113496006B07047C494FF1F8495FF1F00400640A3
S113497086B001900023059300230493019B232B0D
S11349800FD0019B232B0FD8019B212B03D0019B1C
S1134990222B03D008E00023049306E001230493B0
S11349A003E00223049300E000BF414B1B68002B8B
S11349B026D0002303931CE03D4B1968039A134649
S11349C05B0013449B000B4403F59C731B68019A22
S11349D09A420BD1364B1968039A13465B00134471
S11349E09B0003F59C730B44059309E0039B01337F
S11349F003932F4B1B681B7A1A46039B9342DBD30A
S1134A00059B002B4DD1049A13465B0013449B0075
S1134A10284A134405932749049A13465B00134418
S1134A209B000B44019A1A60019B232B29D0019B04
S1134A30232B38D8019B212B03D0019B222B10D090
S1134A4031E01D4B5B691B0903F00F03591C194826
S1134A50049A13465B0013449B0003440433196017
S1134A6022E0154B9B691B0903F00F03591C1148E5
S1134A70049A13465B0013449B00034404331960F7
S1134A8012E00D4BDB691B0903F00F03591C0948A5
S1134A90049A13465B0013449B00034404331960D7
S1134AA002E000BF00E000BF059B184606B0704757
S1134AB0C494FF1FA895FF1F0040064086B00190D4
S1134AC00023059300230493019B272B0FD0019B04
S1134AD0272B0FD8019B252B03D0019B262B03D01A
S1134AE008E00023049306E00123049303E0022377
S1134AF0049300E000BF404B1B68002B26D000232A
S1134B0003931CE03C4B1968039A13465B0013445F
S1134B109B000B4403F59C731B68019A9A420BD1CA
S1134B20354B1968039A13465B0013449B0003F545
S1134B309C730B44059309E0039B013303932E4BB1
S1134B401B681B7A1A46039B9342DBD3059B002BFD
S1134B504AD1049A13465B0013449B00274A13442A
S1134B6005932649049A13465B0013449B000B44A7
S1134B70019A1A60019B272B27D0019B272B35D83C
S1134B80019B252B03D0019B262B0FD02EE01C4B21
S1134B905B6903F00F03591C1848049A13465B0021
S1134BA013449B0003440433196020E0144B9B69B5
S1134BB003F00F03591C1148049A13465B00134475
S1134BC09B0003440433196011E00D4BDB6903F0CF
S1134BD00F03591C0948049A13465B0013449B00B5
S1134BE003440433196002E000BF00E000BF059BEA
S1134BF0184606B0704700BFC494FF1FCC95FF1F32
S1134C000040064008B5594B5B781A4613469B0092
S1134C1013449B00564A1344564A1360564B5B7820
S1134C201A4613469B0013449B00544A1344544AA7
S1134C301360544B1B791A4613465B0013449B00C4
S1134C40514A1344514A1360514B5B79DB00514A7A
S1134C501344514A13604E4BDB79DB004D4A134435
S1134C604E4A13604E4B9B799B004E4A13444E4A66
S1134C7013604B4B1B7A9B004A4A13444B4A136004
S1134C80474B5B7A9B00474A1344494A1360444BA1
S1134C90DB7A9B00434A1344464A1360404B1B7B18
S1134CA09B00404A1344444A13603D4B9B7B9B004A
S1134CB03C4A1344414A1360FFF720FC0346404A30
S1134CC01360FFF775FC03463E4A1360FFF7BCFC14
S1134CD003463D4A13601920FFF712FD03463B4A81
S1134CE013601A20FFF70CFD0346394A13601B209A
S1134CF0FFF706FD0346374A13601D20FFF792FDB8
S1134D000346354A13601E20FFF78CFD0346334AE1
S1134D1013601F20FFF786FD0346314A13602120EC
S1134D20FFF726FE03462F4A13602220FFF720FEDA
S1134D3003462D4A13602320FFF71AFE03462B4A2D
S1134D4013602520FFF7BAFE0346294A1360262084
S1134D50FFF7B4FE0346274A13602720FFF7AEFE91
S1134D600346254A136000BF08BD00BFE0B200003F
S1134D7004B90000C894FF1FA0B2000044B80000AA
S1134D80CC94FF1FB0B20000B0B80000D094FF1F55
S1134D90F0B2000030B90000D494FF1F1095FF1F3B
S1134DA080B2000000B80000D894FF1F1495FF1FC4
S1134DB0DC94FF1F1895FF1FE094FF1F1C95FF1F35
S1134DC0E494FF1FE894FF1FEC94FF1FF094FF1F6F
S1134DD0F494FF1F2095FF1FF894FF1FFC94FF1FFE
S1134DE02495FF1F0095FF1F0495FF1F2895FF1FA3
S1134DF00895FF1F0C95FF1F2C95FF1F00B583B06E
S1134E0001900091019B032B00F08A80019B032BEE
S1134E1000F2CA80019B002B3DD0019B013B012B7A
S1134E2000F2C280009B002B40F0C080644B1B68E2
S1134E305B68644A126810469847634B1B681B689A
S1134E40624A126810469847614B1B681B68614AA6
S1134E50126810469847604B1B681B685F4A1268CB
S1134E60104698475E4B1B681B695E4A12681268BD
S1134E70104698475C4B1B68DB685C4A12681268F2
S1134E80104698475A4B1B689B685A4A1268126826
S1134E90104698478AE0009B022B40F08980544BCF
S1134EA01B685B68534A1268104698474E4B1B6850
S1134EB01B694E4A1268104698474B4B1B689B6807
S1134EC04A4A126810469847454B1B68DB68454AB6
S1134ED0126810469847424B1B689B68414A126807
S1134EE0126810469847364B1B685B68424A126842
S1134EF010469847344B1B681B68404A126810469A
S1134F009847334B1B681B683D4A12681046984704
S1134F10314B1B681B683B4A12681046984747E0B0
S1134F20009B022B46D1324B1B685B68314A1268E6
S1134F30104698472C4B1B681B692C4A1268104674
S1134F409847294B1B689B68284A12681046984763
S1134F50234B1B68DB68234A126810469847204B92
S1134F601B689B681F4A1268126810469847264BB4
S1134F701B685B68254A126810469847244B1B68D7
S1134F801B68244A126810469847234B1B681B6809
S1134F90224A126810469847214B1B681B68214A15
S1134FA012681046984705E000BF04E000BF02E025
S1134FB000BF00E000BF00BF03B05DF804FB00BF0A
S1134FC0D494FF1FF494FF1FD894FF1FFC94FF1F79
S1134FD0DC94FF1F0495FF1FE094FF1F0C95FF1F37
S1134FE0C894FF1FEC94FF1FCC94FF1FE894FF1F8D
S1134FF0D094FF1FE494FF1FF094FF1FF894FF1F49
S11350000095FF1F0895FF1F1095FF1F2095FF1F98
S11350101495FF1F2495FF1F1895FF1F2895FF1F48
S11350201C95FF1F2C95FF1F00BF704710B485B05F
S11350300446084611461A462346ADF80630034690
S11350408DF805300B468DF8043013468DF8033087
S1135050002303930E49039BBDF8062021F8132077
S11350600C4A039B13449DF805201A700A4A039BBB
S113507013449DF804201A70084A039B13449DF8B6
S113508003201A700023184605B05DF8044B7047DE
S11350902099FF1FA098FF1FAC98FF1FB898FF1F0F
S11350A010B485B00446084611461A462346ADF8A6
S11350B0063003468DF805300B468DF80430134650
S11350C08DF80330002303930E49039BBDF806209B
S11350D021F813200C4A039B13449DF805201A70F1
S11350E00A4A039B13449DF804201A70084A039B40
S11350F013449DF803201A700023184605B05DF888
S1135100044B70473499FF1FC498FF1FD098FF1FAA
S1135110DC98FF1F10B485B00446084611461A46B1
S11351202346ADF8063003468DF805300B468DF85E
S1135130043013468DF80330002303930E49039B78
S1135140BDF8062021F813200C4A039B13449DF854
S113515005201A700A4A039B13449DF804201A7010
S1135160084A039B13449DF803201A700023184631
S113517005B05DF8044B70470C99FF1FE898FF1FBA
S1135180F498FF1F0099FF1F00BF704710B485B04B
S11351900446084611461A462346ADF8063003462F
S11351A08DF805300B468DF8043013468DF8033026
S11351B000238DF80F3000230293234A029B32F818
S11351C01330BDF806209A4219D1204A029B134499
S11351D01B789DF805209A4211D11D4A029B134465
S11351E01B789DF804209A4209D11A4A029B134461
S11351F01B789DF803209A4201D1012300E000238B
S11352008DF80F309DF80F3003F001038DF80F3047
S11352100D4A029B002122F813100C4A029B1344EE
S113522000221A700A4A029B134400221A70094A87
S1135230029B134400221A709DF80F30184605B0E3
S11352405DF8044B704700BF2099FF1FA098FF1F13
S1135250AC98FF1FB898FF1F10B485B004460846E9
S113526011461A462346ADF8063003468DF805303C
S11352700B468DF8043013468DF8033000238DF867
S11352800F3000230293234A029B32F81330BDF8F7
S113529006209A4219D1204A029B13441B789DF898
S11352A005209A4211D11D4A029B13441B789DF894
S11352B004209A4209D11A4A029B13441B789DF890
S11352C003209A4201D1012300E000238DF80F301E
S11352D09DF80F3003F001038DF80F300D4A029B47
S11352E0002122F813100C4A029B134400221A7066
S11352F00A4A029B134400221A70094A029B13446F
S113530000221A709DF80F30184605B05DF8044B62
S1135310704700BF3499FF1FC498FF1FD098FF1F28
S1135320DC98FF1F10B485B00446084611461A469F
S11353302346ADF8063003468DF805300B468DF84C
S1135340043013468DF8033000238DF80F3000230A
S11353500293234A029B32F81330BDF806209A4286
S113536019D1204A029B13441B789DF805209A42C8
S113537011D11D4A029B13441B789DF804209A42C4
S113538009D11A4A029B13441B789DF803209A42C0
S113539001D1012300E000238DF80F309DF80F3078
S11353A003F001038DF80F300D4A029B002122F80F
S11353B013100C4A029B134400221A700A4A029BDF
S11353C0134400221A70094A029B134400221A70E3
S11353D09DF80F30184605B05DF8044B704700BFC8
S11353E00C99FF1FE898FF1FF498FF1F0099FF1FF7
S11353F082B000238DF8073000230093234A009BDA
S113540032F81330002B11D1214A009B13441B782E
S1135410002B0BD11F4A009B13441B78002B05D192
S11354201D4A009B13441B78002B01D0012300E08C
S113543000238DF807309DF8073003F001038DF841
S11354400730124A009B002122F81310104A009BD7
S1135450134400221A700F4A009B134400221A704E
S11354600D4A009B134400221A709DF80730002B4C
S113547014BF01230023DBB283F00103DBB203F08A
S11354800103DBB2184602B0704700BF2099FF1F2A
S1135490A098FF1FAC98FF1FB898FF1F82B000238D
S11354A08DF8073000230093234A009B32F8133011
S11354B0002B11D1214A009B13441B78002B0BD1E4
S11354C01F4A009B13441B78002B05D11D4A009BE7
S11354D013441B78002B01D0012300E000238DF836
S11354E007309DF8073003F001038DF80730124AA6
S11354F0009B002122F81310104A009B1344002241
S11355001A700F4A009B134400221A700D4A009B24
S1135510134400221A709DF80730002B14BF012396
S11355200023DBB283F00103DBB203F00103DBB23F
S1135530184602B0704700BF3499FF1FC498FF1F7C
S1135540D098FF1FDC98FF1F82B000238DF807302E
S113555000230093234A009B32F81330002B11D10F
S1135560214A009B13441B78002B0BD11F4A009B3C
S113557013441B78002B05D11D4A009B13441B7850
S1135580002B01D0012300E000238DF807309DF8A3
S1135590073003F001038DF80730124A009B002105
S11355A022F81310104A009B134400221A700F4A69
S11355B0009B134400221A700D4A009B13440022DE
S11355C01A709DF80730002B14BF01230023DBB2AF
S11355D083F00103DBB203F00103DBB2184602B02F
S11355E0704700BF0C99FF1FE898FF1FF498FF1F36
S11355F00099FF1F00B587B0039002910192039BAD
S11356000593059BDB43DB0FDBB21846FBF700F980
S1135610059B7A2BD4BF01230023DBB21846FBF78A
S1135620F7F84FF0E023D3F8083D164A93422CBF15
S113563001230023DBB21846FBF7EAF84FF0E0231E
S1135640D3F8083D0493019B002B08D0039B10332F
S11356509B00049A13441B681A46019B1A60039B1F
S113566010339B00049A1344029A1A60BFF34F8FBD
S1135670BFF36F8FBFF36F8FBFF34F8F00BF07B0C0
S11356805DF804FB0080FF1F00B583B00190019B0F
S1135690DB43DB0FDBB21846FBF7BAF8019B7A2B2E
S11356A0D4BF01230023DBB21846FBF7B1F8019BFA
S11356B003F01F020549019B5B09012000FA02F275
S11356C041F8232000BF03B05DF804FB00E100E0D3
S11356D000B583B00190019BDB43DB0FDBB21846BE
S11356E0FBF796F8019B7A2BD4BF01230023DBB28E
S11356F01846FBF78DF8019B03F01F020649019B36
S11357005B09012000FA02F2203341F8232000BF94
S113571003B05DF804FB00BF00E100E000B585B014
S113572001900B468DF80330019BDB43DB0FDBB2AA
S11357301846FBF76DF8019B7A2BD4BF0123002395
S1135740DBB21846FBF764F89DF803300F2B94BFC7
S113575001230023DBB21846FBF75AF804238DF823
S11357600F309DF803209DF80F3002FA03F1054A2B
S1135770019BC9B213440A4683F8002300BF05B055
S11357805DF804FB00E100E000B585B00190019BE9
S1135790DB43DB0FDBB21846FBF73AF8019B7A2BAD
S11357A0D4BF01230023DBB21846FBF731F80423EE
S11357B08DF80F30094A019B134493F80033DBB290
S11357C01A469DF80F3042FA03F38DF80E309DF817
S11357D00E30184605B05DF804FB00BF00E100E0A0
S11357E000B583B00190019BDB43DB0FDBB21846AD
S11357F0FBF70EF8019B7A2BD4BF01230023DBB205
S11358001846FBF705F8019B03F01F020649019BAC
S11358105B09012000FA02F2603341F8232000BF43
S113582003B05DF804FB00BF00E100E000B583B005
S11358300190019BDB43DB0FDBB21846FAF7E8FF6C
S1135840019B7A2BD4BF01230023DBB21846FAF75D
S1135850DFFF019B03F01F020649019B5B09012046
S113586000FA02F2403341F8232000BF03B05DF890
S113587004FB00BF00E100E000B583B00190019B90
S1135880DB43DB0FDBB21846FAF7C2FF019B7A2B2E
S1135890D4BF01230023DBB21846FAF7B9FF0B4A41
S11358A0019B5B09403352F82320019B03F01F0343
S11358B022FA03F303F00103002B14BF0123002396
S11358C0DBB2184603B05DF804FB00BF00E100E062
S11358D000B583B00190019BDB43DB0FDBB21846BC
S11358E0FAF796FF019B7A2BD4BF01230023DBB286
S11358F01846FAF78DFF0B4A019B5B09803352F877
S11359002320019B03F01F0322FA03F303F0010396
S1135910002B14BF01230023DBB2184603B05DF84B
S113592004FB00BF00E100E000B585B00190019BDD
S1135930002B14BF01230023DBB21846FAF768FFDB
S1135940019B1B68592B94BF01230023DBB218462B
S1135950FAF75EFF002303932CE0019B5A68039B34
S1135960DB0013441868019B5A68039BDB00134453
S11359705B79194600F086F8019B5A68039BDB00AB
S113598013441B79002B09D0019B5A68039BDB004D
S113599013441B68184600F061F808E0019B5A683C
S11359A0039BDB0013441B68184600F061F8039B5B
S11359B001330393019B1B68039A9A42CDD30023BE
S11359C0184605B05DF804FB00B585B00190019B55
S11359D0002B14BF01230023DBB21846FAF718FF8B
S11359E0019B1B68592B94BF01230023DBB218468B
S11359F0FAF70EFF0023039318E0019B5968039AFA
S1135A0013465B0013449B000B441868019B5968C0
S1135A10039A13465B0013449B000B449B680022CB
S1135A20194600F00DF8039B01330393019B1B6897
S1135A30039A9A42E1D30023184605B05DF804FBAB
S1135A4000B585B0039002910192019A02990398DE
S1135A50FFF7D0FD00BF05B05DF804FB00B583B0CF
S1135A6001900198FFF710FE00BF03B05DF804FB3E
S1135A7000B583B001900198FFF72AFE00BF03B080
S1135A805DF804FB00B583B001900B468DF803303C
S1135A909DF8033019460198FFF740FE00BF03B09C
S1135AA05DF804FB00B583B001900198FFF76CFE2C
S1135AB00346184603B05DF804FB00B583B00190BB
S1135AC00198FFF78DFE00BF03B05DF804FB00B53D
S1135AD083B001900198FFF7A9FE00BF03B05DF801
S1135AE004FB00B583B001900198FFF7C5FE03469F
S1135AF0184603B05DF804FB00B583B0019001982B
S1135B00FFF7E6FE0346184603B05DF804FB00BF4A
S1135B1000231846704782B001900123184602B052
S1135B20704782B0019000BF02B0704782B001900C
S1135B30019B184602B0704700B583B00190019BE9
S1135B40002B02D00020FAF770FE00BF03B05DF80E
S1135B5004FB00B585B0019000230393019B002B47
S1135B6003D1FFF7D5FF039000E000BF039B184665
S1135B7005B05DF804FB00B585B0019000910023E9
S1135B800393009B002B04D10198FFF7C4FF0390FB
S1135B9000E000BF039B184605B05DF804FB00B5A8
S1135BA083B001900091009B002B03D10198FFF773
S1135BB0B8FF00E000BF00BF03B05DF804FB00B510
S1135BC085B00190009100230393009B002B04D126
S1135BD00198FFF7ABFF039000E000BF039B18465A
S1135BE005B05DF804FB000084B0039001921A46EE
S1135BF00B468DF80B3013468DF80A309DF80A30A9
S1135C00002B16D09DF80B20039913469B001344D8
S1135C10DB000B44103319689DF80B20019B1943DA
S1135C20039813469B001344DB00034410331960AC
S1135C3016E09DF80B20039913469B001344DB00E8
S1135C400B4410331968019BDB439DF80B2019406A
S1135C50039813469B001344DB000344103319607C
S1135C6000BF04B0704782B00190019B1B6823F011
S1135C708002019B1A6000BF02B0704782B001909D
S1135C800B468DF803309DF80330002B06D0019BA2
S1135C901B6843F00202019B1A6005E0019B1B682C
S1135CA023F00202019B1A6000BF02B0704786B065
S1135CB003900B4601928DF80B309DF80B2003994D
S1135CC013469B001344DB000B4410331B680593FD
S1135CD0059B03F07F430593019B1B781A46059BA4
S1135CE013430593019B5B781B029BB2059A1343F4
S1135CF00593019B9B781B0403F47F03059A1343CC
S1135D0005939DF80B20039913469B001344DB0075
S1135D100B441033059A1A6000BF06B0704782B076
S1135D2001900B468DF803301346ADF800309DF812
S1135D300320019913469B001344DB000B441433E6
S1135D401968BDF800301B0403F47F03DB439DF89E
S1135D5003201940019813469B001344DB000344BD
S1135D601433196000BF02B0704700B587B00190CA
S1135D700091504A019B52F823300393002304936B
S1135D80009B1B689B0403F44023049A134304936D
S1135D90009B5B681B0303F4E043049A13430493DE
S1135DA0009B9B689B0003F00C03049A1343049329
S1135DB0009BDB681B0203F47063049A134304938F
S1135DC0009B1B7C002B03D0049B43F00203049331
S1135DD0009B5B7C002B03D0049B43F4004304939F
S1135DE0009BDB69002B03D0049B43F40033049332
S1135DF0039B049A1A60009B5B8A1946019800F081
S1135E008FF9009B1B7D002B3ED0009B9B69002BD0
S1135E103AD000238DF8173030E0009B99699DF843
S1135E20172013469B0013449B000B440293029BD0
S1135E301978029B01331A460398FFF738FF0023B1
S1135E408DF8163011E0029B19789DF81630029AED
S1135E505B0013449B889DF81620019800F074FAA7
S1135E609DF8163001338DF816309DF81630072B47
S1135E70E9D99DF8173001338DF81730009B1B7D4D
S1135E809DF817209A42C8D3019800F09BF8019816
S1135E9000F02EF9009BDA690749019BDB000B44F3
S1135EA05A60054A019B012102F8331000BF07B074
S1135EB05DF804FB88B90000F095FF1F00B597B0AA
S1135EC0019000230D9300230E9300230F930023CE
S1135ED0109300238DF8443000238DF845300023BF
S1135EE0ADF8463002238DF8483000238DF8573042
S1135EF04DE09DF8572013469B0013449B0016AABF
S1135F0013444C3B9DF857201A709DF857201346B4
S1135F109B0013449B0016AA13444B3B00221A70A7
S1135F209DF8572013469B0013449B0016AA134464
S1135F304A3B00221A709DF8572013469B001344D5
S1135F409B0016AA1344493B00221A7000238DF8C3
S1135F50563013E09DF857209DF8561013469B00C9
S1135F6013445B000B445B0016AA1344002223F87D
S1135F70482C9DF8563001338DF856309DF8563034
S1135F80072BE7D99DF8573001338DF857309DF82A
S1135F905730012BADD903AB1393002314930DABEE
S1135FA019460198FFF7E1FE019800F023F8044A2E
S1135FB0019B002102F8331000BF17B05DF804FB09
S1135FC0F095FF1F00B585B00190094A019B52F876
S1135FD02330039302F05AFB039B1B6843F08002B7
S1135FE0039B1A6002F07EFB00BF05B05DF804FB62
S1135FF088B9000000B585B00190084A019B52F8A9
S11360002330039302F090FB0398FFF72CFE02F079
S1136010B7FB00BF05B05DF804FB00BF88B9000002
S113602000B585B0019000910E4A019B52F82330CF
S1136030039302F0C7FB039B1B680293029B23F4A8
S113604070630293009B1B0203F47063029A134370
S11360500293039B029A1A6002F0E0FB00BF05B0B2
S11360605DF804FB88B9000000B585B001900B46CB
