S018000064656D6F70726F675F7333326B3134342E7372656374
S1132000007000203125000099250000992500006A
S11320109925000099250000992500000000000082
S113202000000000000000000000000099250000EE
S1132030992500000000000099250000F52B000000
S11320409925000099250000992500009925000094
S11320509925000099250000992500009925000084
S11320609925000099250000992500009925000074
S11320709925000099250000992500009925000064
S11323F09925000099250000EE11AA55FFFFFFFF63
S1132400FFFFFFFFFFFFFFFFFFFFFFFFFE7FFFFF59
S1132410044B05481B1A062B02D9044B03B1184779
S1132420704700BF6B84FF1F6884FF1F000000001B
S113243005490648091A891001EBD171491002D0E7
S1132440034B03B1184770476884FF1F6884FF1F5C
S11324500000000010B5064C237843B9FFF7D8FFFD
S1132460044B13B10448AFF300800123237010BD63
S11324700000002000000000802E000008B5084B7A
S11324801BB108490848AFF300800848036813B932
S1132490BDE80840CCE7064B002BF9D09847F7E796
S11324A00000000004000020802E00006484FF1F50
S11324B000000000A3F5803A704700BF174B002BC3
S11324C008BF134B9D46FFF7F5FF00218B460F46CF
S11324D01348144A121A00F0A3FC0E4B002B00D030
S11324E098470D4B002B00D0984700200021040092
S11324F00D000D48002802D00C48AFF3008000F016
S11325006BFC2000290000F0CDFA00F051FC00BF64
S1132510000008000000000000000000007000201F
S113252000000020B40000200000000000000000B3
S113253072B64FF000014FF000024FF000034FF06D
S113254000044FF000054FF000064FF00007B846B6
S1132550B946BA46BB46BC460A490B4A521A013A26
S113256005DD0020042308601944043AFBDA074817
S11325708546074880470748804762B6FFF79EFFB5
S1132580FEE700000080FF1F0070002000700020A4
S1132590052C0000D92C0000FFF7FEBF38B50C4B0A
S11325A01B68002B00DB38BD094A136823F0004385
S11325B0136000F019FB00F1FA05054C236813F4CD
S11325C0801FF0D000F010FB8542F7D2EBE700BF8C
S11325D00040024038B50B4B1A6842F080421A6042
S11325E01A6842F080521A6000F0FEFA00F1FA050F
S11325F0044C236813F0807F03D100F0F5FA854280
S1132600F7D238BD0040024070B582B000238DF887
S1132610003001238DF8013002238DF802300423A9
S11326208DF8033008238DF8043010238DF805301D
S113263020238DF8063040238DF80730AB4BD3F8B8
S1132640AC2122F08042C3F8AC21D3F8AC2122F0B3
S1132650E062C3F8AC21D3F8AC2142F08642C3F85F
S1132660AC21A3F58053D3F80433C3F302233BB95D
S11326709F4AD2F8043343F48073C2F8043301232D
S113268002AA134413F8082C9A4BB3FBF2F39A4AA8
S1132690A2FB0323DB0B0233C3F38C0343F040732D
S11326A043F40033954A1361954B536100239361BE
S11326B0136253624FF470339362936A43F0880356
S11326C093620123D3624FF440239361A2F5C04285
S11326D0D2F8903043F08043C2F89030FFF75EFFA9
S11326E0FFF778FF874B1B68002B11DB854A1368C3
S11326F043F00043136000F077FA00F1FA05814CCF
S1132700236813F4801F03D100F06EFA8542F7D2D8
S11327107C4A536823F400535360FFF73FFFFFF7ED
S113272059FF00238DF8003001238DF80130022376
S11327308DF8023004238DF8033008238DF804301B
S113274010238DF8053020238DF8063040238DF8B2
S11327500730674BD3F80431C3F302232BB94FF48A
S11327608072634BC3F80421012302AA134413F8B3
S1132770083C4FF4FA50B0FBF3F000221446624ECA
S11327804FF4FA7502E00132122A17D016F82230FB
S113279005FB03F3B0FBF3F103FB11010029F2D1B4
S11327A0B0FBF3F39CB2611E89B2FF29EBD8564B00
S11327B003EB820255789178D07802E0002001463C
S11327C00546504A536823F087031B041B0C5360CF
S11327D05668631E46EA0363536054686B1E03F035
S11327E007032343536054684B1EDB0403F4601354
S11327F0234353605468431E1B0403F4E023234320
S113280053605068042928BF04214B1E9B0503F420
S1132810400303435360536843F080035360002331
S11328201046194603F1200240F822100133802B90
S1132830F8D100233348194603F5087240F82210F2
S11328400133202BF8D12F4B1A6822F07F0242F07B
S11328501F021A601A6842F400321A601A6842F4BD
S113286080321A601A6822F000521A606FF0204217
S1132870C3F8A4284FF08062C3F81021234AC3F898
S1132880142100229A624FF0FF321A63204A1A621E
S11328901A6822F400021A605A6822F4805222F064
S11328A008025A601A6822F080421A601A6822F0FC
S11328B080521A6000F098F900F1FA05114C23686F
S11328C013F0807F03D000F08FF98542F7D200F037
S11328D08BF900F1FA050B4C236813F0006F03D059
S11328E000F082F98542F7D202B070BD0050064074
S11328F000400640006CDC02C5B3A29100B0064063
S113290000C01FC000400240342E000000009C198B
S113291006003B0010B582B03D4B1B78002B3FD125
S11329203C4B5B6913F4001F08D03A4BDB69DBB204
S1132930394A1370013BDBB2802B26D9374B1B6B12
S113294013F4007F1FD0354BD3F81001C0F30340BC
S1132950002855D00DF1FF310023314C83F00302E0
S1132960D2B2125D01F8012F0133DAB29042F5D8E8
S11329702A4B4FF400721A639A682A4B1A609DF826
S11329800030FF2B2CD002B010BD00F02DF9264BE7
S1132990186001221E4B1A700022244B1A70CDE7D6
S11329A01C4B5B6913F4001F1FD020490B78194A94
S11329B0D469194AD01844700133DBB20B70127811
S11329C09A42BBD10022124B1A70134B5B78FF2B37
S11329D0B4D1114B9B78002BB0D100F071F9ADE765
S11329E00228D0D100F06CF9CDE700F0FDF80E4BD1
S11329F01B6864339842A1D90022054B1A709DE7E5
S1132A00064B4FF400721A639A68064B1A60BAE7D1
S1132A10A200002000B00640200000200040024038
S1132A20184102401C000020A4000020A300002044
S1132A30074A136843F480731360064B5A6942F0E3
S1132A4001025A615A6842F001025A60704700BF9D
S1132A5000C00440C0F00F4008B500F0C5F80E4BAC
S1132A601B68C31A632B0CD90C4B1B7853B9012276
S1132A700A4B1A700A4A936843F001039360064BA9
S1132A80186008BD0022054B1A70054A536843F0CC
S1132A9001035360F3E700BFAC000020A80000204E
S1132AA0C0F00F4008B5414B40F20112C3F80421B5
S1132AB02422C3F80821D3F8002112F4000FFAD11C
S1132AC001223A4BC3F80021D3F8002112F0807F91
S1132AD0FAD0364BD3F8002612F4000FFAD1334B58
S1132AE0D3F8002622F00102C3F80026D3F8042606
S1132AF042F4407242F00202C3F804264FF4C012BA
S1132B00C3F80826D3F8002612F4000FFAD1274A96
S1132B10D2F8003643F00103C2F800361346D3F866
S1132B20002612F0807FFAD0204B40F20112C3F845
S1132B3004221F4A5A611A461369C3F30363062B1E
S1132B40FAD100F07DF81B4BD3F82C2142F08042DF
S1132B50C3F82C21D3F8302142F08042C3F830214D
S1132B60D3F8342142F08042C3F83421A3F5D033A2
S1132B701A6A42F400721A625A6A42F400725A6281
S1132B8003F500531A6942F4A0621A615A6942F4C7
S1132B90A0625A6100F010F8FFF74AFF62B6FFF72F
S1132BA033FDFFF759FFFFF7B5FEFAE70040064093
S1132BB01200010600500640074B1B68074AA2FB9F
S1132BC003239B09013B064A5360002393600721BA
S1132BD01160044A136070470084FF1FD34D6210D4
S1132BE010E000E0B0000020014B1868704700BFFF
S1132BF0B0000020024A136801331360704700BF1D
S1132C00B00000204FF0E023D3F8882D42F4700286
S1132C10C3F8882DD3F8342F22F08042C3F8342F20
S1132C20054B064A5A605A6842F220121A604FF65F
S1132C30FF729A60704700BF0020054020C528D964
S1132C401B4B1A691B69C3F30363013B052B2ED885
S1132C50DFE803F025030D2D2D12154BD3F80832B0
S1132C6003F00103002B134918BF0B4618E0104B67
S1132C70D3F80833104B13E00D4BD3F80816D3F8F0
S1132C800836C3F3044303F110000A4B03FB00F3BB
S1132C90C1F3022101314900B3FBF1F300E0054B1C
S1132CA0C2F303420132B3FBF2F3044A13607047E8
S1132CB00040064000127A00006CDC020084FF1F12
S1132CC04FF0E021D1F80C2D92B2024B1343C1F81E
S1132CD00C3D70470400FA05264B274A9A4208D057
S1132CE013462448254A13F8011B02F8011B984295
S1132CF0F9D1234B234A9A4208D013462048224A4A
S1132D0013F8011B02F8011B8342F9D11F4B204A1F
S1132D109A4206D0134600211C4A03F8011B934231
S1132D20FBD11C4B1C4A9A4208D0134619481B4A33
S1132D3013F8011B02F8011B8342F9D1184B194AFD
S1132D409A4212D010B4184CA40808D01946002393
S1132D5051F8040B42F8040B0133A342F8D1134B8E
S1132D60104A1A605DF8044B7047104B0C4A1A6005
S1132D70704700BF102F0000A82E00000084FF1F22
S1132D80102F0000102F00006884FF1FB4000020E3
S1132D9000000020102F0000102F00000000002071
S1132DA0002000000080FF1F0004000008ED00E088
S1132DB008B5074B044613B10021AFF30080054B5F
S1132DC01868836A03B19847204600F031F800BFC1
S1132DD0000000007C2E000070B50D4E0D4CA41BAD
S1132DE0A4100025A54209D10B4E0C4C00F048F864
S1132DF0A41BA4100025A54205D170BD56F82530AA
S1132E0098470135EEE756F8253098470135F2E743
S1132E10A02E0000A02E0000A02E0000A42E000072
S1132E2002440346934200D1704703F8011BF9E7BB
S1132E30FEE7000008030202090303020A03030376
S1132E400B0403030C0404030D0504030E0504041E
S1132E500F060404100605041107050412070505EE
S1132E6013080505140806051508070516080706BE
S1132E701708080618080807190808080484FF1F1B
S1132E80F8B500BFF8BC08BC9E467047F8B500BF53
S10B2E90F8BC08BC9E46704723
S10B2E981CF6FF7F010000009D
S1072EA07D24000089
S1072EA455240000AD
S1132EA8006CDC02000000000000000000000000CC
S1132EB80000000000000000000000000000000006
S1132EC800000000000000000000000000000000F6
S1132ED800000000000000000000000000000000E6
S1132EE800000000000000000000000000000000D6
S1132EF800000000000000000000000000000000C6
S10B2F080000000000000000BD
S9032531A6
