S018000064656D6F70726F675F7333326B3134342E7372656374
S1132000007000203125000099250000992500006A
S11320109925000099250000992500000000000082
S113202000000000000000000000000099250000EE
S1132030992500000000000099250000092F0000E8
S11320409925000099250000992500009925000094
S11320509925000099250000992500009925000084
S11320609925000099250000992500009925000074
S11320709925000099250000992500009925000064
S11323F09925000099250000EE11AA55FFFFFFFF63
S1132400FFFFFFFFFFFFFFFFFFFFFFFFFE7FFFFF59
S1132410044B05481B1A062B02D9044B03B1184779
S1132420704700BF6B84FF1F6884FF1F000000001B
S113243005490648091A891001EBD171491002D0E7
S1132440034B03B1184770476884FF1F6884FF1F5C
S11324500000000010B5064C237843B9FFF7D8FFFD
S1132460044B13B10448AFF300800123237010BD63
S11324700000002000000000B432000008B5084B42
S11324801BB108490848AFF300800848036813B932
S1132490BDE80840CCE7064B002BF9D09847F7E796
S11324A00000000004000020B43200006484FF1F18
S11324B000000000A3F5803A704700BF174B002BC3
S11324C008BF134B9D46FFF7F5FF00218B460F46CF
S11324D01348144A121A00F0B7FE0E4B002B00D01A
S11324E098470D4B002B00D0984700200021040092
S11324F00D000D48002802D00C48AFF3008000F016
S11325007FFE2000290000F015FC00F065FE00BFEE
S1132510000008000000000000000000007000201F
S113252000000020BC0000200000000000000000AB
S113253072B64FF000014FF000024FF000034FF06D
S113254000044FF000054FF000064FF00007B846B6
S1132550B946BA46BB46BC460A490B4A521A013A26
S113256005DD0020042308601944043AFBDA074817
S11325708546074880470748804762B6FFF79EFFB5
S1132580FEE700000080FF1F0070002000700020A4
S1132590252F0000AD300000FFF7FEBF80B500AF6F
S11325A000F012F800F02EFA00BF80BD80B500AF35
S11325B000F092F800F028FB00BF80BD80B500AFAA
S11325C000F054FD00BF80BD80B487B000AF3B4A2B
S11325D03B1D92E8030083E80300394A384BD3F8E3
S11325E0AC3123F08043C2F8AC31354A344BD3F8D4
S11325F0AC3123F0E063C2F8AC31314A304BD3F84C
S1132600AC3143F08643C2F8AC312E4BD3F80433DB
S11326101B0A03F007037B617B69002B0CD10123A8
S11326207B612849274BD3F804237B691B0203F4FD
S1132630E0631343C1F80433234B3B613A1D7B69C8
S113264013441B781A463B69B3FBF2F33B613B69C5
S11326501E4AA2FB0323DB0B02339B089BB2C3F38A
S11326600C03FB811A4AFB89C3F30C0343F0407348
S113267043F400331361164B164A5A61144B00227B
S11326809A61134B00221A62114B00225A62104BBA
S11326904FF470329A620E4A0D4B9B6A43F08803E2
S11326A093620B4B0122DA62094B4FF440229A6188
S11326B000BF1C37BD465DF8047B70475C320000E8
S11326C00050064000400640006CDC02C5B3A291F5
S11326D000B0064000C01FC080B500AF274B1B7878
S11326E0002B19D1264800F051F80346012B43D1A1
S11326F0234B1B78002B3FD0214B1B78812B3BD8DD
S113270000F0F6FB02461F4B1A601C4B01221A70A4
S11327101D4B00221A702FE01B4B1B780133184A03
S11327201344184600F032F80346012B19D1164B16
S11327301B780133DAB2144B1A70114B1A78124B0E
S11327401B789A4218D10D4B00221A700C4B5B78FF
S1132750FF2B11D10A4B9B78002B0DD1FFF72EFFD5
S11327600AE000F0C5FB0246064B1B6864339A423C
S113277002D9024B00221A7000BF80BD2000002045
S113278024000020A8000020AC00002080B485B004
S113279000AF78600023FB73094B5B6903F40013FB
S11327A0002B06D0064BDB69DAB27B681A70012372
S11327B0FB73FB7B18461437BD465DF8047B7047FA
S11327C000B0064080B48BB000AF0346B9607A60B5
S11327D0FB81374A07F1140392E8030083E80300FE
S11327E0344BD3F804311B0A03F007033B623B6A02
S11327F0002B08D101233B622E4A3B6A1B0203F4DF
S1132800E063C2F804314FF4FA53FB6107F1140298
S11328103B6A13441B781A46FB69B3FBF2F3FB6172
S1132820002387F8273037E0FB8997F827202249CF
S113283011F8222002FB03F31A46FB69B3FBF2F101
S113284002FB01F29B1A002B21D1FB8997F8272068
S1132850194911F8222002FB03F31A46FB69B3FB62
S1132860F2F39AB2BB681A80BB681B88002B0ED0A7
S1132870BB681B88B3F5807F09D897F8273079683F
S11328800D4A9B00134418680860012309E097F877
S11328902730013387F8273097F82730112BC3D915
S11328A0002318462C37BD465DF8047B704700BFF3
S11328B05C320000004006406432000080B582B003
S11328C000AF124A114B1B6843F0804313600F4A58
S11328D00E4B1B6843F08053136000F009FB034662
S11328E0FA337B6005E000F003FB02467B689A4202
S11328F006D8064B1B6803F08073002BF3D000E06E
S113290000BF00BF0837BD4680BD00BF0040024085
S113291080B582B000AF124A114B1B6823F080438C
S113292013600F4A0E4B1B6823F08053136000F0B2
S1132930DFFA0346FA337B6005E000F0D9FA024679
S11329407B689A4206D8064B1B6803F08073002B01
S1132950F3D100E000BF00BF0837BD4680BD00BF13
S11329600040024080B582B000AF114B1B68002BC1
S113297019DB0F4A0E4B1B6843F00043136000F051
S1132980B7FA0346FA337B6005E000F0B1FA024679
S11329907B689A4206D8064B1B6803F48013002B0D
S11329A0F3D000E000BF00BF0837BD4680BD00BFC4
S11329B00040024080B582B000AF114B1B68002B71
S11329C019DA0F4A0E4B1B6823F00043136000F022
S11329D08FFA0346FA337B6005E000F089FA024679
S11329E07B689A4206D8064B1B6803F48013002BBD
S11329F0F3D100E000BF00BF0837BD4680BD00BF73
S1132A000040024080B586B000AF0023FB80002365
S1132A103B6040F267633B61784A784BD3F890306F
S1132A2043F08043C2F89030FFF7C4FFFFF746FF3E
S1132A30FFF798FF724A724B5B6823F400535360AC
S1132A40FFF7B8FFFFF73AFF3A46BB1D19464FF4AC
S1132A50FA70FFF7B7FE6A49694B5A684FF6787304
S1132A6013404B606649664B5A68FB88013B1B0662
S1132A7013434B606249624B5A687B78013B03F015
S1132A80070313434B605E495D4B5A68BB78013BB7
S1132A90DB0403F4601313434B605949584B5A68E1
S1132AA0FB78013B1B0403F4E02313434B60BB7826
S1132AB0042B28BF0423FB735149514B5A68FB7BF9
S1132AC0013B9B0503F4400313434B604C4A4C4BBE
S1132AD05B6843F0800353600023FB8208E0484AAC
S1132AE0FB8A2033002142F82310FB8A0133FB8246
S1132AF0FB8A7F2BF3D90023FB8209E0404AFB8A3F
S1132B0003F50873002142F82310FB8A0133FB828A
S1132B10FB8A1F2BF2D93A4A394B1B6823F07F03F7
S1132B2043F01F031360364A354B1B6843F40033EC
S1132B301360334A324B1B6843F480331360304ACA
S1132B402F4B1B6823F0005313602D4B6FF0204272
S1132B50C3F8A4282A4B4FF08062C3F810213B69C4
S1132B60002B12DA3B6923F000433B61244A244BD7
S1132B70D3F8103143F40013C2F81031204A3B69F2
S1132B8023F06043C2F8143106E01D4A3B699B04FC
S1132B9023F06043C2F81431194B00229A62184B97
S1132BA04FF0FF321A63164B164A1A62144A144B3A
S1132BB01B6823F400031360114A114B5B6823F470
S1132BC0805323F008035360FFF7A2FE00F090F94E
S1132BD00346FA33BB6005E000F08AF90246BB689D
S1132BE09A4206D8064B1B6803F00063002BF3D10E
S1132BF000E000BF00BF1837BD4680BD005006404E
S1132C000040024006003B0080B584B000AF1E4B7C
S1132C101B6B03F40073002B31D01B4BD3F8103122
S1132C201B0CDBB203F00F03BB73184BBB60002318
S1132C30FB7310E0FB7BFA7B82F00302D2B21146F5
S1132C40BA680A44127807F110010B4403F8102CF7
S1132C50FB7B0133FB73FA7BBB7B9A42EAD30A4BBF
S1132C604FF400721A63084B9B68094A13603B785F
S1132C70FF2B04D1BB7B022B01D1FFF79FFC00BFCC
S1132C801037BD4680BD00BF0040024018410240DD
S1132C901C00002080B400AF0B4A0B4B1B6843F4AC
S1132CA080731360094A094B5B6943F00103536164
S1132CB0064A064B5B6843F00103536000BFBD4600
S1132CC05DF8047B704700BF00C00440C0F00F40B3
S1132CD080B582B000AF00F00BF97860124B1B682E
S1132CE07A68D31A632B1AD9104B1B78002B09D19D
S1132CF00E4B01221A700E4A0D4B9B6843F00103E0
S1132D00936008E0094B00221A70094A084B5B687B
S1132D1043F001035360044A7B68136000E000BF82
S1132D200837BD4680BD00BFB0000020B4000020BD
S1132D30C0F00F4080B500AF00F008F8FFF72EFC9C
S1132D40FFF7C6FFFFF732FCFAE7000080B500AFDB
S1132D5000F03EF81B4A1B4BD3F82C3143F0804360
S1132D60C2F82C31174A174BD3F8303143F0804363
S1132D70C2F83031134A134BD3F8343143F0804353
S1132D80C2F83431104A104B1B6A43F400731362C7
S1132D900D4A0D4B5B6A43F4007353620B4A0B4BB1
S1132DA01B6943F4A0631361084A084B5B6943F44D
S1132DB0A063536100F07AF8FFF76CFF62B600BFBE
S1132DC080BD00BF0050064000B0044000D0044065
S1132DD080B500AF334B40F20112C3F80421314BEC
S1132DE02422C3F8082100BF2E4BD3F8003103F48A
S1132DF00003002BF8D12B4B0122C3F8002100BFA4
S1132E00284BD3F8003103F08073002BF8D000BFB7
S1132E10244BD3F8003603F40003002BF8D1214AE5
S1132E20204BD3F8003623F00103C2F800361D4AC4
S1132E301C4BD3F8043643F4407343F00203C2F846
S1132E400436184B4FF4C012C3F8082600BF154BC4
S1132E50D3F8003603F40003002BF8D1114A114BC8
S1132E60D3F8003643F00103C2F8003600BF0D4B1F
S1132E70D3F8003603F08073002BF8D0094B40F2EE
S1132E800112C3F80422074B074A5A6100BF054BDD
S1132E901B691B0E03F00F03062BF8D100F06EF82C
S1132EA000BF80BD004006401200010680B400AFA0
S1132EB00B4A0C4B1B680C49A1FB03139B09013BF8
S1132EC05360074B00229A60054B07221A60074B98
S1132ED000221A6000BFBD465DF8047B704700BF46
S1132EE010E000E00084FF1FD34D6210B800002002
S1132EF080B400AF034B1B681846BD465DF8047BE5
S1132F00704700BFB800002080B400AF044B1B68BA
S1132F100133034A136000BFBD465DF8047B70476C
S1132F20B800002080B400AF4FF0E0224FF0E0235F
S1132F30D3F8883D43F47003C2F8883D4FF0E02293
S1132F404FF0E023D3F8343F23F08043C2F8343FFA
S1132F50084B094A5A60074B5B68064B42F2201241
S1132F601A60044B4FF6FF729A6000BFBD465DF8CD
S1132F70047B70470020054020C528D980B487B061
S1132F8000AF00237B610123FB74344B1B691B0CD2
S1132F9003F00F030133FB60304B1B691B0E03F07E
S1132FA00F03013B052B46D801A252F823F000BFC2
S1132FB0C92F0000CF2F0000E72F0000373000009A
S1132FC037300000FF2F0000254B7B6137E0234B97
S1132FD0D3F8083203F00103BB60BB68002B2DD08B
S1132FE01F4B7B612AE01D4BD3F8083303F0030326
S1132FF0BB601C4ABB6852F823307B611FE0184B4E
S11330007B61164BD3F808361B0A03F00703013320
S11330107B60124BD3F808361B0C03F01F031033EC
S11330203B607B693A6802FB03F27B685B00B2FB9E
S1133030F3F37B6103E00023FB7400E000BFFB7C3F
S1133040002B05D07A69FB68B2FBF3F3064A1360E0
S113305000BF1C37BD465DF8047B70470040064046
S113306000127A00AC3200000084FF1F80B483B0E9
S113307000AF4FF0E023D3F80C3D7B607B689BB23C
S11330807B607B6843F0BF6343F400337B607B6801
S113309043F004037B604FF0E0227B68C2F80C3DF0
S11330A000BF0C37BD465DF8047B704780B48FB019
S11330B000AF3A4B3B633A4B3B623A4B7B613A4B32
S11330C0FB623A4BFB613A4B3B613A4BBB623A4B76
S11330D0FB603A4B7B623A4BBB613A4BBB6009E005
S11330E03B6A1A783B6B1A703B6B01333B633B6A58
S11330F001333B627A693B6A9A42F1D109E0FB6988
S11331001A78FB6A1A70FB6A0133FB62FB690133AC
S1133110FB613A69FB699A42F1D105E0BB6A00227E
S11331201A70BB6A0133BB62FA68BB6A9A42F5D172
S113313009E0BB691A787B6A1A70BB690133BB6109
S11331407B6A01337B62BA68BB699A42F1D100237E
S1133150FB711D4A1D4B9A4216D000237B630AE083
S11331601A4A7B6B52F8232017497B6B41F82320C2
S11331707B6B01337B63164B9B087A6B9A42EFD3CC
S1133180144B114A1A6002E0124B104A1A6000BF35
S11331903C37BD465DF8047B704700BF0084FF1FC9
S11331A0DC320000443300006884FF1F4433000015
S11331B04433000000000020BC0000200000002078
S11331C044330000443300000080FF1F002000004F
S11331D00004000008ED00E008B5074B044613B1F5
S11331E00021AFF30080054B1868836A03B1984748
S11331F0204600F031F800BF00000000B0320000AB
S113320070B50D4E0D4CA41BA4100025A54209D188
S11332100B4E0C4C00F04EF8A41BA4100025A54244
S113322005D170BD56F8253098470135EEE756F8BC
S1133230253098470135F2E7D4320000D43200003B
S1133240D4320000D832000002440346934200D135
S1133250704703F8011BF9E7FEE7000000010204D0
S11332600810204008030202090303020A030303AF
S11332700B0403030C0404030D0504030E050404EA
S11332800F060404100605041107050412070505BA
S1133290130805051408060515080705160807068A
S11332A0170808061808080719080808006CDC0243
S11332B00484FF1FF8B500BFF8BC08BC9E467047E5
S10F32C0F8B500BFF8BC08BC9E4670477F
S10B32CCE8F1FF7F010000009E
S10732D47D24000051
S10732D85524000075
S11332DC006CDC0200000000000000000000000094
S11332EC00000000000000000000000000000000CE
S11332FC00000000000000000000000000000000BE
S113330C00000000000000000000000000000000AD
S113331C000000000000000000000000000000009D
S113332C000000000000000000000000000000008D
S10B333C000000000000000085
S9032531A6
