S01A000047425F4144435F5452474D55585F44656D6F2E7372656330
S11300000070002011040000C9040000BD050000B8
S1130010BF050000C1050000C3050000000000008A
S1130020000000000000000000000000C505000002
S1130030C705000000000000C9050000CB05000052
S1130040CD050000CD050000CD050000CD05000064
S1130050CD050000CD050000CD050000CD05000054
S1130060CD050000CD050000CD050000CD05000044
S1130070CD050000CD050000CD050000CD05000034
S1130400FFFFFFFFFFFFFFFFFFFFFFFFFE7FFFFF79
S113041072B64FF000004FF000014FF000024FF0B1
S113042000034FF000044FF000054FF000064FF0BA
S113043000071B484FF4401101601A481A49016033
S11304401A4880F30888FFE7194842F220510160F6
S113045018484FF6FF710160FFE71748002809D0DC
S11304601649174A521A013A04DD0020002309C133
S1130470083AFCDA134800684FF05A318842F9D040
S1130480FFE700F0D3F800F021F862B600F0F8F8C6
S113049000F060F800BFFEE7AFF30080AFF3008028
S11304A00480044008ED00E00090FF1F007000206D
S11304B00020054008200540010000000080FF1FC7
S11304C000700020C093FF1FFEE700004FF0E02300
S11304D0D3F8882D42F47002C3F8882DBFF34F8FF0
S11304E0BFF36F8FD3F8142D42F00102C3F8142D1B
S11304F0D3F8202D22F47F02C3F8202D4FF080433F
S11305004FF077321A6000221A625A62DA621A6471
S11305105A649A64DA641A655A659A65DA651A66E1
S11305205A669A66DA66BFF34F8FBFF36F8F084B34
S11305304FF0A0621A601A6842F000421A601A680A
S1130540002AFCDB1A6842F001021A60704700BFFF
S1130550002008E010B51548144C00F0FDFF00BB66
S113056000F05EFF04460028FAD100F079FF20462F
S113057002F0DEFC0E4805F0E3F90E49204600F0D7
S1130580CBF90421204600F045FC002000F024FBB8
S11305900028FAD1084C0421002000F011FB60600F
S11305A0F9E7204600F0D8FFD9E700BF985A0000C9
S11305B0945A0000745E00008894FF1FFEE7FEE773
S11305C0FEE7FEE7FEE7FEE7FEE7FEE7FEE70000E4
S11305D04FF0E022D2F80C3D23F4E0631843C2F854
S11305E00C0D70474209012300F01F0003FA00F0CC
S11305F0014B43F82200704700E100E04309012267
S113060000F01F0002FA00F02033024A42F82300EF
S1130610704700BF00E100E000F16040090100F50F
S11306206140C9B280F80013704700BF124BF0B5A7
S11306301D680021A94206D1104B002218681446F7
S113064082420ED1F0BDD3E90164DA68101B0022A6
S1130650824202D101310C33ECE7A75CB75401327A
S1130660F6E7D3E901158D4202D101320833E7E7F9
S113067001F8014BF7E700BF186F0000346F00006A
S11306807047FEE700207047EFF310807047EFF3E8
S113069010807047EFF310807047EFF310807047BD
S11306A010B5D0F89440002924F0070402F00302A6
S11306B014BF0423002322431A43C0F8942010BD1E
S11306C070B50D460446164603F006FB697AEA68DF
S11306D02046FFF7E5FF03F013FB03F049FAD4F8D3
S11306E0903023F0400343EA8613C4F8903003F0BB
S11306F053FA03F0F9F8636C2A7A23F0FF03012A12
S11307002CBF134343F00103636403F001F903F0C6
S1130710A3F8226C6B6822F0630203F003031A430C
S11307202B685B0103F0600313432364BDE870404E
S113073003F0A6B81FB5094B53F820000190CDE98A
S1130740022103F081FADDE902210198FFF7A8FFF5
S113075005B05DF804EB03F08BBA00BF74670000CA
S113076038B5094B53F820500C4603F0E1F86B6C94
S113077023F0FF03012C2CBF234343F001036B64DC
S1130780BDE8384003F0E8B874670000074B10B5C3
S113079053F8204003F034FAD4F8903043F00403C3
S11307A0C4F89030BDE8104003F03EBA746700000E
S11307B0074B10B553F8204003F092F9D4F8903069
S11307C023F00403C4F89030BDE8104003F09CB952
S11307D07467000038B50A4B53F820500C4603F0F8
S11307E0A3F9D5F89030A40123F0400304F04004A9
S11307F01C43C5F89040BDE8384003F0A9B900BFD8
S11308007467000038B50A4B53F820500C4603F0C7
S113081087FAD5F89420002C22F0080214BF08238C
S113082000231343C5F89430BDE8384003F08CBA74
S11308307467000038B5094B53F820500C4602F099
S11308409FFF2B6CA40023F00C0304F00C041C4346
S11308502C64BDE8384002F0A7BF00BF74670000F5
S113086038B50C46164B53F8205002F0ADFF236800
S113087061682A6C5B0101F0030103F060030B4320
S113088022F0630213432B6402F0B2FF03F008F872
S11308906B6C227A23F0FF03012A2CBF134343F02D
S11308A001036B6403F010F803F0F2F9E268617A73
S11308B02846FFF7F5FEBDE8384003F0FDB900BF58
S11308C074670000F8B50E46114B4D6853F820705C
S11308D0044603F0E1F8327857F8223005F01F059A
S11308E023F05F031D43337A002B14BF40230023FE
S11308F01D4347F8225003F0E3F83078726814235C
S113090003FB04040434034B43F82420F8BD00BF64
S1130910746700009094FF1FF8B5534B53F82060A0
S11309200B68326C0C4689685B0101F0030103F02B
S1130930600322F063020B4313433364736C227B22
S1130940617B23F0FF03012A2CBF134343F001030F
S11309507364226905463046FFF7A2FE61692846A2
S1130960FFF768FF414B216A9A69002D5ED0012D83
S11309705FD09A619B69E269002D5DD0012D5ED044
S11309803A4A9361A26994F82430920102F0400239
S1130990002B57D042F004024021A36A03F0030362
S11309A01A4394F82D30002B94F82E3014BF4FF0D6
S11309B0200C4FF0000C002B94F82F3014BF10279C
S11309C00027002B238EC6F88830638EC6F88C303F
S11309D0D6F8903041F03B0123EA010343EA0203D5
S11309E043EA0C0314BF082000203B430343C6F82A
S11309F09030A38E94F83620C6F8A020C3F30903E0
S1130A00C6F8B03094F82C102846FFF7FBFEE36BD1
S1130A103BBB174A216C502045435319D960616888
S1130A20596001215155E2699A60F8BD61F30002F1
S1130A309FE761F308229CE762F30513A0E762F3E2
S1130A400D339DE74421A8E7E16B284607FB03111A
S1130A50FFF738FF013694F83820F3B29A42F3D8FE
S1130A60D7E700260C27F6E77467000000800440EF
S1130A709094FF1F30B50023C3B00322CDE90132A7
S1130A800C22ADF8102004220E92CDE90533102279
S1130A90CDE90733CDE90B338DF83C2012AA044687
S1130AA0039309938DF828300D9311461F201D469A
S1130AB013700133102B5060157202F10C02F7D140
S1130AC0CDE91015204601A9FFF726FF5020024B5F
S1130AD060431D5443B030BD9094FF1F1A4B2DE961
S1130AE0F34153F820800D4642F21070002117465E
S1130AF002F01AFA0646002002F00FFA019002F002
S1130B003BFF2AB208EB850558F8223043F01F0357
S1130B1048F8223002F044FF8FB9002002B0BDE84B
S1130B20F081002101A802F0FAF904442B6803F0D3
S1130B301F031F2B05D0B442F3D30220EEE7002499
S1130B40F4E7B442E9D3F8E7746700000C4B70B5DE
S1130B5053F820600C46154602F032FF3168002D30
S1130B6021F05F0104F01F0444EA010414BF402390
S1130B7000231C433460BDE8704002F035BF00BF61
S1130B8074670000034B53F82030D3F89000C0F38F
S1130B90C010704774670000034B53F8203053F8BB
S1130BA02100C0F38010704774670000034B53F8B2
S1130BB0203053F82100C0F3C01070477467000060
S1130BC0044B123153F8203053F82100C0F30B00CA
S1130BD0704700BF746700002DE9F0413D4B8AB0B7
S1130BE053F820400021054642F2107002F09CF9AF
S1130BF00746002002F091F9D4F894300190C3F331
S1130C00800203F003038DF811205A1E032A28BF23
S1130C1000230593636C8DF81030D4F890302E487F
S1130C20C3F38018236CC3F34112511E032903F04C
S1130C30030328BF002202925A1E032A4FF0030224
S1130C4009924FF48672ADF820204FF0500202FB57
S1130C50050528BF00236A6803930025CDE9062310
S1130C6006A900222046FFF72BFDC4F8B450C4F8AF
S1130C70B850C4F8BC50C4F8C050C4F8C450C4F848
S1130C80C850C4F8CC5003F027F8D4F8943043F09B
S1130C908003C4F8943003F033F8D4F8946016F069
S1130CA0800612D0BD420AD302262046424602A93B
S1130CB0FFF706FDA36C30460AB0BDE8F0810021C1
S1130CC001A802F02CF90544E7E7BD4228BF02263B
S1130CD0EBE700BF746700009094FF1F154B73B5DA
S1130CE053F82060002142F2107002F01DF904460E
S1130CF0002002F012F9019002F08AFD336C43F4F3
S1130D008073336402F098FD0025D6F8900010F447
S1130D1070200AD0A54202D3022002B070BD002187
S1130D2001A802F0FCF80544EFE7A54228BF022021
S1130D30F3E700BF7467000038B5084B0C4653F85E
S1130D40205002F061FE21B255F8213043F04003F7
S1130D5045F82130BDE8384002F06ABE74670000EF
S1130D6038B5084B0C4653F8205002F071FE21B2FE
S1130D7055F8213023F0400345F82130BDE83840D0
S1130D8002F07ABE74670000074B10B553F8204098
S1130D9002F012FFD4F8903043F07063C4F890303E
S1130DA0BDE8104002F01CBF74670000034B53F809
S1130DB02030D3F89000C0F30360704774670000DC
S1130DC0034B53F82000123100EB8100704700BF41
S1130DD0746700000D4B30B5502404FB003410340C
S1130DE0002354F8045B8D4206D00133102BF8D154
S1130DF000230120138030BD0549123351F820101F
S1130E0051F823300020C3F30B03F3E79094FF1F42
S1130E107467000038B505460C4602F0A5FF084B80
S1130E209A6935B1012D07D09A61BDE8384002F0C6
S1130E30AFBF64F34302F7E764F34B22F4E700BF68
S1130E4000800440F8B5174B174F53F82060502327
S1130E5058433A183B5CEBB1D368DBB1103007441C
S1130E600024154656F82420C2F3C0135206E0B2FB
S1130E7006EB840106D52BB1EB6898470134102C9E
S1130E80F0D1F8BD57F824201F2AF7D1002BF5D054
S1130E908B6CF3E703F112020133102B56F8222076
S1130EA0F8D1EEE7746700009094FF1F08B50020A6
S1130EB0FFF7C8FFBFF34F8F08BD08B50120FFF748
S1130EC0C1FFBFF34F8F08BD70472DE9F84FC14DE7
S1130ED02B68044663B1DFF82C83DFF84493DFF812
S1130EE038A300F56E760027A37BBB4200F246814F
S1130EF020462C6001F044FAE079B74EB74FDFF892
S1130F00188304EBC0008442A0F1080540F0468138
S1130F10A07AB34EB34FDFF8008304EB0010844291
S1130F20A0F1100540F04681A279AF4EAF4FDFF833
S1130F30E8821C25202315FB0235202D40F07E81FC
S1130F406379AB4EAB4FDFF8D082142503FB055514
S1130F50142D40F08081A84FDFF8C882DFF8B892E2
S1130F6004F1100000252379AB4200F10C0600F2D5
S1130F707F819F4E9F4FDFF8A08201250135AA1E75
S1130F80637918BF01229A42C0F081819B4D2B786E
S1130F901BB901F065FA01232B70994B1D78002DC4
S1130FA03CD1984E01221A70284673689847B3685A
S1130FB057209847F368572098473369884E57203D
S1130FC09847914B28461B689847904B28461B68C6
S1130FD09847874B28461B68984773682846984764
S1130FE0B3688B4E5720984733682846984729465C
S1130FF073687D4E572098477F4B28461B68984757
S1131000736828469847B36857209847724B284618
S11310105B6898477F4B28461B6898477D4FDFF8ED
S11310200882DFF8F49104F569750026637BB34206
S113103000F23C8104F50A75DFF8D081DFF8EC9109
S1131040DFF8D4A12E460027637ABB4200F23C812C
S1131050DFF8B481DFF8D891DFF8BCA104F59C7007
S11310600026237AB34200F10C0700F23B81674F5C
S1131070DFF8B881DFF8A0910026637AB34200F26A
S11310803F8104F13C06584FDFF86081DFF8889116
S1131090B2460025A379AB4200F2418104F56E7596
S11310A0DFF86091DFF878A1DFF86CB12F464FF0DC
S11310B00008A37B434500F24481DFF83481DFF864
S11310C03491DFF854A101270137BA1E637918BFA0
S11310D001229A42C0F04681DFF80C81DFF80C91BE
S11310E0DFF834A10027A379BB4200F24B81A37A35
S11310F083B1D4F83432484A03EBC3031344394A66
S11311005B78D35C364A0C2101FB032304F50D7094
S11311105B689847414FDFF81C91DFF8BCA0DFF80B
S1131120BCB000263E7004F15808E379B34200F2E3
S113113039813E78002E40F06E81DFF8D480DFF8EC
S1131140F890DFF8D4A004F51970237BB34200F1C2
S1131150080700F2428104F5727001F0DDF8294FAE
S1131160DFF8BC80DFF8B0900026A37BB34200F226
S113117042812046BDE8F84F01F0CFB8336803EB55
S1131180C303534430465B7819F8032018235343B0
S1131190013758F8033098471036A5E6AB6D03EBDA
S11311A0C303434450305B78FB5C56F833309847B4
S11311B02846A8E6D5F8343203EBC303434400F5CC
S11311C009705B78FA5C0C235343F358984728461C
S11311D0A5E600BF3495FF1F206E0000756C00006B
S11311E05C6D0000936C0000F46D0000846C0000E2
S11311F0346D0000C06C0000A06D00003895FF1F26
S1131200C493FF1FDC6D0000F06C00002C6D000027
S1131210686D00001C6E0000486900003095FF1FD7
S1131220576C0000B16C0000666C0000CF6C0000CD
S1131230DE6C000080670000A26C0000635903EBC1
S1131240C303434460195B78FA5C142353431C3D85
S1131250F358984771E6635903EBC3034344601999
S11312605B78FA5C14235343143DF35898476FE6B4
S113127056F80C3C03EBC3034B4401355B7818F878
S113128003200C235343FB58984730466BE6142243
S113129002FB05F0235803EBC303434420445B786B
S11312A0FB5C02FB03635B68984767E62B6803EB10
S11312B0C3034B4428465B7818F8033057F82330AF
S11312C0984701361435B1E6336803EBC30353443E
S11312D030465B7819F8033058F8333098470137B3
S11312E00C36B1E657F80C3C03EBC3035344013608
S11312F05B7819F8033058F8233098473846B0E63D
S11313002B6803EBC3034B4428465B7818F803307F
S113131007EBC30301365B6898470C35ADE6DAF892
S1131320003003EBC3034B4414225B7818F80330FA
S113133002FB037350465B68984701350AF11C0AA7
S1131340A8E63B6803EBC3035B4418225B781AF8F6
S1131350033002FB039338465B68984708F10108A1
S11313601037A6E6142202FB07F0235803EBC3034D
S1131370534420445B7819F8033002FB03839B68D1
S11313809847A1E6336803EBC303534414225B7804
S113139019F8033002FB03833046DB6898470137B2
S11313A01C36A0E6D8F8043059F82330032B11D0AA
S11313B0D8F80030194A03EBC303134440465B7862
S11313C01BF803300AEBC3035B689847013608F146
S11313D00808AAE601233B70F8E757F8083C03EB3A
S11313E0C303534401365B7819F8033058F833309B
S11313F098473846A9E62B6803EBC3034B441822ED
S11314005B7818F8033002FB037328465B6998473E
S113141001361035A9E6BDE8F88F00BF4869000021
S113142008B50B4B18680B4B00EBC00213440A4A77
S11314305B78D35C094A142101FB03239B6898471A
S1131440012803D002280CBF0020022008BD00BFE1
S11314507C67000048690000846C0000F46D0000A3
S11314602DE9F041324C236833BBBDE8F08102EB37
S1131470C503E800D96D56F8211003290DD19B6DE1
S11314802C4903EBC3030B4458305B7818F8033042
S113149007EBC30310445B68984701352268D3798E
S11314A0AB42E4D8244B1B78002BDED0234E244FD0
S11314B0DFF88080002513E0224E234FDFF894806C
S11314C00025EBE703EBC50000F51970036803EB97
S11314D0C303434401355B78FB5C56F833309847CB
S11314E023681A7B9542EDD303F5727000F014FF64
S11314F0164E174FDFF83C8000252068837B9D4201
S113150003D3BDE8F04100F008BF2B0103F56E7270
S113151003441821D3F8B83303EBC3034344104402
S11315205B78FB5C01FB036301355B699847E4E787
S11315303495FF1F486900003095FF1F686D000057
S1131540A26C000080670000206E0000DC6D0000CB
S1131550576C0000756C000010B5FFF7B6FC064B25
S11315601C782CB1FFF75CFF044618B9FFF778FF2D
S1131570204610BD0124FBE73095FF1F064A00EB0F
S1131580C0031344054A5B78D35C054A182101FB68
S113159003239B68184700BF48690000576C00008C
S11315A0DC6D0000064A00EBC0031344054A5B7877
S11315B0D35C054A182101FB03231B69184700BFAC
S11315C048690000576C0000DC6D0000064A00EB1F
S11315D0C0031344054A5B78D35C054A182101FB18
S11315E00323DB68184700BF48690000576C0000FC
S11315F0DC6D000013B5084C23783BB9CDE900013C
S113160000F02EFFDDE900010123237002B0BDE8E4
S1131610104001F0A3B900BF3895FF1F014B1860BB
S1131620704700BFB093FF1F064A00EBC00313448A
S1131630054A5B78D25C054B03EBC20301215B686E
S1131640184700BF48690000A26C0000686D0000E4
S1131650064A00EBC0031344054A5B78D25C054B91
S113166003EBC20300215B68184700BF4869000010
S1131670A26C0000686D0000014B1B68184700BF96
S1131680B093FF1FF8B5074600200E4614461D46CA
S113169001F043FC002138603160284601F044FC2D
S11316A02060F8BD38B50C460021154601F037FC22
S11316B023681844A842206034BF0020012038BDAC
S11316C070470368074A03EBC303D25C064B53F825
S11316D02210436805480A68C35C22F007021343DA
S11316E00B607047486900004068000050680000C3
S11316F00368084A4168084803EBC303415CD25CB1
S1131700064B53F82220136823F4E06343EA0123D1
S1131710136070474869000050680000406800008A
S113172003680D4A03EBC30313445A79037A920006
S113173002F1804202F5CA22013B1168DB0021F06C
S11317400F0103F008030B434168013901F007015D
S11317500B431360704700BF486900004368027A76
S1131760064910B5013B5B00013A8C6E03F00E0391
S113177002F00102134323438B6610BD0080044032
S113178042683AB104494B69013A23F4702343EAAD
S113179002434B61704700BF0040064042683AB1C3
S11317A004494B69013A23F0F00343EA02134B6105
S11317B0704700BF00400640436833B103494A699B
S11317C0013B22F00F0213434B6170470040064077
S11317D042683AB104498B69013A23F4702343EA1D
S11317E002438B61704700BF0040064042683AB133
S11317F004498B69013A23F0F00343EA02138B6135
S1131800704700BF00400640436833B103498A690A
S1131810013B22F00F0213438B61704700400640E6
S113182042683AB10449CB69013A23F4702343EA8C
S11318300243CB61704700BF0040064042683AB1A2
S11318400449CB69013A23F0F00343EA0213CB6164
S1131850704700BF00400640436833B10349CA697A
S1131860013B22F00F021343CB6170470040064056
S113187043684BB10549013B4A681B0222F4E0620C
S113188003F4E06313434B60704700BF00800440DF
S113189070470000704770470389012B2DD1C27B2C
S11318A0244B5AB3012A30D0D3F80821224922F01C
S11318B03002C3F808214268A2F57412A2F510623E
S11318C08A42D3F8082194BF42F0200242F0300249
S11318D0C3F80821027B174BE2B9D3F8082142F080
S11318E00402C3F80821027C012A18D0022A114BF1
S11318F018D0CAB90122C3F800217047D3F80821CF
S113190022F00802C3F80821CEE7D3F8082142F0F8
S11319100802F7E7D3F8082122F00402E1E74FF0C8
S11319200112E8E7054AE6E7D3F8002142F0010294
S1131930E1E700BF00400640FF083D00010003004E
S1131940064BD3F8002122F40002C3F80021D3F897
S1131950002122F00102C3F8002170470040064034
S1131960034AD2F8003123F00103C2F80031704772
S1131970004006400389012B01BF044AD2F800311C
S113198043F00103C2F80031704700BF0040064035
S11319907FB5104CD4F80031DA07054618D54CF25F
S11319A0503303AA02A901A8FFF76CFED4F8006122
S11319B0039A02A901A8FFF775FEF30106D40028D3
S11319C0F4D029680120FFF757FE01E00028F8D180
S11319D004B070BD0040064070470020704700000E
S11319E070477047094B00EBC000184481F00101B7
S11319F083799B0003F1804303F5CA231A6822F01C
S1131A00804242EA81721A60704700BF4869000050
S1131A100368084A084903EBC303134410B59C79CF
S1131A200A6C0123A34022EA03028388A3401343E0
S1131A300B6410BD4869000000800440E8E707B566
S1131A4081F0010100906846ADF80410FFF7E0FF53
S1131A5003B05DF804FB044983880A6922F001029B
S1131A6013430B61704700BF0080044007B581F049
S1131A70010100906846ADF80410FFF7ECFF03B0D5
S1131A805DF804FB044A8188136923F0020343EAE6
S1131A9041031361704700BF0080044007B581F023
S1131AA0010100906846ADF80410FFF7EBFF03B0A6
S1131AB05DF804FB044A8188536823F4006343EA15
S1131AC0C1235360704700BF0080044007B581F014
S1131AD0010100906846ADF80410FFF7EBFF03B076
S1131AE05DF804FB054A8188936E01290CBF43F01D
S1131AF0805323F080539366704700BF00800440F6
S1131B0007B581F0010100906846ADF80410FFF7B5
S1131B10E9FF03B05DF804FB0368094A818803EB1D
S1131B20C30313449B799B0003F1804303F5CA2349
S1131B301A6822F0804242EA81721A60704700BF3C
S1131B4048690000704770477FB58388012B0546BC
S1131B501FD1114CD4F8003343F00103C4F800330F
S1131B6003AA4CF2503302A901A8FFF78BFDD4F865
S1131B700063039A02A901A8FFF794FDF30106D4B8
S1131B800028F4D029680120FFF776FD01E0002841
S1131B90F8D104B070BD00BF004006407FB50028F6
S1131BA041D00568C2798688037A234CD4F80012A0
S1131BB021F40001C4F80012D4F8001221F001014C
S1131BC0C4F80012D4F80012012E21F00401C4F864
S1131BD000122FD102F00102C4F80822D4F8002226
S1131BE042F00102C4F80022D4F800229B0003F062
S1131BF004031343C4F8003203AA4CF2503302A97D
S1131C0001A8FFF73FFDD4F80062039A02A901A8D6
S1131C10FFF748FDF3010BD40028F4D02946012036
S1131C20FFF72AFD06E001231A461E460525BCE7F8
S1131C300028F3D104B070BD00400640AEE7074B66
S1131C40D3F8002222F00102C3F80022D3F80022C4
S1131C5022F00402C3F80022704700BF004006408F
S1131C60EDE70B4A037AD2F8001221F40001C2F81E
S1131C700012D2F8001221F00401C2F80012D2F8C6
S1131C8000129B0003F004030B43C2F800327047B8
S1131C90004006408388012B01BF044AD2F8003279
S1131CA043F00403C2F80032704700BF004006400E
S1131CB0034AD2F8003223F00403C2F8003270471A
S1131CC0004006400B4A437AD2F8001221F4000186
S1131CD0C2F80012D2F8001221F00201C2F8001278
S1131CE0D2F800125B0003F002030B43C2F8003287
S1131CF0704700BF004006408388012B01BF044A9F
S1131D00D2F8003243F00203C2F80032704700BF39
S1131D1000400640034AD2F8003223F00203C2F81E
S1131D200032704700400640034AD2F8003323F0E3
S1131D300103C2F800337047004006407FB5124CDF
S1131D40636923F0706343EA00630546636103AA91
S1131D504CF2503302A901A8FFF794FC2669039AB8
S1131D6002A901A8C6F30366FFF79CFCAE4206D1A4
S1131D700028F3D005210120FFF77EFC01E00028B4
S1131D80F8D104B070BD00BF00400640F0B54C4D22
S1131D90D5F8003323F40003C5F80033D5F8003335
S1131DA013F0007F85B004462B4655D0D5F80823A0
S1131DB0C17902F00302914206D1D5F8002381795A
S1131DC0C2F3C002914245D0D3F8000210F00100E2
S1131DD036D1FFF7E3FE0126394D0220FFF7AEFFAF
S1131DE0D5F8003323F00103C5F80033A388012B91
S1131DF030D1E37903F00303C5F80833A379D5F8A8
S1131E000023DB0003F00803134343F00103C5F888
S1131E10003303AA4CF2503302A901A8FFF732FCA5
S1131E20D5F80073039A02A901A8FFF73BFCFA0155
S1131E3008D40028F4D021680120FFF71DFC03E03A
S1131E400026C9E70028F6D10320FFF777FF0EB17B
S1131E50FFF7F5FE05B0F0BDD5F8003323F001031C
S1131E60C5F800338388012BF4D1C37903F003034D
S1131E70C5F808338379D5F80023DB0003F00803A1
S1131E80134343F00103C5F8003303AA4CF2503363
S1131E9002A901A8FFF7F6FBD5F80063039A02A98B
S1131EA001A8FFF7FFFBF30106D40028F4D0216852
S1131EB00120FFF7E1FBCDE70028CBD0F7E700BF17
S1131EC0004006407FB5144CD4F8003243F00103BF
S1131ED0C4F80032D4F8003243F004030546C4F8D1
S1131EE0003203AA4CF2503302A901A8FFF7CAFB3F
S1131EF0D4F80062039A02A901A8FFF7D3FBF30107
S1131F0006D40028F4D029680120FFF7B5FB01E0CE
S1131F100028F8D104B070BD0040064070477047F7
S1131F2003207047704700007047002070477047D7
S1131F308388012B10B518D1437B027C0E49013BE9
S1131F40103A1B021204D1F8084603F4E06302F4C9
S1131F50F81213432343C1F80836C37E012B05D07E
S1131F60022B06D00BB9C1F8003610BD4FF48033F4
S1131F70F9E74FF44033F6E7004006400C4BD3F842
S1131F80002622F40002C3F80026D3F8002622F02B
S1131F900102C3F80026D3F8082622F4E062C3F84D
S1131FA00826D3F8082622F4F812C3F80826704746
S1131FB000400640064BD3F8002622F40002C3F882
S1131FC00026D3F8002622F00102C3F80026704749
S1131FD0004006408388012B01BF044AD2F8003632
S1131FE043F00103C2F80036704700BF00400640CA
S1131FF0F0B5124DD5F8004614F0010485B006463C
S113200015D04CF2503303AA02A901A8FFF73AFBFA
S1132010D5F80076039A02A901A8FFF743FBFB0158
S113202008D40028F4D031460120FFF725FB2046D0
S113203005B0F0BD0028F6D10224F8E700400640C0
S11320407047000070474368104AD15C0368104A27
S113205003EBC30310B5D35C0E4A032B4FEA4303CF
S1132060D0684FF0030493BF03F11802083304FA55
S113207003F294408BBF9043A04301FA03F201FAA8
S113208002F2044B0243DA6010BD00BFF1680000A5
S1132090486900000080044003680B4A03EBC30353
S11320A0134442681B7909489B0003F1804303F5FC
S11320B0CA23825C1968120621F0E06102F0E06232
S11320C00A431A60704700BF486900009168000025
S11320D0054B06495B794A691B0622F0706203F0DE
S11320E0706313434B617047C168000000400640B1
S11320F0436806480649C35C4A691B0622F07062BD
S113210003F0706313434B61704700BFC168000064
S113211000400640436806480649C35C8A691B06BA
S113212022F0706203F0706313438B61704700BF49
S1132130C168000000400640054B06495B79CA6946
S11321401B0622F0706203F070631343CB61704787
S1132150C168000000400640436806480649C35C65
S1132160CA691B0622F0706203F070631343CB61EB
S1132170704700BFC168000000400640044A05499A
S11321801369897B23F0300343EA01131361704719
S113219000800440F1680000054A4168054813695D
S11321A0415C23F0300343EA01131361704700BF1D
S11321B000800440F1680000044A05491369497825
S11321C023F00C0343EA8103136170470080044049
S11321D091680000054A416805481369415C23F091
S11321E00C0343EA81031361704700BF008004407D
S11321F091680000044A0549136A497923F0706321
S113220043EA01631362704700400640C16800005E
S1132210054A41680548136A415C23F0706343EA48
S113222001631362704700BF00400640C1680000AC
S1132230104B114A5979036803EBC30310B5D35CFF
S11322400E4A032B4FEA4303D0684FF0030493BFB5
S113225003F11802083304FA03F294408BBF90434D
S1132260A04301FA03F201FA02F2044B0243DA60DA
S113227010BD00BFF1680000486900000080044000
S1132280024A536823F40F6353607047008004408C
S1132290054A416805485368415C23F0F00343EA6A
S11322A001135360704700BF00800440F1680000D0
S11322B00368074A03EBC30313441B799B0003F130
S11322C0804303F5CA231A6822F08E421A607047CD
S11322D048690000054B06491B7F4A681B0322F42A
S11322E0805203F4805313434B607047916800009D
S11322F000800440436806480649C35C4A681B03DF
S113230022F4805203F4805313434B60704700BFA0
S11323109168000000800440704770B440B1144BD1
S11323201B681D79002203F110060C2195420BD87D
S1132330104B1B78D3B9104B104A1B790C2101FBAD
S1132340032305209B680DE001FB02F430590528A6
S11323500AD123449B8A4BB9074B084A1B7901FBDA
S113236003239B6870BC18470132DFE770BC7047D9
S11323704495FF1F5095FF1FB16C0000A06D000035
S1132380F0B5314B314D1860D5F80033304A13F0B5
S1132390010385B0044634D11370C5F80833D5F869
S11323A0003343F00103C5F8003303AA4CF2503361
S11323B002A901A8FFF766F9D5F80063039A02A9F8
S11323C001A8FFF76FF9F30106D40028F4D0052122
S11323D00120FFF751F901E00028F8D1E0791D4E02
S11323E01D4F224604EBC0002146032381420BD13A
S11323F0207B04EBC004A24216D1184A136105B035
S1132400F0BD01231370E9E78D6D282D05D1CD6D45
S11324107D5D43EA05130831E8E7292D02BFCD6D40
S1132420755D43EA8503F6E7D2F86412122905D1F3
S1132430B2F8681243EA41030832DCE7132904BF07
S1132440B2F868120B43F7E74495FF1F00400640BB
S11324505095FF1F91680000F1680000008004405F
S11324609B4B9C4A5B789C499C4803EB830302EB9F
S113247083039B4A70B513609A4B9B4A5B7803EBCA
S1132480830302EB8303994A1360994B994A1B799E
S113249003EB430302EB8303974A13604A79974B98
S11324A003EBC2020260CA79954803EBC203954A62
S11324B01360954A954B917903EB81010160117A80
S11324C0934803EB81010160517A924803EB810147
S11324D00160D17A904803EB81010160117B927B0A
S11324E08E4803EB810103EB82038D4A0160136084
S11324F08C4B1B6833B1187900210C2403F11005AF
S1132500814213D3884A052111608849D1F8000318
S113251000F001009080D1F8080300F00300D071AE
S1132520D1F80013C1F3C001917106E004FB01F27C
S1132530AE58052E2BD110321A447D490A6043B39C
S11325405A7932B39A6A082A23D103F128027949C5
S11325500A605BB39A794AB3DA6B092A26D103F18C
S11325603C0275490A602BB1D979002203F1580065
S11325708A4232D36C4A71481921D1636B49496943
S1132580C1F303613C3250F8211051602CE0013159
S1132590B6E7654A0821D1606449D1F8001101F019
S11325A001019182664911610C32D0E75E4A09212A
S11325B011625E49D1F8000600F001009084D1F860
S11325C00806C0F3022082F82D00D1F80816C1F3E2
S11325D0044182F830102032C3E750F83240192CFD
S11325E018D10B3203EBC20256490A602BB1D979D8
S11325F0002203F158008A420ED34B4A4F481A2155
S113260051644A498969C1F30361443250F8211085
S1132610516008E00132ABE750F832401A2C18D16F
S11326200B3203EBC20248490A602BB1D97900226C
S113263003F158008A420ED33B4A40481B21D1641F
S11326403A49C969C1F303614C3250F82110516011
S113265008E00132CFE750F832401B2C17D10B327F
S113266003EBC20239490A6033B1187A00210C2401
S113267003F59C7581420CD32B4A1D2151652B49CE
S11326804969C1F3034101319165543209E00132D2
S1132690D0E704FB01F2AE581D2E17D102F59C724F
S11326A01A442B490A6033B1187A00210C2403F52B
S11326B09C7581424ED31C4A1E2111661B498969AF
S11326C0C1F303410131516660324BE00131D1E77E
S11326D0846C0000F46D0000756C00007C95FF1F95
S11326E09895FF1FC06C0000346D0000A495FF1F77
S11326F0B16C0000A06D00003C95FF1F206E00002F
S11327004C95FF1F8895FF1FDE6C0000F06C0000E5
S11327105C95FF1F6C95FF1F7495FF1F4095FF1F6D
S11327204895FF1F4495FF1FC893FF1F00400640B4
S11327308495FF1F9095FF1FA095FF1F785A0000F6
S1132740005A6202A895FF1F7895FF1F8095FF1F0E
S11327505495FF1F04FB01F2AE581E2E17D102F54B
S11327609C721A4473490A6033B1187A00210C240C
S113277003F59C7581420CD36F4A1F21D1666F49C2
S1132780C969C1F30341013111676C3209E00131B8
S11327908FE704FB01F2AE581F2E17D102F59C728D
S11327A01A4467490A6033B1187A00210C2403F5EE
S11327B09C7581420CD3604A212191675F49496924
S11327C0C1F303110131D167783209E00131D1E756
S11327D004FB01F2AE58212E19D102F59C721A4461
S11327E058490A6033B1187A00210C2403F59C750A
S11327F081420ED3504A2221C2F884104F4989697C
S1132800C1F303110131C2F88810843209E00131A7
S1132810CFE704FB01F2AE58222E19D102F59C72C7
S11328201A4449490A6033B1187A00210C2403F58B
S11328309C7581420ED3404A2321C2F890103F492F
S1132840C969C1F303110131C2F89410903209E04F
S11328500131CDE704FB01F2AE58232E19D102F564
S11328609C721A4439490A6033B1187A00210C2445
S113287003F59C7581420ED32F4A2521C2F89C1082
S11328802E49496901F00F010131C2F8A0109C32B0
S113289009E00131CDE704FB01F2AE58252E19D130
S11328A002F59C721A442A490A6033B1187A00214D
S11328B00C2403F59C7581420ED31F4A2621C2F8CD
S11328C0A8101E49896901F00F010131C2F8AC104A
S11328D0A83209E00131CDE704FB01F2AE58262EFF
S11328E019D102F59C721A441A490A6033B1187A54
S11328F000220C2403F59C7582420ED30E4B272232
S1132900C3F8B4200D4AD26902F00F020132C3F8B1
S1132910B820B43309E00131CDE704FB02F16E586D
S1132920272E05D101F59C710B440B4A136070BD31
S11329300132E1E76495FF1FC893FF1F0040064082
S11329407095FF1F8C95FF1F5895FF1F9495FF1FCF
S11329506095FF1F9C95FF1F6895FF1F022870B5A7
S113296032D8002833D0002930D14D4B4D4A1B6852
S113297010685B6898474C4B4C4A1B6810681B688E
S113298098474B4B4B4A1B6810681B6898474A4B47
S11329904A4A1B6810681B689847494B1A68494B98
S11329A010681B681B699847474B1A68474B1068A7
S11329B01B68DB689847464B1A68464B1B689B6844
S11329C01068BDE870401847032834D070BD022950
S11329D0FCD1404B3E4A1B683C4D10685B683A4C46
S11329E098472B6820681B6998472B682068354CEA
S11329F09B68334D984723682868DB6898472A68A2
S1132A00236810689B689847254B334A1B681068F5
S1132A105B689847244B314A1B6810681B689847C9
S1132A20234B2F4A1B6810681B689847224B2D4A7A
S1132A301B681B68C4E70229C8D1264B244A1B68BB
S1132A40224D10685B68204C98472B6820681B69EE
S1132A5098472B6820681B4C9B68194D984723683E
S1132A602868DB6898472A68236810689B68984739
S1132A701D4B1E4A1B6810685B6898471C4B1D4A17
S1132A801B6810681B6898471B4B1C4A1B6810681E
S1132A901B6898471A4B1B4A1B681B6890E700BFCA
S1132AA07C95FF1F7895FF1F4C95FF1F6495FF1FB2
S1132AB06C95FF1F5895FF1F4095FF1F9C95FF1FA6
S1132AC0A095FF1F9895FF1F9095FF1FA495FF1FCA
S1132AD08495FF1F3C95FF1FA895FF1F5495FF1F6A
S1132AE08C95FF1F6095FF1F8895FF1F8095FF1F22
S1132AF05C95FF1F7095FF1F7495FF1F9495FF1F32
S1132B004895FF1F6895FF1F704710B5044C20803F
S1132B100448017004490A70044A1370002010BD6F
S1132B202E96FF1F4C96FF1FD495FF1FE895FF1F9D
S1132B3010B5054C20800548017005490A70054A06
S1132B401370002010BD00BFFC95FF1F1A96FF1FD5
S1132B502496FF1F4296FF1F10B5054C20800548A0
S1132B60017005490A70054A1370002010BD00BFAA
S1132B70C095FF1FDE95FF1FF295FF1F1096FF1FE4
S1132B80704700BFF0B50C4C0C4F25880C4E8542A5
S1132B900C4D0FD1387888420CD13178914209D14B
S1132BA02A78D31A5842584100232B7023803B7053
S1132BB03370F0BD0020F7E72E96FF1F4C96FF1FE1
S1132BC0D495FF1FE895FF1FF0B50C4C0C4F2588DA
S1132BD00C4E85420C4D0FD1387888420CD1317897
S1132BE0914209D12A78D31A5842584100232B70B4
S1132BF023803B703370F0BD0020F7E7FC95FF1F86
S1132C001A96FF1F2496FF1F4296FF1FF0B50C4C27
S1132C100C4F25880C4E85420C4D0FD138788842D4
S1132C200CD13178914209D12A78D31A58425841AB
S1132C3000232B7023803B703370F0BD0020F7E736
S1132C40C095FF1FDE95FF1FF295FF1F1096FF1F13
S1132C500C4A0D49108830B50C4D0D4C78B92078CC
S1132C602B7803430878034314BF0120002000237A
S1132C700B7013802B70237080F0010030BD012095
S1132C80F5E700BF2E96FF1FE895FF1F4C96FF1F28
S1132C90D495FF1F0C4A0D49108830B50C4D0D4CCE
S1132CA078B920782B7803430878034314BF0120B4
S1132CB0002000230B7013802B70237080F0010020
S1132CC030BD0120F5E700BFFC95FF1F4296FF1FB2
S1132CD01A96FF1F2496FF1F0C4A0D49108830B521
S1132CE00C4D0D4C78B920782B78034308780343B6
S1132CF014BF0120002000230B7013802B7023705D
S1132D0080F0010030BD0120F5E700BFC095FF1F32
S1132D101096FF1FDE95FF1FF295FF1F002830B5A8
S1132D2000DAFEE77A2800DDFEE74FF0E0230C4DE1
S1132D30D3F8084DA54200D9FEE7D3F8083D10307A
S1132D4012B153F82040146043F82010BFF34F8FA2
S1132D50BFF36F8FBFF36F8FBFF34F8F30BD00BFD3
S1132D600080FF1F002800DAFEE77A2800DDFEE776
S1132D704209012300F01F0003FA00F0014B43F85D
S1132D802200704700E100E0002800DAFEE77A281C
S1132D9000DDFEE74309012200F01F0002FA00F003
S1132DA02033024A42F82300704700BF00E100E0EC
S1132DB0002800DAFEE77A2800DDFEE70F2900D9B3
S1132DC0FEE700F16040090100F56140C9B280F8F6
S1132DD00013704738B5054600B9FEE70368592B60
S1132DE01AD9FEE76A6802EBC40152F83400497943
S1132DF0E300FFF7DDFF6A68134452F834001B79DF
S1132E003BB1FFF7AFFF01342B68A342EAD800209F
S1132E1038BDFFF7B9FFF6E70024F5E770B50446BF
S1132E2000B9FEE70368592B0FD9FEE7606806FB7B
S1132E3005F3C11800228968C058FFF76FFF0135F8
S1132E402368AB42F2D8002070BD00250C26F7E7BA
S1132E5064E787E798E7ABE7002800DAFEE77A281B
S1132E6000DDFEE700F1604000F5614090F80003EA
S1132E7000097047002800DAFEE77A2800DDFEE743
S1132E804309012200F01F0002FA00F06033024AF5
S1132E9042F82300704700BF00E100E0002800DA98
S1132EA0FEE77A2800DDFEE74309012200F01F0057
S1132EB002FA00F04033024A42F82300704700BF90
S1132EC000E100E0002800DAFEE77A2800DDFEE7F2
S1132ED04309054A403300F01F0052F8233023FA17
S1132EE000F000F00100704700E100E0002800DA83
S1132EF0FEE77A2800DDFEE74309054A803300F047
S1132F001F0052F8233023FA00F000F0010070474C
S1132F1000E100E000B1FEE7704700207047B1FA1D
S1132F2081F0400970477047002918BF002070479E
S1132F3010B5024638B10C230022BDE810401146FA
S1132F407C20FFF7E2BD064CE3691B78012B01D01E
S1132F50F023F2E7204600F079F9024B1C6010BD23
S1132F60D46500005896FF1F104A70B514683CB928
S1132F700F230122BDE8704000217C20FFF7C5BD6E
S1132F802288824201D80A23F3E7A26952F820502A
S1132F9015F0010501D1F023EBE7224600F0E2F938
S1132FA00128024601D10B23E4E770BD5896FF1FA8
S1132FB0134A70B514683CB90F23BDE8704004226D
S1132FC000217C20FFF7A1BD2288824201D80A2378
S1132FD0F3E7A26952F8205015F0010501D1F0235E
S1132FE0EBE7E268142505FB00239D7C0DB90E2355
S1132FF0E3E7224600F032FA0D280346DDD070BD27
S11330005896FF1F094B196821B90F2302227C200F
S1133010FFF77BBDCB691B78012B03D0F023022281
S11330200021F4E7084600F06BBA00BF5896FF1F72
S1133030014620B9102303227C20FFF766BD2B2311
S113304003807C23438001238380002383717047A2
S113305050F82100704740F82120704741607047C4
S11330608160704738B504460D4602F06DFB636914
S11330702B436361BDE8384002F07ABB38B504469F
S11330800D4602F085FB636923EA05036361BDE82D
S1133090384002F091BB38B504460D4602F09CFB63
S11330A0A3692B43A361BDE8384002F0A9BB38B53E
S11330B004460D4602F0B4FBD4F8C0302B43C4F8E8
S11330C0C030BDE8384002F0BFBBF8B528250C4637
S11330D005FB00150126AC4201D10020F8BDE368D0
S11330E0216A022B1CBF03F0010343F00202A3690F
S11330F04FEAC1314FEA831303F0400389B241EA36
S11331000301237F08BF0022002B23694FEA032316
S113311003F4E06343EA010343EA020314BF102704
S113312000271F4302F0ECFAD4F800C0D4F808E0FA
S1133130DCF8C00094F8243006FA0EF220EA02000B
S113314003FA0EF30343CCF8C0302369012B6FEA72
S113315002010DD160696368022817D194F8251023
S113316001290DD159681143596059690A435A61BB
S113317002F0DAFA2368A268283443F82270AAE736
S11331800029F2D1996811439960EEE7D3F814C08D
S113319001EA0C010328596102BF99690A439A6143
S11331A0E6E770B505460E46144602F05DFB55F899
S11331B02630240223F4E06304F4E0641C4345F85D
S11331C02640BDE8704002F063BB38B504460D46A6
S11331D002F06EFBD4F8C020012303FA05F1114379
S11331E0C4F8C010BDE8384002F076BB38B50446D8
S11331F00D4602F081FBD4F8C030012202FA05F139
S113320023EA0101C4F8C010BDE8384002F088BBCD
S11332104B7803F00103C0F8C4308B7803F01F032C
S1133220C0F8C830704722F4F14222F02C0213B1E6
S1133230012B05D0704742EA0141C0F88010704765
S113324042EA0141C0F88410704700002DE9F84FAC
S1133250414D077C83460024A2B297421BD8DBF879
S113326020103E4D0320FFF730FFDBF80820BBF8A9
S11332700290177AD2E900A80024A2B2914520D87E
S11332800023374A194601339BB20A2B22F8021B4A
S1133290F9D1BDE8F88FDBF8141011F8346001EBB4
S11332A0C40155F82600FFF7B3FFDBF8142055F8E6
S11332B026004FEAC408424401345168FFF7F7FE80
S11332C0CAE7DBF8042032F814104A09B8F1020FF7
S11332D055F8220001F01F014FF001024FEA4406A5
S11332E002FA01F123D197421CD1FFF7B7FEDBF8B4
S11332F00420925B02F01F015209012000FA01F13F
S113330055F82200FFF7AEFEDBF80420124B915B68
S11333104809524653F8200001F01F01FFF79BFEB5
S11333200134AAE7002FE2D1FFF79AFEDFE7FFF7A7
S1133330A5FEB8F1030F4FF00102E5D1DBF804104C
S1133340885B00F01F01400902FA01F155F82000E2
S1133350FFF7A1FED8E700BF2493FF1F1093FF1FC0
S1133360AC95FF1F142373B55843D3681A180C4641
S1133370527C1B5A5AB91949C3F3071503F00F02BB
S113338031F81510012000FA02F20A420CD0022C86
S11333900CD103F01F0201215B099140104A52F83D
S11333A02300FFF75FFE002002B070BD24F002028C
S11333B0012AF8D15E090A4D03F01F0302FA03F152
S11333C055F826000191FFF759FE032C0199EAD123
S11333D055F82600FFF75FFEE5E700BFAC95FF1F39
S11333E01093FF1F38B504460D4602F065F9C4F387
S11333F00311094804F00F040123A34030F81120FD
S11334009BB235B1134320F81130BDE8384002F0C7
S113341067B922EA0303F6E7AC95FF1F1423584368
S1133420CB681A181B5A127A012A09D103F01F011A
S113343002FA01F15B09084A52F82300FFF70EBEB5
S11334404AB903F01F0201215B099140024A52F874
S11334502300FFF705BE70471093FF1F07292DE9CE
S1133460F34107460D46164643D84FF01408D36877
S1133470214A08FB00F833F808400A234B4303EBC6
S1133480141332F8133004F00F021341DB0730D564
S1133490012929D12046FFF7A5FFF3684344D3F857
S11334A00C8028F00203012B03D031463846FFF785
S11334B0B5FF324641463846FFF754FF04F01F017A
S11334C066090E4C019154F82600FFF7C1FD20F463
S11334D0E06040EA0522019954F82600FFF7BBFD9D
S11334E0002002B0BDE8F08100212046FFF77AFFFA
S11334F0E4E70D20F5E700BF786E00002493FF1F7A
S11335002DE9F74F07881F4E044600254FF0140895
S11335104FF00109ABB29F4202D803B0BDE8F08F6F
S1133520E36808FB05FA03EB0A02517C79B9117CC4
S113353069B1D16833F80A3002290AD103F01F01B6
S11335405B0909FA01F156F82300FFF78BFD0135F9
S1133550E0E721F002010129F9D14FEA531B03F0FE
S11335601F03994056F82B000191FFF787FDE3688C
S113357001995344DB68032BE9D156F82B00FFF77C
S11335808AFDE4E71093FF1F074B1A683AB9EFF37B
S11335901081064A11601268D20700D472B61A6804
S11335A001321A60704700BF7898FF1F5C96FF1FB6
S11335B0054B1A68013A1A60044A1268D20702D409
S11335C01B6803B962B670477898FF1F5C96FF1FAB
S11335D0074B1A683AB9EFF31081064A1160126872
S11335E0D20700D472B61A6801321A60704700BF5D
S11335F0FC96FF1FA097FF1F054B1A68013A1A603B
S1133600044A1268D20702D41B6803B962B6704731
S1133610FC96FF1FA097FF1F074B1A683AB9EFF3F8
S11336201081064A11601268D20700D472B61A6873
S113363001321A60704700BFB896FF1F4C97FF1FF6
S1133640054B1A68013A1A60044A1268D20702D478
S11336501B6803B962B67047B896FF1F4C97FF1FEB
S1133660074B1A683AB9EFF31081064A11601268E1
S1133670D20700D472B61A6801321A60704700BFCC
S11336809897FF1F3098FF1F054B1A68013A1A607C
S1133690044A1268D20702D41B6803B962B67047A1
S11336A09897FF1F3098FF1F074B1A683AB9EFF33A
S11336B01081064A11601268D20700D472B61A68E3
S11336C001321A60704700BF0897FF1FE096FF1F82
S11336D0054B1A68013A1A60044A1268D20702D4E8
S11336E01B6803B962B670470897FF1FE096FF1F77
S11336F0074B1A683AB9EFF31081064A1160126851
S1133700D20700D472B61A6801321A60704700BF3B
S11337101C98FF1F6C98FF1F054B1A68013A1A602A
S1133720044A1268D20702D41B6803B962B6704710
S11337301C98FF1F6C98FF1F074B1A683AB9EFF3E8
S11337401081064A11601268D20700D472B61A6852
S113375001321A60704700BFBC96FF1F7C97FF1FA1
S1133760054B1A68013A1A60044A1268D20702D457
S11337701B6803B962B67047BC96FF1F7C97FF1F96
S1133780074B1A683AB9EFF31081064A11601268C0
S1133790D20700D472B61A6801321A60704700BFAB
S11337A00C98FF1FB496FF1F054B1A68013A1A6064
S11337B0044A1268D20702D41B6803B962B6704780
S11337C00C98FF1FB496FF1F074B1A683AB9EFF322
S11337D01081064A11601268D20700D472B61A68C2
S11337E001321A60704700BF2C97FF1FC097FF1F5C
S11337F0054B1A68013A1A60044A1268D20702D4C7
S11338001B6803B962B670472C97FF1FC097FF1F50
S1133810074B1A683AB9EFF31081064A116012682F
S1133820D20700D472B61A6801321A60704700BF1A
S11338300898FF1F2497FF1F054B1A68013A1A6066
S1133840044A1268D20702D41B6803B962B67047EF
S11338500898FF1F2497FF1F074B1A683AB9EFF324
S11338601081064A11601268D20700D472B61A6831
S113387001321A60704700BF5097FF1F1898FF1F4E
S1133880054B1A68013A1A60044A1268D20702D436
S11338901B6803B962B670475097FF1F1898FF1F43
S11338A0074B1A683AB9EFF31081064A116012689F
S11338B0D20700D472B61A6801321A60704700BF8A
S11338C07896FF1FB097FF1F054B1A68013A1A60DC
S11338D0044A1268D20702D41B6803B962B670475F
S11338E07896FF1FB097FF1F074B1A683AB9EFF39A
S11338F01081064A11601268D20700D472B61A68A1
S113390001321A60704700BF2897FF1F8097FF1F7E
S1133910054B1A68013A1A60044A1268D20702D4A5
S11339201B6803B962B670472897FF1F8097FF1F73
S1133930074B1A683AB9EFF31081064A116012680E
S1133940D20700D472B61A6801321A60704700BFF9
S11339503498FF1F0C97FF1F054B1A68013A1A6031
S1133960044A1268D20702D41B6803B962B67047CE
S11339703498FF1F0C97FF1F074B1A683AB9EFF3EF
S11339801081064A11601268D20700D472B61A6810
S113399001321A60704700BFCC97FF1F9C96FF1F2F
S11339A0054B1A68013A1A60044A1268D20702D415
S11339B01B6803B962B67047CC97FF1F9C96FF1F24
S11339C0074B1A683AB9EFF31081064A116012687E
S11339D0D20700D472B61A6801321A60704700BF69
S11339E09496FF1F8497FF1F054B1A68013A1A60CB
S11339F0044A1268D20702D41B6803B962B670473E
S1133A009496FF1F8497FF1F074B1A683AB9EFF388
S1133A101081064A11601268D20700D472B61A687F
S1133A2001321A60704700BF5098FF1FD896FF1FDD
S1133A30054B1A68013A1A60044A1268D20702D484
S1133A401B6803B962B670475098FF1FD896FF1FD2
S1133A50074B1A683AB9EFF31081064A11601268ED
S1133A60D20700D472B61A6801321A60704700BFD8
S1133A70EC97FF1F7096FF1F054B1A68013A1A60F6
S1133A80044A1268D20702D41B6803B962B67047AD
S1133A90EC97FF1F7096FF1F074B1A683AB9EFF3B4
S1133AA01081064A11601268D20700D472B61A68EF
S1133AB001321A60704700BF7897FF1F6C97FF1F91
S1133AC0054B1A68013A1A60044A1268D20702D4F4
S1133AD01B6803B962B670477897FF1F6C97FF1F86
S1133AE0074B1A683AB9EFF31081064A116012685D
S1133AF0D20700D472B61A6801321A60704700BF48
S1133B005498FF1FF896FF1F054B1A68013A1A6074
S1133B10044A1268D20702D41B6803B962B670471C
S1133B205498FF1FF896FF1F074B1A683AB9EFF332
S1133B301081064A11601268D20700D472B61A685E
S1133B4001321A60704700BFF097FF1F7496FF1F81
S1133B50054B1A68013A1A60044A1268D20702D463
S1133B601B6803B962B67047F097FF1F7496FF1F76
S1133B70074B1A683AB9EFF31081064A11601268CC
S1133B80D20700D472B61A6801321A60704700BFB7
S1133B90DC96FF1F9C97FF1F054B1A68013A1A60B9
S1133BA0044A1268D20702D41B6803B962B670478C
S1133BB0DC96FF1F9C97FF1F074B1A683AB9EFF377
S1133BC01081064A11601268D20700D472B61A68CE
S1133BD001321A60704700BFF497FF1F9096FF1FD1
S1133BE0054B1A68013A1A60044A1268D20702D4D3
S1133BF01B6803B962B67047F497FF1F9096FF1FC6
S1133C00074B1A683AB9EFF31081064A116012683B
S1133C10D20700D472B61A6801321A60704700BF26
S1133C201097FF1F7C96FF1F054B1A68013A1A6014
S1133C30044A1268D20702D41B6803B962B67047FB
S1133C401097FF1F7C96FF1F074B1A683AB9EFF3D2
S1133C501081064A11601268D20700D472B61A683D
S1133C6001321A60704700BFA096FF1F3898FF1FEB
S1133C70054B1A68013A1A60044A1268D20702D442
S1133C801B6803B962B67047A096FF1F3898FF1FE0
S1133C90074B1A683AB9EFF31081064A11601268AB
S1133CA0D20700D472B61A6801321A60704700BF96
S1133CB0A497FF1FD097FF1F054B1A68013A1A609B
S1133CC0044A1268D20702D41B6803B962B670476B
S1133CD0A497FF1FD097FF1F074B1A683AB9EFF359
S1133CE01081064A11601268D20700D472B61A68AD
S1133CF001321A60704700BF3097FF1F5C97FF1FA7
S1133D00054B1A68013A1A60044A1268D20702D4B1
S1133D101B6803B962B670473097FF1F5C97FF1F9B
S1133D20074B1A683AB9EFF31081064A116012681A
S1133D30D20700D472B61A6801321A60704700BF05
S1133D40A496FF1F3C98FF1F054B1A68013A1A609E
S1133D50044A1268D20702D41B6803B962B67047DA
S1133D60A496FF1F3C98FF1F074B1A683AB9EFF35C
S1133D701081064A11601268D20700D472B61A681C
S1133D8001321A60704700BF6098FF1FD497FF1F6D
S1133D90054B1A68013A1A60044A1268D20702D421
S1133DA01B6803B962B670476098FF1FD497FF1F62
S1133DB0074B1A683AB9EFF31081064A116012688A
S1133DC0D20700D472B61A6801321A60704700BF75
S1133DD03497FF1F6097FF1F054B1A68013A1A605A
S1133DE0044A1268D20702D41B6803B962B670474A
S1133DF03497FF1F6097FF1F074B1A683AB9EFF318
S1133E001081064A11601268D20700D472B61A688B
S1133E1001321A60704700BFC096FF1FEC96FF1F67
S1133E20054B1A68013A1A60044A1268D20702D490
S1133E301B6803B962B67047C096FF1FEC96FF1F5C
S1133E40074B1A683AB9EFF31081064A11601268F9
S1133E50D20700D472B61A6801321A60704700BFE4
S1133E606498FF1FD897FF1F054B1A68013A1A6020
S1133E70044A1268D20702D41B6803B962B67047B9
S1133E806498FF1FD897FF1F074B1A683AB9EFF3DE
S1133E901081064A11601268D20700D472B61A68FB
S1133EA001321A60704700BF0098FF1F6497FF1F1C
S1133EB0054B1A68013A1A60044A1268D20702D400
S1133EC01B6803B962B670470098FF1F6497FF1F11
S1133ED0074B1A683AB9EFF31081064A1160126869
S1133EE0D20700D472B61A6801321A60704700BF54
S1133EF0C496FF1FF096FF1F054B1A68013A1A601B
S1133F00044A1268D20702D41B6803B962B6704728
S1133F10C496FF1FF096FF1F074B1A683AB9EFF3D8
S1133F201081064A11601268D20700D472B61A686A
S1133F3001321A60704700BF6096FF1FDC97FF1FB5
S1133F40054B1A68013A1A60044A1268D20702D46F
S1133F501B6803B962B670476096FF1FDC97FF1FAA
S1133F60074B1A683AB9EFF31081064A11601268D8
S1133F70D20700D472B61A6801321A60704700BFC3
S1133F800498FF1F6897FF1F054B1A68013A1A60CF
S1133F90044A1268D20702D41B6803B962B6704798
S1133FA00498FF1F6897FF1F074B1A683AB9EFF38D
S1133FB01081064A11601268D20700D472B61A68DA
S1133FC001321A60704700BF9497FF1FF496FF1FD9
S1133FD0054B1A68013A1A60044A1268D20702D4DF
S1133FE01B6803B962B670479497FF1FF496FF1FCE
S1133FF0074B1A683AB9EFF31081064A1160126848
S1134000D20700D472B61A6801321A60704700BF32
S11340106496FF1F8896FF1F054B1A68013A1A60C1
S1134020044A1268D20702D41B6803B962B6704707
S11340306496FF1F8896FF1F074B1A683AB9EFF37F
S11340401081064A11601268D20700D472B61A6849
S113405001321A60704700BF2098FF1F8897FF1F26
S1134060054B1A68013A1A60044A1268D20702D44E
S11340701B6803B962B670472098FF1F8897FF1F1B
S1134080074B1A683AB9EFF31081064A11601268B7
S1134090D20700D472B61A6801321A60704700BFA2
S11340A0B497FF1F1497FF1F054B1A68013A1A6053
S11340B0044A1268D20702D41B6803B962B6704777
S11340C0B497FF1F1497FF1F074B1A683AB9EFF311
S11340D01081064A11601268D20700D472B61A68B9
S11340E001321A60704700BF4097FF1F8C96FF1F74
S11340F0054B1A68013A1A60044A1268D20702D4BE
S11341001B6803B962B670474097FF1F8C96FF1F68
S1134110074B1A683AB9EFF31081064A1160126826
S1134120D20700D472B61A6801321A60704700BF11
S11341302498FF1F4898FF1F054B1A68013A1A601C
S1134140044A1268D20702D41B6803B962B67047E6
S11341502498FF1F4898FF1F074B1A683AB9EFF3DA
S11341601081064A11601268D20700D472B61A6828
S113417001321A60704700BFB897FF1F1897FF1FDE
S1134180054B1A68013A1A60044A1268D20702D42D
S11341901B6803B962B67047B897FF1F1897FF1FD3
S11341A0074B1A683AB9EFF31081064A1160126896
S11341B0D20700D472B61A6801321A60704700BF81
S11341C04497FF1FA896FF1F054B1A68013A1A600F
S11341D0044A1268D20702D41B6803B962B6704756
S11341E04497FF1FA896FF1F074B1A683AB9EFF3CD
S11341F01081064A11601268D20700D472B61A6898
S113420001321A60704700BFD096FF1F4C98FF1F01
S1134210054B1A68013A1A60044A1268D20702D49C
S11342201B6803B962B67047D096FF1F4C98FF1FF6
S1134230074B1A683AB9EFF31081064A1160126805
S1134240D20700D472B61A6801321A60704700BFF0
S1134250BC97FF1FE897FF1F054B1A68013A1A60C5
S1134260044A1268D20702D41B6803B962B67047C5
S1134270BC97FF1FE897FF1F074B1A683AB9EFF383
S11342801081064A11601268D20700D472B61A6807
S113429001321A60704700BF4897FF1FAC96FF1F9A
S11342A0054B1A68013A1A60044A1268D20702D40C
S11342B01B6803B962B670474897FF1FAC96FF1F8F
S11342C0074B1A683AB9EFF31081064A1160126875
S11342D0D20700D472B61A6801321A60704700BF60
S11342E0D496FF1F6898FF1F054B1A68013A1A609D
S11342F0044A1268D20702D41B6803B962B6704735
S1134300D496FF1F6898FF1F074B1A683AB9EFF35A
S11343101081064A11601268D20700D472B61A6876
S113432001321A60704700BF8496FF1F6C96FF1F0E
S1134330054B1A68013A1A60044A1268D20702D47B
S11343401B6803B962B670478496FF1F6C96FF1F03
S1134350074B1A683AB9EFF31081064A11601268E4
S1134360D20700D472B61A6801321A60704700BFCF
S11343707498FF1F5C98FF1F054B1A68013A1A6076
S1134380044A1268D20702D41B6803B962B67047A4
S11343907498FF1F5C98FF1F074B1A683AB9EFF334
S11343A01081064A11601268D20700D472B61A68E6
S11343B001321A60704700BF4498FF1F2C98FF1FFA
S11343C0054B1A68013A1A60044A1268D20702D4EB
S11343D01B6803B962B670474498FF1F2C98FF1FEF
S11343E0074B1A683AB9EFF31081064A1160126854
S11343F0D20700D472B61A6801321A60704700BF3F
S11344001498FF1FFC97FF1F054B1A68013A1A60A6
S1134410044A1268D20702D41B6803B962B6704713
S11344201498FF1FFC97FF1F074B1A683AB9EFF364
S11344301081064A11601268D20700D472B61A6855
S113444001321A60704700BFE497FF1FC897FF1F2F
S1134450054B1A68013A1A60044A1268D20702D45A
S11344601B6803B962B67047E497FF1FC897FF1F24
S1134470074B1A683AB9EFF31081064A11601268C3
S1134480D20700D472B61A6801321A60704700BFAE
S1134490AC97FF1F9097FF1F054B1A68013A1A60EB
S11344A0044A1268D20702D41B6803B962B6704783
S11344B0AC97FF1F9097FF1F074B1A683AB9EFF3A9
S11344C01081064A11601268D20700D472B61A68C5
S11344D001321A60704700BF7497FF1F5897FF1F7F
S11344E0054B1A68013A1A60044A1268D20702D4CA
S11344F01B6803B962B670477497FF1F5897FF1F74
S1134500074B1A683AB9EFF31081064A1160126832
S1134510D20700D472B61A6801321A60704700BF1D
S11345203C97FF1F2097FF1F054B1A68013A1A603A
S1134530044A1268D20702D41B6803B962B67047F2
S11345403C97FF1F2097FF1F074B1A683AB9EFF3F8
S11345501081064A11601268D20700D472B61A6834
S113456001321A60704700BF0497FF1FE896FF1FCF
S1134570054B1A68013A1A60044A1268D20702D439
S11345801B6803B962B670470497FF1FE896FF1FC4
S1134590074B1A683AB9EFF31081064A11601268A2
S11345A0D20700D472B61A6801321A60704700BF8D
S11345B0CC96FF1FB096FF1F054B1A68013A1A608C
S11345C0044A1268D20702D41B6803B962B6704762
S11345D0CC96FF1FB096FF1F074B1A683AB9EFF34A
S11345E01081064A11601268D20700D472B61A68A4
S11345F001321A60704700BF9896FF1F8096FF1F14
S1134600054B1A68013A1A60044A1268D20702D4A8
S11346101B6803B962B670479896FF1F8096FF1F08
S1134620074B1A683AB9EFF31081064A1160126811
S1134630D20700D472B61A6801321A60704700BFFC
S11346406896FF1F7098FF1F054B1A68013A1A609D
S1134650044A1268D20702D41B6803B962B67047D1
S11346606896FF1F7098FF1F074B1A683AB9EFF35B
S11346701081064A11601268D20700D472B61A6813
S113468001321A60704700BF5898FF1F4098FF1FFF
S1134690054B1A68013A1A60044A1268D20702D418
S11346A01B6803B962B670475898FF1F4098FF1FF4
S11346B0074B1A683AB9EFF31081064A1160126881
S11346C0D20700D472B61A6801321A60704700BF6C
S11346D02898FF1F1098FF1F054B1A68013A1A60AB
S11346E0044A1268D20702D41B6803B962B6704741
S11346F02898FF1F1098FF1F074B1A683AB9EFF369
S11347001081064A11601268D20700D472B61A6882
S113471001321A60704700BFF897FF1FE097FF1F30
S1134720054B1A68013A1A60044A1268D20702D487
S11347301B6803B962B67047F897FF1FE097FF1F25
S1134740074B1A683AB9EFF31081064A11601268F0
S1134750D20700D472B61A6801321A60704700BFDB
S1134760C497FF1FA897FF1F054B1A68013A1A60E8
S1134770044A1268D20702D41B6803B962B67047B0
S1134780C497FF1FA897FF1F074B1A683AB9EFF3A6
S11347901081064A11601268D20700D472B61A68F2
S11347A001321A60704700BF8C97FF1F7097FF1F7C
S11347B0054B1A68013A1A60044A1268D20702D4F7
S11347C01B6803B962B670478C97FF1F7097FF1F71
S11347D0074B1A683AB9EFF31081064A1160126860
S11347E0D20700D472B61A6801321A60704700BF4B
S11347F05497FF1F3897FF1F054B1A68013A1A6038
S1134800044A1268D20702D41B6803B962B670471F
S11348105497FF1F3897FF1F074B1A683AB9EFF3F5
S11348201081064A11601268D20700D472B61A6861
S113483001321A60704700BF1C97FF1F0097FF1FCB
S1134840054B1A68013A1A60044A1268D20702D466
S11348501B6803B962B670471C97FF1F0097FF1FC0
S1134860074B1A683AB9EFF31081064A11601268CF
S1134870D20700D472B61A6801321A60704700BFBA
S1134880E496FF1FC896FF1F054B1A68013A1A6089
S1134890044A1268D20702D41B6803B962B670478F
S11348A0E496FF1FC896FF1F074B1A683AB9EFF347
S11348B01081064A11601268D20700D472B61A68D1
S11348C001321A60704700BFA899FF1F5899FF1F53
S11348D0054B1A68013A1A60044A1268D20702D4D6
S11348E01B6803B962B67047A899FF1F5899FF1F48
S11348F0074B1A683AB9EFF31081064A116012683F
S1134900D20700D472B61A6801321A60704700BF29
S11349109C98FF1FD898FF1F054B1A68013A1A602C
S1134920044A1268D20702D41B6803B962B67047FE
S11349309C98FF1FD898FF1F074B1A683AB9EFF3EA
S11349401081064A11601268D20700D472B61A6840
S113495001321A60704700BF9899FF1FE498FF1F47
S1134960054B1A68013A1A60044A1268D20702D445
S11349701B6803B962B670479899FF1FE498FF1F3C
S1134980074B1A683AB9EFF31081064A11601268AE
S1134990D20700D472B61A6801321A60704700BF99
S11349A07C99FF1FB499FF1F054B1A68013A1A60DE
S11349B0044A1268D20702D41B6803B962B670476E
S11349C07C99FF1FB499FF1F074B1A683AB9EFF39C
S11349D01081064A11601268D20700D472B61A68B0
S11349E001321A60704700BFE099FF1FA098FF1FB3
S11349F0054B1A68013A1A60044A1268D20702D4B5
S1134A001B6803B962B67047E099FF1FA098FF1FA7
S1134A10074B1A683AB9EFF31081064A116012681D
S1134A20D20700D472B61A6801321A60704700BF08
S1134A306899FF1FB898FF1F054B1A68013A1A605E
S1134A40044A1268D20702D41B6803B962B67047DD
S1134A506899FF1FB898FF1F074B1A683AB9EFF31C
S1134A601081064A11601268D20700D472B61A681F
S1134A7001321A60704700BF4899FF1F8099FF1FD9
S1134A80054B1A68013A1A60044A1268D20702D424
S1134A901B6803B962B670474899FF1F8099FF1FCE
S1134AA0074B1A683AB9EFF31081064A116012688D
S1134AB0D20700D472B61A6801321A60704700BF78
S1134AC0C898FF1FEC99FF1F054B1A68013A1A603A
S1134AD0044A1268D20702D41B6803B962B670474D
S1134AE0C898FF1FEC99FF1F074B1A683AB9EFF3F8
S1134AF01081064A11601268D20700D472B61A688F
S1134B0001321A60704700BF3899FF1F8098FF1F59
S1134B10054B1A68013A1A60044A1268D20702D493
S1134B201B6803B962B670473899FF1F8098FF1F4E
S1134B30074B1A683AB9EFF31081064A11601268FC
S1134B40D20700D472B61A6801321A60704700BFE7
S1134B501899FF1FDC99FF1F054B1A68013A1A6068
S1134B60044A1268D20702D41B6803B962B67047BC
S1134B701899FF1FDC99FF1F074B1A683AB9EFF326
S1134B801081064A11601268D20700D472B61A68FE
S1134B9001321A60704700BF9098FF1FB899FF1F39
S1134BA0054B1A68013A1A60044A1268D20702D403
S1134BB01B6803B962B670479098FF1FB899FF1F2E
S1134BC0074B1A683AB9EFF31081064A116012686C
S1134BD0D20700D472B61A6801321A60704700BF57
S1134BE00499FF1FC899FF1F054B1A68013A1A6000
S1134BF0044A1268D20702D41B6803B962B670472C
S1134C000499FF1FC899FF1F074B1A683AB9EFF3BD
S1134C101081064A11601268D20700D472B61A686D
S1134C2001321A60704700BF8C99FF1F2C99FF1F37
S1134C30054B1A68013A1A60044A1268D20702D472
S1134C401B6803B962B670478C99FF1F2C99FF1F2C
S1134C50074B1A683AB9EFF31081064A11601268DB
S1134C60D20700D472B61A6801321A60704700BFC6
S1134C706499FF1F9099FF1F054B1A68013A1A6047
S1134C80044A1268D20702D41B6803B962B670479B
S1134C906499FF1F9099FF1F074B1A683AB9EFF305
S1134CA01081064A11601268D20700D472B61A68DD
S1134CB001321A60704700BFC499FF1FF099FF1FAB
S1134CC0054B1A68013A1A60044A1268D20702D4E2
S1134CD01B6803B962B67047C499FF1FF099FF1FA0
S1134CE0074B1A683AB9EFF31081064A116012684B
S1134CF0D20700D472B61A6801321A60704700BF36
S1134D00AC98FF1FDC98FF1F054B1A68013A1A6024
S1134D10044A1268D20702D41B6803B962B670470A
S1134D20AC98FF1FDC98FF1F074B1A683AB9EFF3E2
S1134D301081064A11601268D20700D472B61A684C
S1134D4001321A60704700BF0C99FF1F4499FF1F7E
S1134D50054B1A68013A1A60044A1268D20702D451
S1134D601B6803B962B670470C99FF1F4499FF1F73
S1134D70074B1A683AB9EFF31081064A11601268BA
S1134D80D20700D472B61A6801321A60704700BFA5
S1134D907099FF1FA499FF1F054B1A68013A1A6006
S1134DA0044A1268D20702D41B6803B962B670477A
S1134DB07099FF1FA499FF1F074B1A683AB9EFF3C4
S1134DC01081064A11601268D20700D472B61A68BC
S1134DD001321A60704700BFD099FF1F8C98FF1FE3
S1134DE0054B1A68013A1A60044A1268D20702D4C1
S1134DF01B6803B962B67047D099FF1F8C98FF1FD8
S1134E00074B1A683AB9EFF31081064A1160126829
S1134E10D20700D472B61A6801321A60704700BF14
S1134E20BC98FF1FF098FF1F054B1A68013A1A60DF
S1134E30044A1268D20702D41B6803B962B67047E9
S1134E40BC98FF1FF098FF1F074B1A683AB9EFF39D
S1134E501081064A11601268D20700D472B61A682B
S1134E6001321A60704700BF1C99FF1F5499FF1F3D
S1134E70054B1A68013A1A60044A1268D20702D430
S1134E801B6803B962B670471C99FF1F5499FF1F32
S1134E90074B1A683AB9EFF31081064A1160126899
S1134EA0D20700D472B61A6801321A60704700BF84
S1134EB0F498FF1F2899FF1F054B1A68013A1A60DE
S1134EC0044A1268D20702D41B6803B962B6704759
S1134ED0F498FF1F2899FF1F074B1A683AB9EFF39C
S1134EE01081064A11601268D20700D472B61A689B
S1134EF001321A60704700BFCC98FF1F0099FF1F52
S1134F00054B1A68013A1A60044A1268D20702D49F
S1134F101B6803B962B67047CC98FF1F0099FF1F46
S1134F20074B1A683AB9EFF31081064A1160126808
S1134F30D20700D472B61A6801321A60704700BFF3
S1134F403C99FF1FB098FF1F054B1A68013A1A607D
S1134F50044A1268D20702D41B6803B962B67047C8
S1134F603C99FF1FB098FF1F074B1A683AB9EFF33B
S1134F701081064A11601268D20700D472B61A680A
S1134F8001321A60704700BF9C99FF1F1099FF1FE0
S1134F90054B1A68013A1A60044A1268D20702D40F
S1134FA01B6803B962B670479C99FF1F1099FF1FD5
S1134FB0074B1A683AB9EFF31081064A1160126878
S1134FC0D20700D472B61A6801321A60704700BF63
S1134FD08498FF1F7499FF1F054B1A68013A1A60E1
S1134FE0044A1268D20702D41B6803B962B6704738
S1134FF08498FF1F7499FF1F074B1A683AB9EFF39F
S11350001081064A11601268D20700D472B61A6879
S113501001321A60704700BFE898FF1FD499FF1F40
S1135020054B1A68013A1A60044A1268D20702D47E
S11350301B6803B962B67047E898FF1FD499FF1F35
S1135040074B1A683AB9EFF31081064A11601268E7
S1135050D20700D472B61A6801321A60704700BFD2
S11350604C99FF1FC098FF1F054B1A68013A1A603C
S1135070044A1268D20702D41B6803B962B67047A7
S11350804C99FF1FC098FF1F074B1A683AB9EFF3FA
S11350901081064A11601268D20700D472B61A68E9
S11350A001321A60704700BFAC99FF1F2099FF1F9F
S11350B0054B1A68013A1A60044A1268D20702D4EE
S11350C01B6803B962B67047AC99FF1F2099FF1F94
S11350D0074B1A683AB9EFF31081064A1160126857
S11350E0D20700D472B61A6801321A60704700BF42
S11350F09498FF1F8499FF1F054B1A68013A1A60A0
S1135100044A1268D20702D41B6803B962B6704716
S11351109498FF1F8499FF1F074B1A683AB9EFF35D
S11351201081064A11601268D20700D472B61A6858
S113513001321A60704700BFF898FF1FE499FF1FFF
S1135140054B1A68013A1A60044A1268D20702D45D
S11351501B6803B962B67047F898FF1FE499FF1FF4
S1135160074B1A683AB9EFF31081064A11601268C6
S1135170D20700D472B61A6801321A60704700BFB1
S11351805C99FF1FD098FF1F054B1A68013A1A60FB
S1135190044A1268D20702D41B6803B962B6704786
S11351A05C99FF1FD098FF1F074B1A683AB9EFF3B9
S11351B01081064A11601268D20700D472B61A68C8
S11351C001321A60704700BFBC99FF1F3099FF1F5E
S11351D0054B1A68013A1A60044A1268D20702D4CD
S11351E01B6803B962B67047BC99FF1F3099FF1F53
S11351F0074B1A683AB9EFF31081064A1160126836
S1135200D20700D472B61A6801321A60704700BF20
S1135210A498FF1F9499FF1F054B1A68013A1A605E
S1135220044A1268D20702D41B6803B962B67047F5
S1135230A498FF1F9499FF1F074B1A683AB9EFF31C
S11352401081064A11601268D20700D472B61A6837
S113525001321A60704700BF0899FF1F7C98FF1F36
S1135260054B1A68013A1A60044A1268D20702D43C
S11352701B6803B962B670470899FF1F7C98FF1F2B
S1135280074B1A683AB9EFF31081064A11601268A5
S1135290D20700D472B61A6801321A60704700BF90
S11352A06C99FF1FE098FF1F054B1A68013A1A60BA
S11352B0044A1268D20702D41B6803B962B6704765
S11352C06C99FF1FE098FF1F074B1A683AB9EFF378
S11352D01081064A11601268D20700D472B61A68A7
S11352E001321A60704700BFCC99FF1F4099FF1F1D
S11352F0054B1A68013A1A60044A1268D20702D4AC
S11353001B6803B962B67047CC99FF1F4099FF1F11
S1135310074B1A683AB9EFF31081064A1160126814
S1135320D20700D472B61A6801321A60704700BFFF
S1135330B498FF1FA099FF1F054B1A68013A1A6021
S1135340044A1268D20702D41B6803B962B67047D4
S1135350B498FF1FA099FF1F074B1A683AB9EFF3DF
S11353601081064A11601268D20700D472B61A6816
S113537001321A60704700BF1499FF1F8898FF1FFD
S1135380054B1A68013A1A60044A1268D20702D41B
S11353901B6803B962B670471499FF1F8898FF1FF2
S11353A0074B1A683AB9EFF31081064A1160126884
S11353B0D20700D472B61A6801321A60704700BF6F
S11353C07899FF1FEC98FF1F054B1A68013A1A6081
S11353D0044A1268D20702D41B6803B962B6704744
S11353E07899FF1FEC98FF1F074B1A683AB9EFF33F
S11353F01081064A11601268D20700D472B61A6886
S113540001321A60704700BFD899FF1F5099FF1FDF
S1135410054B1A68013A1A60044A1268D20702D48A
S11354201B6803B962B67047D899FF1F5099FF1FD4
S1135430074B1A683AB9EFF31081064A11601268F3
S1135440D20700D472B61A6801321A60704700BFDE
S1135450C498FF1FB099FF1F054B1A68013A1A60E0
S1135460044A1268D20702D41B6803B962B67047B3
S1135470C498FF1FB099FF1F074B1A683AB9EFF39E
S11354801081064A11601268D20700D472B61A68F5
S113549001321A60704700BF2499FF1F9898FF1FBC
S11354A0054B1A68013A1A60044A1268D20702D4FA
S11354B01B6803B962B670472499FF1F9898FF1FB1
S11354C0074B1A683AB9EFF31081064A1160126863
S11354D0D20700D472B61A6801321A60704700BF4E
S11354E08899FF1FFC98FF1F054B1A68013A1A6040
S11354F0044A1268D20702D41B6803B962B6704723
S11355008899FF1FFC98FF1F074B1A683AB9EFF3FD
S11355101081064A11601268D20700D472B61A6864
S113552001321A60704700BFE899FF1F6099FF1F9E
S1135530054B1A68013A1A60044A1268D20702D469
S11355401B6803B962B67047E899FF1F6099FF1F93
S1135550074B1A683AB9EFF31081064A11601268D2
S1135560D20700D472B61A6801321A60704700BFBD
S1135570D498FF1FC099FF1F054B1A68013A1A609F
S1135580044A1268D20702D41B6803B962B6704792
S1135590D498FF1FC099FF1F074B1A683AB9EFF35D
S11355A01081064A11601268D20700D472B61A68D4
S11355B001321A60704700BF3499FF1FA898FF1F7B
S11355C0054B1A68013A1A60044A1268D20702D4D9
S11355D01B6803B962B670473499FF1FA898FF1F70
S11355E0074B1A683AB9EFF31081064A1160126842
S11355F0D20700D472B61A6801321A60704700BF2D
S1135600049AFF1F089AFF1F054B1A68013A1A6093
S1135610044A1268D20702D41B6803B962B6704701
S1135620049AFF1F089AFF1F074B1A683AB9EFF351
S11356301081064A11601268D20700D472B61A6843
S113564001321A60704700BFF499FF1FF899FF1FD9
S1135650054B1A68013A1A60044A1268D20702D448
S11356601B6803B962B67047F499FF1FF899FF1FCE
S1135670074B1A683AB9EFF31081064A11601268B1
S1135680D20700D472B61A6801321A60704700BF9C
S1135690FC99FF1F009AFF1F054B1A68013A1A6014
S11356A0044A1268D20702D41B6803B962B6704771
S11356B0FC99FF1F009AFF1F074B1A683AB9EFF3D2
S11356C01081064A11601268D20700D472B61A68B3
S11356D001321A60704700BF449AFF1F509AFF1F9F
S11356E0054B1A68013A1A60044A1268D20702D4B8
S11356F01B6803B962B67047449AFF1F509AFF1F94
S1135700074B1A683AB9EFF31081064A1160126820
S1135710D20700D472B61A6801321A60704700BF0B
S1135720149AFF1F209AFF1F054B1A68013A1A604A
S1135730044A1268D20702D41B6803B962B67047E0
S1135740149AFF1F209AFF1F074B1A683AB9EFF308
S11357501081064A11601268D20700D472B61A6822
S113576001321A60704700BF2C9AFF1F389AFF1F3E
S1135770054B1A68013A1A60044A1268D20702D427
S11357801B6803B962B670472C9AFF1F389AFF1F33
S1135790074B1A683AB9EFF31081064A1160126890
S11357A0D20700D472B61A6801321A60704700BF7B
S11357B0409AFF1F4C9AFF1F054B1A68013A1A6062
S11357C0044A1268D20702D41B6803B962B6704750
S11357D0409AFF1F4C9AFF1F074B1A683AB9EFF320
S11357E01081064A11601268D20700D472B61A6892
S11357F001321A60704700BF109AFF1F1C9AFF1FE6
S1135800054B1A68013A1A60044A1268D20702D496
S11358101B6803B962B67047109AFF1F1C9AFF1FDA
S1135820074B1A683AB9EFF31081064A11601268FF
S1135830D20700D472B61A6801321A60704700BFEA
S1135840289AFF1F349AFF1F054B1A68013A1A6001
S1135850044A1268D20702D41B6803B962B67047BF
S1135860289AFF1F349AFF1F074B1A683AB9EFF3BF
S11358701081064A11601268D20700D472B61A6801
S113588001321A60704700BF3C9AFF1F489AFF1FFD
S1135890054B1A68013A1A60044A1268D20702D406
S11358A01B6803B962B670473C9AFF1F489AFF1FF2
S11358B0074B1A683AB9EFF31081064A116012686F
S11358C0D20700D472B61A6801321A60704700BF5A
S11358D00C9AFF1F189AFF1F054B1A68013A1A60A9
S11358E0044A1268D20702D41B6803B962B670472F
S11358F00C9AFF1F189AFF1F074B1A683AB9EFF367
S11359001081064A11601268D20700D472B61A6870
S113591001321A60704700BF249AFF1F309AFF1F9C
S1135920054B1A68013A1A60044A1268D20702D475
S11359301B6803B962B67047249AFF1F309AFF1F91
S1135940F8B50446FFF75CFA0022154655B99300F2
S113595003F1804303F5C62319680029A6BF19681B
S11359601960012501321A2AF0D1FDB921684A785B
S113597002F0FC0303F1804303F5C62302F003069F
S11359801868F2003F2707FA02F220EA02008A7838
S1135990F600B24002431A600A791AB11A6842F05A
S11359A000421A60FFF740FA014B1C602846F8BD1C
S11359B0549AFF1F124B73B51B6853F820305E785E
S11359C006F0FC0404F1804404F5C6240D46206866
S11359D0C00F12D10190FFF737FA06F003012368D4
S11359E0CE003F2202FA06F6C90023EA06068D40DD
S11359F035432560FFF73CFA019802B070BD00BF43
S1135A00549AFF1F0D4B13B51B6853F820305C7874
S1135A1004F0FC0404F1804404F5C6242068C00F9B
S1135A2009D10190FFF734FA236843F0004323605F
S1135A30FFF742FA019802B010BD00BF549AFF1F4D
S1135A4010B50C4C0146012300202370FBF7B8F875
S1135A5040F2333260606368B3F54D7F63682CBFF6
S1135A60A3F23333D31A962B94BF00230123002BC4
S1135A70F1D110BD8894FF1F000000000800000051
S1135A80020000000500000000000000000000000B
S1135A90090000006C670000000000000201011C06
S1135AA014000004280000000200000001000001AE
S1135AB001000000050000000100000000000000DB
S1135AC00800000000127A0001000000000000003D
S1135AD000000000090000000100000008000000B0
S1135AE00001000018000000000001000000000098
S1135AF019000000050000001A0000000200000068
S1135B001B000000050000002A0000000500000042
S1135B10280000000E000000290000000100000021
S1135B20560000001C000000320000002A000000A3
S1135B302B000000140000002C00000014000000E2
S1135B402D000000140000002E00000014000000CE
S1135B503F0000000A000000400000000A000000AE
S1135B60410000000A000000420000000A0000009A
S1135B70310000000B000000450000000B00000095
S1135B80460000000B000000470000000B0000006E
S1135B90440000000B000000300000000B00000077
S1135BA03D0000000B000000430000000B0000005B
S1135BB0490000000B0000004A0000000B00000038
S1135BC04B0000000B000000480000000B00000028
S1135BD00A00000001000000000000000B000000AB
S1135BE001000000000000000C00000001000000A3
S1135BF0000000000D000000010000000000000093
S1135C000E00000001000000000000000F00000072
S1135C10010000000000000010000000020000006D
S1135C20000000001100000004000000000000005B
S1135C301D00000001000000000000001E00000024
S1135C4008000000000000001F0000000100000028
S1135C50000000002100000001000000000000001E
S1135C6022000000010000000000000023000000EA
S1135C7001000000000000002500000004000000F6
S1135C8000000000260000000400000000000000E6
S1135C9027000000040000000000000032000000A3
S1135CA001000000000000004800000001000000A6
S1135CB00100000056000000010000000100000087
S1135CC057000000000000005700000057000000CB
S1135CD000000000000000000000000014000000AC
S1135CE00000000015000000000000001600000085
S1135CF000000000170000000080000012000000F7
S1135D00010000001300000001000000300000004A
S1135D10010000003100000001000000320000001A
S1135D200100000033000000010000003400000006
S1135D3001000000350000000100000036000000F2
S1135D4001000000370000000100000038000000DE
S1135D500100000039000000010000003A000000CA
S1135D60010000003B000000010000003C000000B6
S1135D70010000003D000000010000003E000000A2
S1135D80010000003F00000001000000400000008E
S1135D90010000004100000001000000420000007A
S1135DA00100000043000000010000004400000066
S1135DB00100000045000000010000004600000052
S1135DC0010000004700000001000000480000003E
S1135DD00100000049000000010000004A0000002A
S1135DE0010000004B000000010000004C00000016
S1135DF0010000004D000000010000004E00000002
S1135E00010000004F0000000100000050000000ED
S1135E1001000000510000000100000052000000D9
S1135E2001000000530000000100000054000000C5
S1135E3001000000550000000100000057000000B0
S1135E4000000000000000005700000000000000F7
S1135E5057000000000000000000000000000000E7
S1135E6000000000000000000000000057000000D7
S1135E70000000000000000001000000000000001D
S1135E80FF01000003000000010000000100000009
S1135E9002000000010000000000000000000000FB
S1135EA000000000000000000400000002000000E8
S1135EB0B85E0000415A0000000000000C00000021
S1135EC001000000010000000100000001000000CA
S1135ED059000000D85E000000000000000000002F
S1135EE0CD0500000100000000000000CD05000009
S1135EF00200000000000000CD05000003000000C7
S1135F0000000000CD0500000400000000000000B7
S1135F10CD0500000500000000000000CD050000D4
S1135F200600000000000000CD050000070000008E
S1135F3000000000CD050000080000000000000083
S1135F40CD0500000900000000000000CD050000A0
S1135F500A00000000000000CD0500000B00000056
S1135F6000000000CD0500000C000000000000004F
S1135F70CD0500000D00000000000000CD0500006C
S1135F800E00000000000000CD0500000F0000001E
S1135F9000000000CD05000010000000000000001B
S1135FA0CD0500001100000000000000CD05000038
S1135FB01200000000000000CD05000013000000E6
S1135FC000000000CD0500001400000000000000E7
S1135FD0CD0500001500000000000000CD05000004
S1135FE01600000000000000CD05000017000000AE
S1135FF000000000CD0500001800000000000000B3
S1136000CD0500001900000000000000CD050000CF
S11360101A00000000000000CD0500001B00000075
S113602000000000CD0500001C000000000000007E
S1136030CD0500001F00000000000000CD05000099
S11360402100000000000000CD0500002300000036
S113605000000000CD050000270000000000000043
S1136060CD0500002800000000000000CD05000060
