S01700006F70656E626C745F7333326B3134342E73726563DE
S113000000700020310500009905000099050000EA
S11300109905000099050000990500000000000002
S1130020000000000000000000000000990500002E
S113003099050000000000009905000099050000E2
S11300409905000099050000990500009905000034
S11300509905000099050000990500009905000024
S11300609905000099050000990500009905000014
S11300709905000099050000990500009905000004
S11303F0990500009905000099050000FFFFFFFF23
S1130400FFFFFFFFFFFFFFFFFFFFFFFFFE7FFFFF79
S1130410044B05481B1A062B02D9044B03B1184799
S1130420704700BF6F84FF1F6C84FF1F0000000033
S113043005490648091A891001EBD171491002D007
S1130440034B03B1184770476C84FF1F6C84FF1F74
S11304500000000010B5064C237843B9FFF7D8FF1D
S1130460044B13B10448AFF300800123237010BD83
S11304700000002000000000F02A000008B5084B2E
S11304801BB108490848AFF300800848036813B952
S1130490BDE80840CCE7064B002BF9D09847F7E7B6
S11304A00000000004000020F02A00006884FF1F00
S11304B000000000A3F5803A704700BF174B002BE3
S11304C008BF134B9D46FFF7F5FF00218B460F46EF
S11304D01348144A121A02F0E5F90E4B002B00D00F
S11304E098470D4B002B00D09847002000210400B2
S11304F00D000D48002802D00C48AFF3008002F034
S1130500ADF92000290000F0CFF802F093F900BF04
S1130510000008000000000000000000007000203F
S113052000000020EC090020000000000000000092
S113053072B64FF000014FF000024FF000034FF08D
S113054000044FF000054FF000064FF00007B846D6
S1130550B946BA46BB46BC460A490B4A521A013A46
S113056005DD0020042308601944043AFBDA074837
S11305708546074880470748804762B6FFF79EFFD5
S1130580FEE700000080FF1F0070002000700020C4
S1130590C125000009270000FFF7FEBF80B500AFAA
S11305A0064B1B6903F48053002B01D0002302E0A7
S11305B000F06AF80123184680BD00BF80F00F40A8
S11305C080B500AF4FF47A7000F008F800BF80BD2A
S11305D080B500AF00F026F800BF80BD80B483B0C2
S11305E000AF0346FB800C4B4FF48072DA630B4A76
S11305F00A4B5B6943F400435361084A074B5B6849
S113060043F400435360064AFB88138000BF0C3751
S1130610BD465DF8047B704700C00440C0F00F4045
S11306201C00002080B500AF01F038FA0246124BDE
S11306301B689A421ED3114B1B78002B09D10F4B18
S113064001221A700E4A0E4B9B6843F400439360D8
S113065008E00A4B00221A70094A094B5B6843F40C
S11306600043536001F01AFA0246064B1B881344F8
S1130670014A136000BF80BD200000202400002038
S1130680C0F00F401C00002080B400AF054A054BA9
S11306905B6843F00103536000BFBD465DF8047B13
S11306A0704700BFC0F00F4080B582B000AF00F0CB
S11306B01FF801F04BFA01F0F1F9786004E001F061
S11306C055FA01F0EBF9786001F0E8F902467B682D
S11306D0D31A41F287329342F1D94FF480431A6816
S11306E044F204031B681946104600F0C3F8FEE701
S11306F080B500AF00F07EF83A4A3A4BD3F8243183
S113070043F08043C2F82431364A364BD3F82C31B7
S113071043F08043C2F82C31324A324BD3F83031A3
S113072043F08043C2F830312E4A2E4BD3F8343193
S113073043F08043C2F834312B4A2B4B1B6B43F4F8
S113074080731363284A284B1B6B23F00203136343
S1130750264A264B5B6923F480535361234A234B77
S11307609B6923F4805393611F4A1F4B5B6B43F4D3
S1130770807353631C4A1C4B5B6B23F0020353636B
S11307801A4A1A4B5B6923F400535361174A174BF7
S11307909B6923F400539361134A134B1B6A43F47C
S11307A000731362104A104B5B6A43F40073536284
S11307B00F4A0F4B1B6B43F4407313630C4A0C4BEF
S11307C05B6B43F440735363074A074B9B6943F4E1
S11307D000739361044A044BDB6943F40073D361EF
S11307E000BF80BD0050064000B0044080F00F40C0
S11307F00090044080B500AF1C4B40F20112C3F8D6
S113080004221A4B0122C3F80822184B0722C3F80A
S1130810002200BF154BD3F8003203F08073002B85
S1130820F8D0124B40F20112C3F804230F4B0022FC
S1130830C3F808220D4B0922C3F8002200BF0B4B5A
S1130840D3F8003303F08073002BF8D0074B084A29
S11308505A6100BF054B1B691B0E03F00F03032BEA
S1130860F8D101F0D9FE00BF80BD00BF00400640B2
S11308700100000380B483B000AF786039607B6806
S1130880B3F1FF3F0BD080F3088880F309884FF061
S1130890E0234FF48042C3F8082D8F4600E000BFE8
S11308A00C37BD465DF8047B704780B400AF72B668
S11308B000BFBD465DF8047B704780B400AF62B6EC
S11308C000BFBD465DF8047B7047000080B582B070
S11308D000AF174B1B68002B03DADE21154801F02B
S11308E0E7F8134A124B1B6843F080431360104A25
S11308F00F4B1B6843F08053136001F0CFF803469D
S1130900FA337B6007E001F01CFA01F0C7F80246F5
S11309107B689A4206D8064B1B6803F08073002B51
S1130920F1D000E000BF00BF0837BD4680BD00BF66
S113093000500240C028000080B582B000AF174BC1
S11309401B68002B03DAFE21154801F0B1F8134AA5
S1130950124B1B6823F080431360104A0F4B1B6833
S113096023F08053136001F099F80346FA337B6057
S113097007E001F0E6F901F091F802467B689A423B
S113098006D8064B1B6803F08073002BF1D100E0FE
S113099000BF00BF0837BD4680BD00BF0050024005
S11309A0C028000080B582B000AF124B1B68002B3A
S11309B01BDB104A0F4B1B6843F00043136001F02C
S11309C06DF80346FA337B6007E001F0BAF901F0F1
S11309D065F802467B689A4206D8064B1B6803F406
S11309E08013002BF1D000E000BF00BF0837BD46E4
S11309F080BD00BF0050024080B582B000AF124BF2
S1130A001B68002B1BDA104A0F4B1B6823F00043B2
S1130A10136001F043F80346FA337B6007E001F00A
S1130A2090F901F03BF802467B689A4206D8064BDF
S1130A301B6803F48013002BF1D100E000BF00BF5A
S1130A400837BD4680BD00BF0050024080B586B067
S1130A5000AF0023BB8200237B6040F267633B61ED
S1130A607B4A7B4BD3F8943043F08043C2F89430F4
S1130A70FFF7C2FFFFF72AFFFFF794FF754A754B94
S1130A805B6843F400535360FFF7B6FFFFF71EFFA4
S1130A900623BB8210233B7106237B710523BB71A4
S1130AA00423FB716B496B4B5A684FF67873134000
S1130AB04B606849674B5A68BB8A013B1B0613436A
S1130AC04B606449634B5A687B79013B03F007032D
S1130AD013434B605F495F4B5A68BB79013BDB04AE
S1130AE003F4601313434B605A495A4B5A68FB7919
S1130AF0013B1B0403F4E02313434B60BB79042B39
S1130B0028BF0423FB735349524B5A68FB7B013BB8
S1130B109B0503F4400313434B604E4A4D4B5B6803
S1130B2043F0800353600023FB8208E0494AFB8AB8
S1130B302033002142F82310FB8A0133FB82FB8A15
S1130B403F2BF3D90023FB8209E0424AFB8A03F5D9
S1130B500873002142F82310FB8A0133FB82FB8ACD
S1130B600F2BF2D93B4A3B4B1B6823F07F0343F026
S1130B700F031360374A374B1B6843F40033136089
S1130B80344A344B1B6843F480331360314A314B8D
S1130B901B6823F0005313602E4B6FF02042C3F800
S1130BA0A4282C4B4FF08062C3F810213B69002B22
S1130BB012DA3B6923F000433B61264A254BD3F804
S1130BC0103143F40013C2F81031224A3B6923F078
S1130BD06043C2F8143106E01E4A3B699B0423F0CB
S1130BE06043C2F814311B4B00229A62194B4FF038
S1130BF0FF321A63174B184A1A62164A154B1B68C0
S1130C0023F400031360134A124B5B6823F48053EC
S1130C1023F008035360FFF78FFE00F03FFF034605
S1130C20FA33BB6007E001F08CF800F037FF0246AE
S1130C30BB689A4206D8074B1B6803F00063002B7D
S1130C40F1D100E000BF00BF1837BD4680BD00BF32
S1130C50005006400050024006003B0080B588B0BA
S1130C6000AF78600B46FB700023FB7740F2E17322
S1130C70BB61BB69002B05DABB6923F00043BB6190
S1130C800123FB77404B4FF480721A633E4A3E4B7C
S1130C90D3F8003123F06043C2F800313A4A3A4BAA
S1130CA0D3F8003123F44013C2F80031364A364BEE
S1130CB0D3F8003143F48003C2F80031324A324B96
S1130CC0D3F8003123F47023C2F800312E492E4B9F
S1130CD0D3F80021FB781B0403F470231343C1F8F9
S1130CE000312A4B3B610023FB750EE0FB7D83F052
S1130CF00303DBB21A463B691344FA7D79680A445C
S1130D0012781A70FB7D0133FB75FA7DFB789A42E9
S1130D10ECD3FB7F002B07D11B4ABB699B0423F058
S1130D206043C2F804310DE0174A174BD3F8003181
S1130D3043F40013C2F80031134ABB6923F0604343
S1130D40C2F80431104A104BD3F8003143F0406329
S1130D50C2F8003100F0A2FE03463233FB6007E024
S1130D6000F0EFFF00F09AFE0246FB689A4206D8B4
S1130D70054B1B6B03F48073002BF1D000E000BF24
S1130D8000BF2037BD4680BD0050024008510240DC
S1130D9080B485B000AF786039600023FB731D4BCD
S1130DA01B6B03F40073002B2CD01A4BD3F81031B7
S1130DB01B0CDBB203F00F03DAB23B681A70164B5C
S1130DC0BB600023BB730EE0BB7B7A681344BA7B21
S1130DD082F00302D2B21146BA680A4412781A7039
S1130DE0BB7B0133BB733B681B78BA7B9A42EBD362
S1130DF0084B4FF400721A63064B9B68074A136052
S1130E000123FB73FB7B18461437BD465DF8047B56
S1130E10704700BF005002401851024028000020D3
S1130E2080B500AFFFF741FD00BF80BD90B583B032
S1130E3000AF00F03DFC0346002B1ED0FFF7AEFBD5
S1130E400346002B1BD000F0DBFE00F0D5FD4FF075
S1130E50E02400F034FC034623F0604323F07F03D6
S1130E60C4F8083DFFF729FD00F029FC03460433CC
S1130E701B687B607B68984702E000BF00E000BF0E
S1130E800C37BD4690BD80B586B000AFF860B96040
S1130E901346FB80BB687B61FB683B6109E03B69EF
S1130EA05A1C3A617A69511C796112781A7000F0FF
S1130EB048FFFB885A1EFA80002BF0D100BF183778
S1130EC0BD4680BD80B400AF064B4FF0FF321A60C0
S1130ED0054B4FF0FF321A6000BFBD465DF8047B3E
S1130EE0704700BF2C0000203004002080B586B07D
S1130EF000AFF860B9607A600123FB75BB685A1EC5
S1130F004FF4F0214FF400431944FB685B420B4457
S1130F10013B9A4201D90023FB75FB7D012B11D1C2
S1130F20F86800F065FB0346FF2B09D0FA68BB683C
S1130F301344013B184600F05BFB0346FF2B01D131
S1130F400023FB75FB7D012B1BD1FB6823F47F730E
S1130F5023F003033B614FF400523B699A4208D1EA
S1130F60BB687A68F968094800F094F90346FB7590
S1130F7007E0BB687A68F968054800F08BF9034616
S1130F80FB75FB7D18461837BD4680BD3004002034
S1130F902C00002080B584B000AF78603960012354
S1130FA0FB733B685A1E4FF4F0214FF4004319447D
S1130FB07B685B420B44013B9A4201D90023FB73DB
S1130FC0FB7B012B15D1786800F012FB0346BB7341
S1130FD07A683B681344013B184600F009FB03465A
S1130FE07B73BB7BFF2B02D07B7BFF2B01D10023C8
S1130FF0FB73FB7B012B07D17A7BBB7B1146184625
S113100000F056FA0346FB73FB7B18461037BD46C7
S113101080BD000080B582B000AF0123FB710023C6
S11310203B60204B1B68B3F1FF3F36D0FB79012BAB
S113103033D11D4B1A683B6813443B601B4B1A6841
S11310403B6813443B601A4B1A683B6813443B608B
S1131050184B1A683B6813443B60174B1A683B688B
S113106013443B60154B1A683B6813443B60144BB4
S11310701A683B6813443B603B68DB433B603B6856
S113108001333B604FF4005303F57E733A46042169
S11310901846FFF72BFF0346FB71FB791846083708
S11310A0BD4680BD300400203404002038040020F4
S11310B03C04002040040020440400204804002094
S11310C04C04002080B483B000AF0123FB710023E3
S11310D03B604FF400531B683A6813443B604FF481
S11310E0005304331B683A6813443B604FF40053C5
S11310F008331B683A6813443B604FF400530C33C5
S11311001B683A6813443B604FF4005310331B6868
S11311103A6813443B604FF4005314331B683A6835
S113112013443B604FF4005318331B683A6813446C
S11311303B604FF4005303F57E731B683A68134415
S11311403B603B68002B01D00023FB71FB79184600
S11311500C37BD465DF8047B7047000080B582B053
S113116000AF0123FB71114B1B68B3F1FF3F07D0A4
S11311700E4800F0FBF80346002B01D10023FB715D
S1131180FB79012B0CD10A4B1B68B3F1FF3F07D04D
S1131190074800F0EBF80346002B01D10023FB7154
S11311A0FB7918460837BD4680BD00BF30040020D7
S11311B02C00002080B483B000AF4FF400537B6058
S11311C07B6818460C37BD465DF8047B704780B5D4
S11311D084B000AF786039600123FB733B68C3F3CC
S11311E00903002B01D00023FB73FB7B012B0FD1E0
S11311F07B681A683B689A420AD07B683A681A602E
S11312007B6804334FF4806239681846FFF73BFE6D
S1131210FB7B18461037BD4680BD000080B584B006
S113122000AF786039600023FB607B68174A934203
S113123004D1174B7B607B68FB6016E04FF40052CF
S11312403B689A4207D1114B7B604FF400533B60DB
S11312507B68FB6009E07B68FB60786800F086F8D7
S11312600346002B01D10023FB60FB68002B08D050
S113127039687868FFF7ABFF0346002B01D10023E0
S1131280FB60FB6818461037BD4680BD3004002063
S11312902C00002080B588B000AFF860B9607A6097
S11312A03B600123FB77BB6823F47F7323F00303C4
S11312B03B61FB681B68B3F1FF3F08D13969F868EB
S11312C0FFF785FF0346002B01D10023FB77FB7F4B
S11312D0012B0ED1FB681A683B699A4209D039691F
S11312E0F868FFF79BFFF860FB68002B01D100232F
S11312F0FB77FB7F012B33D1FB681B68BA68D31AD9
S1131300FA6813440433BB617B687B6100F019FD08
S1131310BB69FA6804329B1AB3F5806F10D33B693A
S113132003F580631946F868FFF778FFF860FB68F7
S1131330002B02D10023FB7712E0FB680433BB616E
S11313407B691A78BB691A70BB690133BB617B691D
S113135001337B613B68013B3B603B68002BD5D18B
S1131360FB7F18462037BD4680BD000080B588B09D
S113137000AF78600123FB770823BB757B681B688B
S1131380184600F035F90346FF2B01D10023FB7703
S1131390FB7F012B40F084800023BB6176E07B68F7
S11313A01A68BB7DB96901FB03F313443B61BB7D40
S11313B0BA6902FB03F37A6813440433FB6000F058
S11313C0C0FC3A4B1B78DBB25BB2002B02DB002380
S11313D0FB7765E0354B70221A70344B0722DA71C3
S11313E0324A3B691B0CDBB29371304A3B691B0ADE
S11313F0DBB253712D4B3A69D2B21A712B4AFB6896
S11314001B781372294AFB685B785372274AFB687E
S11314109B789372254AFB68DB78D372234AFB6876
S11314201B791373214AFB685B7953731F4AFB686A
S11314309B7993731D4AFB68DB79D37301F064FBDA
S11314401A4B1B78DBB203F07103002B02D000238C
S1131450FB7725E03B69BB600023FB750FE0FB7D58
S1131460BA6813441A78FB7DF9680B441B789A42D6
S113147002D00023FB7706E0FB7D0133FB75FA7D88
S1131480BB7D9A42EBD3BB690133BB61BB7D4FF497
S1131490806292FBF3F31A46BB699A423FF67FAF30
S11314A0FB7F18462037BD4680BD00BF00000240C8
S11314B080B588B000AF03460A46FB711346BB7182
S11314C00123FB77FA79BB799A4201D90023FB7790
S11314D0FB7F012B04D1BB79142B01D90023FB77AB
S11314E0FB7F012B7AD1FB79BB7771E000F029FCFB
S11314F0BA7F3D4913465B0013449B000B441B68B1
S1131500BB61BA7F384913465B0013449B000B440C
S113151004331B687B61BB69B3F1FF3F02D07B6975
S1131520002B02D10023FB7758E0BB69C3F30B0304
S1131530002B02D00023FB7750E07B69C3F30B033D
S1131540002B02D00023FB7748E07B691B0BFB7464
S113155000237B7732E000F0F4FB7B7F1A03BB6946
S11315601344FB60214B1B78DBB25BB2002B02DB24
S11315700023FB7726E01D4B70221A701B4B0922B7
S1131580DA711A4AFB681B0CDBB29371174AFB68C9
S11315901B0ADBB25371154BFA68D2B21A7101F00F
S11315A0B3FA124B1B78DBB203F07103002B02D0A9
S11315B00023FB7706E07B7F01337B777A7FFB7C1C
S11315C09A42C8D3FB7F002B07D0BB7F0133BB7784
S11315D0BA7FBB799A4289D900E000BFFB7F1846E5
S11315E02037BD4680BD00BFE42900000000024052
S11315F080B584B000AF7860FF23FB730023BB7316
S113160027E000F09EFBBA7B164913465B001344A7
S11316109B000B441A687B689A4217D8BA7B11491D
S113162013465B0013449B000B441968BA7B0D48B6
S113163013465B0013449B00034404331B68CA181D
S11316407B689A4202D9BB7BFB7305E0BB7B013309
S1131650BB73BB7B142BD4D9FB7B18461037BD4618
S113166080BD00BFE429000080B500AFFFF72AFC6D
S113167000BF80BD80B584B000AFF860B9607A6007
S11316807A68B968F868FFF731FC034618461037E2
S1131690BD4680BD80B582B000AF786039603968DE
S11316A07868FFF777FC034618460837BD4680BDC7
S11316B080B500AFFFF706FD0346184680BD80B530
S11316C000AFFFF777FD0346184680BD80B500AF35
S11316D0FFF7A0FC0346002B01D1002302E0FFF733
S11316E03DFD0346184680BD80B487B000AF3B4A39
S11316F03B1D92E8030083E80300394A384BD3F8D2
S1131700AC3123F08043C2F8AC31354A344BD3F8C2
S1131710AC3123F0E063C2F8AC31314A304BD3F83A
S1131720AC3143F08643C2F8AC312E4BD3F80433CA
S11317301B0A03F007037B617B69002B0CD1012397
S11317407B612849274BD3F804237B691B0203F4EC
S1131750E0631343C1F80433234B3B613A1D7B69B7
S113176013441B781A463B69B3FBF2F33B613B69B4
S11317701E4AA2FB0323DB0B02339B089BB2C3F379
S11317800C03FB811A4AFB89C3F30C0343F0407337
S113179043F400331361164B164A5A61144B00226A
S11317A09A61134B00221A62114B00225A62104BA9
S11317B04FF470329A620E4A0D4B9B6A43F08803D1
S11317C093620B4B0122DA62094B4FF440229A6177
S11317D000BF1C37BD465DF8047B70474C290000F0
S11317E00050064000400640006CDC02C5B3A291E4
S11317F000B0064000C01FC080B584B000AF786060
S11318000B46FB70FB78812B03D9C6210F4800F0EF
S11318104FF9FB78184600F09DF80023FB810BE09C
S113182000F08FFAFB897A6813441B78184600F09D
S113183091F8FB890133FB81FB789BB2FA899A42C8
S1131840EED300BF1037BD4680BD00BF5429000051
S113185080B582B000AF786039602B4B1B78002BC9
S113186019D12A4800F05AF80346012B46D1274BD8
S11318701B78002B42D0254B1B78812B3ED800F0DF
S11318800DF90246224B1A60224B00221A701E4B9D
S113189001221A7032E01F4B1B7801331B4A134498
S11318A0184600F03BF80346012B1CD1194B1B785A
S11318B00133DAB2174B1A70144B1A78154B1B7894
S11318C09A421BD178681449124B1B789BB21A4672
S11318D0FFF7D9FA0C4B00221A700E4B1A783B68AA
S11318E01A7001230BE000F0D9F80246084B1B687C
S11318F0C8339A4202D9044B00221A7000231846B6
S11319000837BD4680BD00BF3408002038080020D9
S1131910BC080020C00800203908002080B485B02D
S113192000AF78600023FB73094B5B6903F4001379
S1131930002B06D0064BDB69DAB27B681A700123F0
S1131940FB73FB7B18461437BD465DF8047B704778
S113195000B0064080B584B000AF0346FB710E4A68
S1131960FB79D36100F09AF803460A33FB6007E081
S113197000F0E7F900F092F80246FB689A4206D8B4
S1131980054B5B6903F40003002BF1D000E000BFBA
S113199000BF1037BD4680BD00B0064080B500AF23
S11319A000F02AF80E4B6FF07F425A600C4B002275
S11319B09A600B4B05221A600A4B1B680A4AA2FB69
S11319C003239B09094A1360094B00221A60044B44
S11319D09B6823F07F43074A136000BF80BD00BFAC
S11319E010E000E00484FF1FD34D6210CC080020F7
S11319F0C4080020C808002080B400AF064B0022B1
S1131A001A60054B00225A60034B00229A6000BF03
S1131A10BD465DF8047B704710E000E080B485B0FB
S1131A2000AF1A4B9B6823F07F43FB60184B1A6886
S1131A30FB68D31ABB60BB6823F07F43BB60154BC4
S1131A401B68BA689A421BD3124B1B68BA68B2FB74
S1131A50F3F37B60104B1A687B6813440E4A1360DF
S1131A600B4B1A680B4B1B68796801FB03F3D31A01
S1131A70074A1360064B1B6823F07F43044A136034
S1131A8000BF1437BD465DF8047B704710E000E0EA
S1131A90C8080020CC080020C408002080B500AF8E
S1131AA0FFF7BCFF014B1B68184680BDC40800202B
S1131AB080B582B000AF7860396000F042F9FCE78D
S1131AC080B500AF044B01221A7000F02DF800F02D
S1131AD005F800BF80BD00BFD008002080B500AF6E
S1131AE000F018F90346012B15D00C4B1B78012B81
S1131AF012D1FFF7D3FF0146094B1A68094B1B6843
S1131B00134403F5FA73994206D3044B00221A7066
S1131B10FFF78CF900E000BF80BD00BFD0080020B3
S1131B20D8080020D408002080B500AF054B1B78EE
S1131B30012B04D1FFF7B2FF0246034B1A6000BF2A
S1131B4080BD00BFD0080020D408002080B500AFBD
S1131B50FFF766F900F0EFF8FFF720FFFFF784FDC9
S1131B6000F010F8FFF7ACFF00BF80BD80B500AFF8
S1131B7000F0E7F8FFF752FF00F016F8FFF7AEFFAA
S1131B8000BF80BD80B500AF00F0E2F8FEF75EFF55
S1131B90044B02221A70FFF7A7FD024B00221A70B1
S1131BA000BF80BD0084FF1F80B582B000AFFB1D65
S1131BB019461148FFF7ECF80346012B07D10F4BE8
S1131BC002221A70FB7919460B4800F003F9FB1D39
S1131BD019460948FFF73CFE0346012B07D1074B82
S1131BE000221A70FB791946034800F0F3F800BF8D
S1131BF00837BD4680BD00BFDC0800200084FF1FFD
S1131C0080B400AF00BFBD465DF8047B70470000A0
S1131C1080B582B000AF78600B467B800C4B1B789C
S1131C20022B05D17B88DBB219467868FFF716F8DA
S1131C30074B1B78002B05D17B88DBB219467868EB
S1131C40FFF7DAFD00F0B8F800BF0837BD4680BDE5
S1131C500084FF1F80B483B000AF154B1B78042BA6
S1131C601BD801A252F823F07D1C0000831C000045
S1131C70891C00008F1C0000951C00008123FB8040
S1131C800EE00023FB800BE00823FB8008E0002328
S1131C90FB8005E00023FB8002E08123FB8000BF82
S1131CA0FB8818460C37BD465DF8047B704700BFBF
S1131CB00084FF1F80B483B000AF154B1B78042B46
S1131CC01BD801A252F823F0DD1C0000E31C000025
S1131CD0E91C0000EF1C0000F51C00008123FB80C0
S1131CE00EE00023FB800BE00823FB8008E00023C8
S1131CF0FB8005E00023FB8002E08123FB8000BF22
S1131D00FB8818460C37BD465DF8047B704700BF5E
S1131D100084FF1F80B582B000AF0023FB7100F088
S1131D2039F80346002B01D00123FB71FB791846D7
S1131D300837BD4680BD80B500AFFEF741FC00BF4B
S1131D4080BD80B500AFFEF743FC00BF80BD00003E
S1131D5080B400AF0E4B002283F881200C4B00228C
S1131D60C3F888200A4B002283F88420084B002201
S1131D70A3F88620064B002283F88320044B00221C
S1131D8083F8822000BFBD465DF8047B704700BF26
S1131D906009002080B400AF064B93F88130002B1B
S1131DA001D1002300E001231846BD465DF8047B01
S1131DB0704700BF6009002080B400AF044B0022CC
S1131DC083F8842000BFBD465DF8047B704700BFE4
S1131DD06009002080B582B000AF78600B46FB70CC
S1131DE07B681B78FF2B03D1786800F079F9B7E0A2
S1131DF06A4B93F88130012B40F0CB807B681B78D1
S1131E00C93B352B00F2A88001A252F823F000BF91
S1131E10291F0000591F0000591F0000511F000016
S1131E20591F0000591F0000491F0000311F000006
S1131E30411F0000391F0000591F0000591F0000F6
S1131E40591F0000591F0000591F0000591F0000AE
S1131E50591F0000591F0000591F0000591F00009E
S1131E60591F0000591F0000591F0000591F00008E
S1131E70591F0000591F0000591F0000591F00007E
S1131E80591F0000591F0000591F0000591F00006E
S1131E90591F0000591F0000591F0000591F00005E
S1131EA0591F0000591F0000591F0000591F00004E
S1131EB0591F0000591F0000011F0000F11E0000FF
S1131EC0E91E0000F91E0000591F0000591F000000
S1131ED0591F0000091F0000591F0000111F0000B6
S1131EE0191F0000211F0000786800F0C7F937E0CF
S1131EF0786800F001FA33E0786800F0A5F92FE083
S1131F00786800F041FA2BE0786800F075F927E072
S1131F10786800F065F923E0786800F03DF91FE087
S1131F20786800F021F91BE0786800F087FA17E080
S1131F30786800F0B3FA13E0786800F059FA0FE01B
S1131F40786800F0F7FA0BE0786800F019FB07E016
S1131F50786800F029FB03E0202000F05FF800BF60
S1131F600E4B93F88430012B02D1102000F056F868
S1131F700A4BB3F98630002B0CDD084B012283F8A1
S1131F808420064BB3F986301946044800F008F85B
S1131F9000E000BF0837BD4680BD00BF60090020D7
S1131FA080B582B000AF78600B467B807B88194691
S1131FB07868FFF72DFE00BF0837BD4680BD80B5A9
S1131FC086B000AFF860B9607A600023FB7509E061
S1131FD0FB681A78FB7D1344FB75FB680133FB60D7
S1131FE0FFF7AFFEBB685A1EBA60002BF0D1FA7D32
S1131FF07B681A60012318461837BD4680BD00006F
S113200080B400AF044B002283F8822000BFBD4699
S11320105DF8047B704700BF6009002080B483B082
S113202000AF0346FB71084BFE221A70064AFB7987
S11320305370054B0222A3F8862000BF0C37BD461F
S11320405DF8047B704700BF6009002080B485B050
S113205000AF78600023FB607B681B781A46FB683E
S11320601343FB607B6801331B781B02FA6813433C
S1132070FB607B6802331B781B04FA681343FB6024
S11320807B6803331B781B06FA681343FB60FB6809
S113209018461437BD465DF8047B704780B483B09E
S11320A000AF786039607B68DAB23B681A703B68CD
S11320B001337A68120AD2B21A703B6802337A6822
S11320C0120CD2B21A703B6803337A68120ED2B281
S11320D01A7000BF0C37BD465DF8047B70470000E2
S11320E080B582B000AF7860FFF78AFF1D4B0122F4
S11320F083F881201B4BFF221A701A4B00225A705E
S1132100184B5B7843F01003DAB2164B5A70154B38
S113211000229A70134B9A78124B9A70FFF79AFD2B
S11321200346DAB20F4BDA70FFF7C4FD0346DAB2A6
S11321300C4B1A71FFF7BEFD03461B0A9BB2DAB2C1
S1132140084B5A71074B01229A71064B0122DA712E
S1132150044B0822A3F88620FFF786FA00BF08374D
S1132160BD4680BD6009002080B582B000AF7860B4
S1132170084B002283F88120FFF742FF054BFF2222
S11321801A70044B0122A3F8862000BF0837BD460D
S113219080BD00BF6009002080B483B000AF7860C8
S11321A00E4BFF221A700D4B00225A700B4B93F802
S11321B082200A4B9A70094B0022DA70074B0022E6
S11321C01A71064B00225A71044B0622A3F886208A
S11321D000BF0C37BD465DF8047B704760090020E2
S11321E080B582B000AF78600020FFF717FF00BF12
S11321F00837BD4680BD000080B584B000AF78606C
S11322000E4BFF221A700E4A0C4BC3F888200B4B5E
S113221000225A70094B00229A70084B0022DA708F
S11322200723FB600749F868FFF738FF034B0822D0
S1132230A3F8862000BF1037BD4680BD600900208A
S1132240E02A00006409002080B582B000AF786005
S1132250094BFF221A707B6804331846FFF7F6FE19
S11322600246054BC3F88820034B0122A3F88620BD
S113227000BF0837BD4680BD6009002090B585B019
S113228000AF78607B6801331B781C46FFF7E2FCE3
S11322900346013B9C4203DD2220FFF7BFFE24E0FE
S11322A07B6801331B78FB81114BBB60B868114B11
S11322B0D3F88830FA891946FEF7E5FD0D4BFF2265
S11322C01A700C4BD3F888307A68013212781344B0
S11322D0084AC2F888307B6801331B789BB201330B
S11322E09BB21AB2034BA3F886201437BD4690BDA7
S11322F0610900206009002090B585B000AF7860C6
S11323007B6801331B781C46FFF7A4FC0346013BA2
S11323109C4203DD2220FFF781FE2DE07B6804331D
S11323201846FFF793FE0246154BC3F888207B68D6
S113233001331B78FB81134BBB60B868104BD3F897
S11323408830FA891946FEF79EFD0D4BFF221A705C
S11323500B4BD3F888307A68013212781344084A58
S1132360C2F888307B6801331B789BB201339BB27F
S11323701AB2034BA3F886201437BD4690BD00BFA4
S1132380600900206109002080B586B000AF786044
S11323900023FB60144BFF221A707B680433184639
S11323A0FFF754FE7861104BD3F8883007F10C0224
S11323B079691846FFF703FE0346FB740A4AFB7C5F
S11323C05370FB6809491846FFF768FE064B002264
S11323D09A70054B0022DA70034B0822A3F886207A
S11323E000BF1837BD4680BD600900206409002085
S11323F080B582B000AF78600F4BFF221A700E4B8D
S113240000225A700C4B00229A70FFF723FC0346FB
S1132410DAB2094BDA70084B00221A71064B00221B
S11324205A71054B00229A71034B0722A3F88620A8
S113243000BF0837BD4680BD6009002090B583B059
S113244000AF7860144BD3F88840FFF703FC0346D1
S1132450013B19467B6801331A462046FFF70AF907
S11324600346002B03D13120FFF7D8FD11E00A4BBE
S1132470FF221A70FFF7EEFB03465A1E064BD3F8F1
S113248088301344044AC2F88830034B0122A3F86D
S113249086200C37BD4690BD6009002090B583B0FE
S11324A000AF78607B6801331B781C46FFF7D2FBD2
S11324B00346023B9C4203DD2220FFF7AFFD33E0DD
S11324C01B4BFF221A701A4B0122A3F886207B684B
S11324D001331B78002B08D1FFF7F8F80346002BD3
S11324E021D13120FFF79AFD1DE0114BD3F888006C
S11324F07B6801331B7819467B6802331A46FFF761
S1132500B9F80346002B03D13120FFF787FD0BE018
S1132510074BD3F888307A68013212781344044A9E
S1132520C2F8883000E000BF0C37BD4690BD00BF44
S11325306009002080B584B000AF78600F4BD3F8F9
S11325408830FB607B6804331846FFF77FFDB86072
S1132550B968F868FFF79EF80346002B03D13120D1
S1132560FFF75CFD06E0054BFF221A70034B0122C6
S1132570A3F886201037BD4680BD00BF6009002047
S113258080B582B000AF7860FEF750FC054BFF22A7
S11325901A70044B0122A3F8862000BF0837BD46F9
S11325A080BD00BF6009002080B582B000AF7860B4
S11325B03120FFF733FD00BF0837BD4680BD000062
S11325C080B400AF4FF0E0224FF0E023D3F8883D11
S11325D043F47003C2F8883D4FF0E0224FF0E0234B
S11325E0D3F8343F23F08043C2F8343F084B094A00
S11325F05A60074B5B68064B42F220121A60044B88
S11326004FF6FF729A6000BFBD465DF8047B7047C9
S11326100020054020C528D980B487B000AF00232E
S11326207B610123FB74344B1B691B0C03F00F0308
S11326300133FB60304B1B691B0E03F00F03013B9E
S1132640052B46D801A252F823F000BF65260000EE
S11326506B26000083260000D3260000D32600004A
S11326609B260000254B7B6137E0234BD3F80832CF
S113267003F00103BB60BB68002B2DD01F4B7B61B3
S11326802AE01D4BD3F8083303F00303BB601C4A54
S1132690BB6852F823307B611FE0184B7B61164BFB
S11326A0D3F808361B0A03F0070301337B60124B8F
S11326B0D3F808361B0C03F01F0310333B607B690F
S11326C03A6802FB03F27B685B00B2FBF3F37B61C5
S11326D003E00023FB7400E000BFFB7C002B05D06B
S11326E07A69FB68B2FBF3F3064A136000BF1C3738
S11326F0BD465DF8047B70470040064000127A0036
S1132700E82A00000484FF1F80B48FB000AF3A4B66
S11327103B633A4B3B623A4B7B613A4BFB623A4B2D
S1132720FB613A4B3B613A4BBB623A4BFB603A4B21
S11327307B623A4BBB613A4BBB6009E03B6A1A7857
S11327403B6B1A703B6B01333B633B6A01333B6267
S11327507A693B6A9A42F1D109E0FB691A78FB6A0B
S11327601A70FB6A0133FB62FB690133FB613A694E
S1132770FB699A42F1D105E0BB6A00221A70BB6A78
S11327800133BB62FA68BB6A9A42F5D109E0BB69BE
S11327901A787B6A1A70BB690133BB617B6A0133A7
S11327A07B62BA68BB699A42F1D10023FB711D4A6E
S11327B01D4B9A4216D000237B630AE01A4A7B6BB6
S11327C052F8232017497B6B41F823207B6B01339C
S11327D07B63164B9B087A6B9A42EFD3144B114AD6
S11327E01A6002E0124B104A1A6000BF3C37BD4623
S11327F05DF8047B704700BF0084FF1F202B00009E
S11328008C2B00006C84FF1F8C2B0000BC2B000061
S113281000000020EC09002000000020BC2B000078
S1132820BC2B00000080FF1F00000000000400001B
S113283008ED00E008B5074B044613B10021AFF3DF
S11328400080054B1868836A03B19847204600F05E
S113285031F800BF00000000EC2A000070B50D4EF6
S11328600D4CA41BA4100025A54209D10B4E0C4C01
S113287000F03EF9A41BA4100025A54205D170BDAB
S113288056F8253098470135EEE756F82530984735
S11328900135F2E7182B0000182B0000182B00005C
S11328A01C2B000002440346934200D1704703F8F6
S11328B0011BF9E7FEE700000001020408102040B4
S11328C0433A2F55736572732F526F68616E2F4FA1
S11328D06E6544726976652F446F63756D656E74B9
S11328E0732F47425F456C6563726F6E69637356FD
S11328F05F5333324B3134345F4175746F7361729B
S11329005F4D43414C2F426F6F746C6F616465720D
S1132910732F4732425F426F6F746C6F61646572EC
S1132920735F456C6563726F6E696373562F426F94
S11329306F742F636F72652F41524D434D345F5353
S113294033324B31342F63616E2E63000001020475
S113295008102040433A2F55736572732F526F68E5
S1132960616E2F4F6E6544726976652F446F63758F
S11329706D656E74732F47425F456C6563726F6E4D
S1132980696373565F5333324B3134345F4175742A
S11329906F7361725F4D43414C2F426F6F746C6F64
S11329A061646572732F4732425F426F6F746C6F5C
S11329B061646572735F456C6563726F6E6963739E
S11329C0562F426F6F742F636F72652F41524D43C0
S11329D04D345F5333324B31342F72733233322ED2
S11329E0630000000020000000100000020000004E
S11329F00030000000100000030000000040000050
S1132A00001000000400000000500000001000004E
S1132A100500000000600000001000000600000037
S1132A20007000000010000007000000008000009B
S1132A300080000008000000000001000080000089
S1132A400900000000800100008000000A0000006E
S1132A5000000200008000000B0000000080020063
S1132A60008000000C000000000003000080000053
S1132A700D00000000800300008000000E00000034
S1132A8000000400008000000F000000008004002B
S1132A90008000001000000000000500008000001D
S1132AA011000000008005000080000012000000FA
S1132AB000000600008000001300000000800600F3
S1132AC000800000140000000000070000800000E7
S1132AD015000000008007000080000016000000C0
S1132AE04F70656E424C5400006CDC020884FF1F7A
S1132AF0F8B500BFF8BC08BC9E467047F8B500BFE7
S1132B00F8BC08BC9E4670475FF800F06D84FF1F58
S10B2B10A4D9FF7F01000000BD
S1072B187D04000034
S1072B1C5504000058
S1132B2005000000006CDC02000000000000000052
S1132B300000000000000000000000000000000091
S1132B400000000000000000000000000000000081
S1132B500000000000000000000000000000000071
S1132B600000000000000000000000000000000061
S1132B700000000000000000000000000000000051
S10F2B8000000000000000000000000045
S1132B8C80B400AF094A094B1B78DBB263F07F03B6
S1132B9CDBB2137000BF054B1B78DBB25BB2002BAE
S1132BACF9DA00BFBD465DF8047B704700000240B3
S9030531C6
