S01700006F70656E626C745F7333326B3134342E73726563DE
S113000000700020310500009905000099050000EA
S11300109905000099050000990500000000000002
S1130020000000000000000000000000990500002E
S113003099050000000000009905000099050000E2
S11300409905000099050000990500009905000034
S11300509905000099050000990500009905000024
S11300609905000099050000990500009905000014
S11300709905000099050000990500009905000004
S11303F0990500009905000099050000FFFFFFFF23
S1130400FFFFFFFFFFFFFFFFFFFFFFFFFE7FFFFF79
S1130410044B05481B1A062B02D9044B03B1184799
S1130420704700BF6F84FF1F6C84FF1F0000000033
S113043005490648091A891001EBD171491002D007
S1130440034B03B1184770476C84FF1F6C84FF1F74
S11304500000000010B5064C237843B9FFF7D8FF1D
S1130460044B13B10448AFF300800123237010BD83
S11304700000002000000000241D000008B5084B07
S11304801BB108490848AFF300800848036813B952
S1130490BDE80840CCE7064B002BF9D09847F7E7B6
S11304A00000000004000020241D00006884FF1FD9
S11304B000000000A3F5803A704700BF174B002BE3
S11304C008BF134B9D46FFF7F5FF00218B460F46EF
S11304D01348144A121A01F03BFB0E4B002B00D0B8
S11304E098470D4B002B00D09847002000210400B2
S11304F00D000D48002802D00C48AFF3008001F035
S113050003FB2000290000F0C9F801F0E9FA00BF5C
S1130510000008000000000000000000007000203F
S113052000000020E009002000000000000000009E
S113053072B64FF000014FF000024FF000034FF08D
S113054000044FF000054FF000064FF00007B846D6
S1130550B946BA46BB46BC460A490B4A521A013A46
S113056005DD0020042308601944043AFBDA074837
S11305708546074880470748804762B6FFF79EFFD5
S1130580FEE700000080FF1F0070002000700020C4
S11305904D190000091A0000FFF7FEBF08B5054B0E
S11305A01B6913F4805F01D0002008BD00F050F8EF
S11305B0012008BD80F00F4008B54FF47A7000F0B8
S11305C005F808BD08B500F017F808BD4FF48072AF
S11305D0074BDA6303F53323C0335A6942F400420C
S11305E05A615A6842F400425A60024B18807047BC
S11305F000C004401C00002008B500F0D3FE104BDE
S11306001B68984211D30F4B1B787BB901220D4B09
S11306101A700D4A936843F40043936000F0C2FEDD
S11306200A4B1B881844064B186008BD0022054B72
S11306301A70054A536843F400435360EEE700BF61
S1130640200000201E000020C0F00F401C000020ED
S1130650024A536843F0010353607047C0F00F40EF
S1130660B0F1FF3F0AD080F3088880F309884FF483
S113067000524FF0E023C3F8082D8F467047B0F1C5
S1130680FF3F0AD080F3088880F309884FF4804242
S11306904FF0E023C3F8082D8F46704708B55C4B34
S11306A040F20112C3F804212422C3F80821D3F82C
S11306B0002112F4000FFAD10122554BC3F8002196
S11306C0D3F8002112F0807FFAD0514BD3F80026E2
S11306D012F4000FFAD14E4BD3F8002622F0010297
S11306E0C3F80026D3F8042642F4407242F0020212
S11306F0C3F804264FF4C012C3F80826D3F8002622
S113070012F4000FFAD1424AD2F8003643F0010342
S1130710C2F800361346D3F8002612F0807FFAD0D0
S11307203B4B40F20112C3F804223A4A5A611A467A
S11307301369C3F30363062BFAD101F025F9364B91
S1130740D3F82C2142F08042C3F82C21D3F8302175
S113075042F08042C3F83021D3F8342142F0804281
S1130760C3F83421A3F5D0331A6B42F480721A63B0
S11307701A6B22F002021A63284A516921F480514B
S11307805161916921F480519161596B41F48071F7
S11307905963596B21F002015963516921F40051E5
S11307A05161916921F4005191611A6A42F4007215
S11307B01A625A6A42F400725A6203F500531A69C3
S11307C042F4A0621A615A6942F4A0625A6100F0CC
S11307D033FE124C44F204064FF480450AE042F220
S11307E0040319684FF400531868FFF739FF01E058
S11307F000F030FE236913F4805FF0D0236913F412
S1130800005FF5D131682868FFF739FFF2E700BFD0
S113081000400640120001060050064080F00F40E0
S113082072B6704762B6704738B50D4B1B68002B23
S113083000DB38BD0A4A136823F00043136000F05C
S1130840B1FD00F1FA05064C236813F4801FF0D0C3
S113085000F08DFE00F0A6FD8542F5D2E9E700BF69
S11308600040024038B5114B1B68002B18DB0F4BBE
S11308701A6842F080421A601A6842F080521A6084
S113088000F090FD00F1FA05084C236813F0807F16
S113089005D100F06CFE00F085FD8542F5D238BD2F
S11308A0DE21034800F086FDE1E700BF004002407E
S11308B0641B000070B582B0914AD2F8903043F0C6
S11308C08043C2F89030FFF7AFFFFFF7CBFF8D4BAB
S11308D01B68002B13DB8B4A136843F0004313603F
S11308E000F060FD00F1FA05864C236813F4801FC4
S11308F005D100F03CFE00F055FD8542F5D2814A59
S1130900536823F400535360FFF78EFFFFF7AAFFE9
S113091000238DF8003001238DF8013002238DF877
S1130920023004238DF8033008238DF8043010239B
S11309308DF8053020238DF8063040238DF80730DC
S1130940714BD3F80431C3F302232BB94FF48072F3
S11309506D4BC3F80421012302AA134413F8083C85
S11309604FF4FA50B0FBF3F000221446674E4FF4F4
S1130970FA7502E00132122A1CD016F8223005FB67
S113098003F3B0FBF3F103FB11010029F2D1B0FB37
S1130990F3F39CB2631E9BB2FF2BEBD85B4B03EBD0
S11309A0820250789178D3780CE0FE21584800F008
S11309B001FD7CE040F28711554800F0FBFC00216A
S11309C008460B464F4A556825F087052D042D0C23
S11309D055605568013C45EA046454605468013824
S11309E000F00700204350605468481EC00400F41F
S11309F06010204350605068013B1B0403F4E02363
S1130A00034353605068042928BF04214B1E9B05EF
S1130A1003F4400303435360536843F0800353607B
S1130A2000231046194603F1200240F82210013336
S1130A30802BF8D100233348194603F5087240F897
S1130A4022100133202BF8D12E4B1A6822F07F029A
S1130A5042F01F021A601A6842F400321A601A68DF
S1130A6042F480321A601A6822F000521A606FF061
S1130A702042C3F8A4284FF08062C3F81021254A0D
S1130A80C3F8142100229A624FF0FF321A63224AFB
S1130A901A621A6822F400021A605A6822F4805218
S1130AA022F008025A601B68002BFFF67EAF154B3C
S1130AB01A6822F080421A601A6822F080521A6082
S1130AC000F070FC00F1FA050E4C236813F0807FEF
S1130AD005D000F04CFD00F065FC8542F5D200F035
S1130AE061FC00F1FA05074C236813F0006F05D090
S1130AF000F03DFD00F056FC8542F5D202B070BD19
S1130B000050064000400240004006409C1B00008C
S1130B10641B000000009C1906003B0038B5264BFE
S1130B204FF480721A63D3F8002122F06042C3F8B4
S1130B300021D3F8002122F44012C3F80021D3F895
S1130B40002142F48002C3F80021D3F8002122F4EA
S1130B507022C3F80021D3F800410A0402F4702281
S1130B602243C3F8002161B101380023134D10F86A
S1130B70014F83F00302D2B254550133DAB29142E9
S1130B80F5D80D4B0E4AC3F80421D3F8002142F0E6
S1130B904062C3F8002100F005FC00F13205064C68
S1130BA0236B13F4807F05D100F0E1FC00F0FAFB25
S1130BB08542F5D238BD00BF0040024008410240E2
S1130BC00000841F124B1B6B13F4007F1DD010B464
S1130BD00F4BD3F81031C3F303430B7053B100230D
S1130BE00C4C83F00302125DC2540133DBB20A7869
S1130BF09A42F6D8064B4FF400721A639A68064B71
S1130C001A6001205DF8044B70470020704700BF54
S1130C1000400240184102402400002008B5FFF7BC
S1130C20FFFD08BD08B500F05AFA00B908BDFFF78A
S1130C30B5FC0028FAD000F051FC00F05FFB00F096
S1130C4052FA20F0604020F07F004FF0E023C3F818
S1130C50080DFFF7E7FD00F046FA43689847E5E71B
S1130C6072B170B50D46531E9BB2441E1E1815F882
S1130C70013B04F8013F00F07AFCB442F7D170BDA7
S1130C8070470000F8B506460A4D002403E001341D
S1130C900C35152C0AD0E7B200F069FC2B68B3427E
S1130CA0F5D86A6813449E42F1D200E0FF27384623
S1130CB0F8BD00BFE41B00002DE9F04F83B081466E
S1130CC00068FFF7DFFFFF2805D100230193019897
S1130CD003B0BDE8F08FCA4609F5806B4E46012388
S1130CE00193284D07E00023019301E000230193C1
S1130CF008365E45EBD0A6EB0A08D9F8007008EB7D
S1130D00070400F034FC2B7813F0800F33D04FF03D
S1130D1070032B704FF00703EB71C4F30743AB71FF
S1130D20C4F307236B71E3B22B7133792B7273799C
S1130D306B72B379AB72F379EB72337A2B73737A88
S1130D406B73B37AAB73F37AEB7300F0F9FF2B7820
S1130D5013F0710F12D118F8072033799A42C2D1D7
S1130D60331DE01D14F8011F13F8012F9142BDD16A
S1130D708442F7D1BCE700230193A8E70023019341
S1130D80A5E700BF0000024038B50D46114B98425C
S1130D900BD00446B1F5005F09D0FFF78DFF10B109
S1130DA034B9204638BD002038BD0B4C00E0094C56
S1130DB0C5F3090363B923689D4207D0204640F870
S1130DC0045B4FF480622946FFF74AFF204638BD92
S1130DD0002038BD2C040020280000202DE9F0411B
S1130DE006460C4617461D4621F47F7828F0030872
S1130DF00368B3F1FF3F0BD03368984510D04146E8
S1130E003046FFF7C1FF064650B90020BDE8F08127
S1130E1040F8048B4FF480624146FFF721FFEBE773
S1130E2004343368E41A344408F5806805E017F89C
S1130E30013B04F8013B013D0ED000F098FB331D4B
S1130E40E31AB3F5806FF2D341463046FFF79CFFB7
S1130E50064620B1041DEAE70120BDE8F081002028
S1130E60BDE8F0814FF0FF33024A1360024A136079
S1130E70704700BF280000202C04002070B54B1ED2
S1130E80C0F5FF2404F2FF74A34201D9002070BD11
S1130E9016460D460446FFF7F5FEFF28F6D0601E01
S1130EA02844FFF7EFFEFF28F0D024F47F7323F0EB
S1130EB00303B3F5005F06D02B46324621460548AE
S1130EC0FFF78CFF70BD2B46324621460248FFF7E0
S1130ED085FF70BD280000202C0400204A1EC0F5A8
S1130EE0FF2303F2FF739A4201D9002070472DE9D2
S1130EF0F0470D460446FFF7C5FE0646601E28442B
S1130F00FFF7C0FEFF2E66D0FF2864D0864202D9C8
S1130F100020BDE8F08714284ED8324A06EB460973
S1130F2002EB8909711C831B51FA83F303EB43031E
S1130F3002EB830A2C4C4FF0700803E009F10C0912
S1130F40CA4536D000F013FBD9F80050D9F8043064
S1130F50B5F1FF3F33D0ABB3C5F30B02AABBC3F368
S1130F600B02AABBC3F30733002BE7D0013BDBB270
S1130F7005F5805606EB0336092700F0F8FA2378C6
S1130F8013F0800F2AD084F80080E771C5F307437B
S1130F90A371C5F307236371EBB2237100F0D0FE94
S1130FA0237813F0710F19D105F58055AE42E4D1C1
S1130FB0C4E70120BDE8F0870020BDE8F0870020E9
S1130FC0BDE8F0870020BDE8F0870020BDE8F08789
S1130FD00020BDE8F0870020BDE8F0870020BDE8D0
S1130FE0F08700BFE41B000000000240114B1B68A7
S1130FF0B3F1FF3F1BD000B583B00E4A536891682C
S11310000B44D1680B4411690B4451690B44916939
S11310100B44D26913445B4202AA42F8043D042102
S113102042F2F830FFF72AFF03B05DF804FB012019
S1131030704700BF2C0400204FF400531B6842F299
S113104004021268134442F208021268134442F282
S11310500C021268134442F210021268134442F262
S113106014021268134442F218021268134442F242
S1131070F8321268D3420CBF0120002070470000F0
S113108008B50D4B1B68B3F1FF3F06D00A48FFF7C4
S113109013FE034608B9184608BD084B1B68B3F194
S11310A0FF3F06D00548FFF707FE031C18BF0123C6
S11310B0F1E70123EFE700BF2C0400202800002003
S11310C04FF40050704708B5FFF7CCFE08BD08B5D3
S11310D0FFF7D4FE08BD08B5FFF700FF08BD08B54B
S11310E0FFF7AAFF08BD08B5FFF7EAFF08BD08B57A
S11310F0FFF77CFF034608B9184608BDFFF7C0FF99
S11311000346F9E738B5094BD86100F04BF900F113
S11311100A05064C636913F4000F05D100F027FAA1
S113112000F040F98542F5D238BD00BF00B006405A
S113113082B000238DF8003001238DF801300223A2
S11311408DF8023004238DF8033008238DF8043021
S113115010238DF8053020238DF8063040238DF8B8
S11311600730254BD3F8AC2122F08042C3F8AC21E0
S1131170D3F8AC2122F0E062C3F8AC21D3F8AC215F
S113118042F08642C3F8AC21A3F58053D3F804336C
S1131190C3F302233BB9194AD2F8043343F48073EE
S11311A0C2F80433012302AA134413F8082C144B85
S11311B0B3FBF2F3134AA2FB0323DB0B0233C3F3A7
S11311C08C0343F0407343F400330F4A13610F4B15
S11311D0536100239361136253624FF4703393623B
S11311E0936A43F0880393620123D3624FF440234C
S11311F0936102B0704700BF0050064000400640B3
S1131200006CDC02C5B3A29100B0064000C01FC050
S113121070B506460D46812911D82846FFF772FF9E
S1131220ADB25DB1741E013D16FA85F500F09FF96B
S113123014F8010FFFF766FFAC42F7D170BDC62169
S1131240014800F0B7F8E8E7E01C000070B5254B52
S11312501C78C4B9244B5B6913F4001F27D0224BBC
S1131260DB69DBB2214A1370013BDBB2802B1ED851
S113127000F098F81E4B186000221E4B1A700122D1
S1131280184B1A7013E00D46174B5B6913F4001FDB
S11312901AD018490A78144BDE69144B9C186670EE
S11312A00132D2B20A701B78934202D00024204645
S11312B070BD1149FFF7D4FC00220A4B1A700D4B84
S11312C01B782B700124F2E700F06CF8084B1B68C4
S11312D0C833984203D90024024B1C70E7E700246A
S11312E0E5E700BFB208002000B006403008002047
S11312F0B4080020B308002031080020024B00226B
S11313001A605A609A60704710E000E008B5FFF771
S1131310F5FF0C4A6FF07F43536000219160052371
S11313201360094B1B680948A0FB03039B09084889
S11313300360084B1960936823F07F43064A1360E7
S113134008BD00BF10E000E00484FF1FD34D62100D
S1131350B8080020C0080020BC0800200D4B9B6882
S11313600D4A1168CB1A23F07F430C4A126893424A
S11313700ED310B4B3FBF2F3094C20681844206078
S113138003FB121323F07F43034A13605DF8044BFD
S1131390704700BF10E000E0BC080020B80800203F
S11313A0C008002008B5FFF7D9FF014B186808BD35
S11313B0C008002008B500F0DAF8FCE708B500F032
S11313C0CBF8012803D00B4B1B78012B00D008BDB0
S11313D0FFF7E8FF084B1B68084A1268134403F53B
S11313E0FA739842F3D30022024B1A70FFF71AFCE7
S11313F0EDE700BFC8080020C4080020CC08002086
S113140008B5054B1B78012B00D008BDFFF7CAFFB8
S1131410024B1860F9E700BFC8080020CC08002080
S113142008B50122034B1A70FFF7EAFFFFF7C6FF66
S113143008BD00BFC808002008B5FFF7EFFB00F0A7
S113144092F8FFF763FFFFF73EFE00F00DF8FFF799
S1131450E7FF08BD08B500F08AF8FFF77FFF00F04A
S113146013F8FFF7ABFF08BD10B500F09BF8FFF7CA
S113147021FA044C02232370FFF75AFE0023237041
S113148010BD00BF0084FF1F00B583B00DF107013C
S11314901048FFF797FB012809D00DF107010D480B
S11314A0FFF7D4FE01280BD003B05DF804FB022241
S11314B0094B1A709DF80710064800F097F8ECE7FE
S11314C00022054B1A709DF80710024800F08EF8B0
S11314D0EAE700BFD00800200084FF1F7047000027
S11314E038B504460D46094B1B78022B05D0074B33
S11314F01B7833B100F072F838BDC9B2FFF70EFBA8
S1131500F5E7E9B22046FFF783FEF3E70084FF1F07
S1131510074B1B78013B032B07D8DFE803F00204D9
S1131520020200207047082070478120704700BFE6
S11315300084FF1F074B1B78013B032B07D8DFE810
S113154003F0020402020020704708207047812043
S1131550704700BF0084FF1F08B500F035F8003065
S113156018BF012008BD08B5FFF726F808BD08B567
S1131570FFF728F808BD0000034BFE221A705870CC
S11315800222A3F886207047540900204278837809
S11315901B0443EA022302781343C07843EA006041
S11315A070470000074B002283F88120C3F888208D
S11315B083F88420A3F8862083F8832083F882208C
S11315C0704700BF54090020034B93F8810000309A
S11315D018BF0120704700BF540900200022024BAD
S11315E083F88420704700BF5409002070B5037845
S11315F0FF2B06D00446BC4A92F88120012A29D048
S113160070BDB94C002384F88230012584F88150E0
S1131610FF22227010226270A370FFF779FFE0703E
S1131620FFF788FF2071FFF785FF000A6071A5713D
S1131630E5710823A4F88630FFF745FDAA4B93F81B
S11316408430012B00F07B81A74BB3F9861000296D
S1131650D6DD8FE0C93B352B00F26D81DFE813F056
S1131660E8006B016B0167016B016B015E01060110
S1131670480134016B016B016B016B016B016B0160
S11316806B016B016B016B016B016B016B016B01F6
S11316906B016B016B016B016B016B016B016B01E6
S11316A06B016B016B016B016B016B016B016B01D6
S11316B06B016B0192005400360076006B016B01E4
S11316C06B01B6006B01C900CD00DC004578FFF763
S11316D01FFF0138854213DC834D6278D5F88810EA
S11316E0681CFFF7BDFAFF232B706278D5F88830A9
S11316F01344C5F8883063780133A5F886309DE734
S11317002220FFF739FF99E74578FFF701FF0138F9
S1131710854217DC201DFFF739FF0146724DC5F8DD
S113172088006278681CFFF79BFAFF232B706278AD
S1131730D5F888301344C5F8883063780133A5F8A8
S113174086307BE72220FFF717FF77E7664DFF23FC
S11317502B700430FFF71AFFC5F888000123A5F8A1
S11317608630614B93F88430012B00F0E8805E4BA7
S1131770B3F986105C48012380F8843089B2FFF7FE
S1131780AFFE70BD584DFF232B700430FFF7FEFEF3
S1131790D5F888500646B8B12E44002415F8013B0C
S11317A01C44E4B2FFF7E3FEB542F7D14E4B0122ED
S11317B05A701C7100225A719A71DA719A70DA7037
S11317C00822A3F88620CCE70024EFE7464BFF224B
S11317D01A70464AC3F8882000225A709A70DA7048
S11317E0072119715A719A71DA710822A3F88620B7
S11317F0B7E70020FFF7C0FE20E73B4BFF221A703B
S113180000225A7093F882109970DA701A715A7122
S11318100622A3F88620A4E7334B002283F8812014
S113182083F88220FF221A700122A3F8862098E709
S11318302D4BD3F88850FFF76BFE621C411E2846DF
S1131840FFF745FC70B1284CFF232370FFF760FEBF
S11318500138D4F888300344C4F888300123A4F84C
S113186086307EE73120FFF787FEE7E64578FFF70D
S11318704FFE0238854210DC1B4BFF221A700122F6
S1131880A3F88620617861B9FFF731FC00287FF462
S1131890D5AE3120FFF770FED0E62220FFF76CFEB4
S11318A0CCE6A21C104BD3F88800FFF710FC38B12B
S11318B00D4A6178D2F888300B44C2F88830BDE60E
S11318C03120FFF759FEB9E6074CFF2323700025AA
S11318D06570A570FFF71CFEE07025716571A57138
S11318E00723A4F886303CE754090020181D0000A3
S11318F0154BD3F888500430FFF748FE01462846BC
S1131900FFF7E9FB30B1104BFF221A700122A3F854
S1131910862026E73120FFF72FFE8FE6FFF782F9B6
S1131920094BFF221A700122A3F8862019E73120FF
S1131930FFF722FE82E62020FFF71EFE7EE610203F
S1131940FFF71AFE80E600BF540900204FF0E023A1
S1131950D3F8882D42F47002C3F8882DD3F8342FBD
S113196022F08042C3F8342F054B064A5A605A6865
S113197042F220121A604FF6FF729A60704700BF5D
S11319800020054020C528D91B4B1A691B69C3F3E5
S11319900363013B052B2ED8DFE803F025030D2D4F
S11319A02D12154BD3F8083203F00103002B134911
S11319B018BF0B4618E0104BD3F80833104B13E054
S11319C00D4BD3F80816D3F80836C3F3044303F1D8
S11319D010000A4B03FB00F3C1F30221013149005B
S11319E0B3FBF1F300E0054BC2F303420132B3FB56
S11319F0F2F3044A136070470040064000127A0074
S1131A00006CDC020484FF1F264B274A9A4208D04C
S1131A1013462448254A13F8011B02F8011B984277
S1131A20F9D1234B234A9A4208D013462048224A2C
S1131A3013F8011B02F8011B8342F9D11F4B204A02
S1131A409A4206D0134600211C4A03F8011B934214
S1131A50FBD11C4B1C4A9A4208D0134619481B4A16
S1131A6013F8011B02F8011B8342F9D1184B194AE0
S1131A709A4212D010B4184CA40808D01946002376
S1131A8051F8040B42F8040B0133A342F8D1134B71
S1131A90104A1A605DF8044B7047104B0C4A1A60E8
S1131AA0704700BFC41D0000581D00000084FF1FC4
S1131AB0DC1D0000C41D00006C84FF1FE009002031
S1131AC000000020DC1D0000DC1D000000000020E0
S1131AD0000000000080FF1F0004000008ED00E08B
S1131AE008B5074B044613B10021AFF30080054B42
S1131AF01868836A03B19847204600F031F800BFA4
S1131B0000000000201D000070B50D4E0D4CA41BFC
S1131B10A4100025A54209D10B4E0C4C00F002F98B
S1131B20A41BA4100025A54205D170BD56F825308C
S1131B3098470135EEE756F8253098470135F2E726
S1131B40501D0000501D0000501D0000541D0000D9
S1131B5002440346934200D1704703F8011BF9E79E
S1131B60FEE70000443A2F6F70656E626C745F7616
S1131B703031313830302F5461726765742F536FB0
S1131B80757263652F41524D434D345F5333324B6D
S1131B9031342F63616E2E630000000008030202DB
S1131BA0090303020A0303030B0403030C040403E1
S1131BB00D0504030E0504040F06040410060504B1
S1131BC01107050412070505130805051408060581
S1131BD01508070516080706170808061808080751
S1131BE0190808080020000000100000020000008E
S1131BF0003000000010000003000000004000005E
S1131C00001000000400000000500000001000005C
S1131C100500000000600000001000000600000045
S1131C2000700000001000000700000000800000A9
S1131C300080000008000000000001000080000097
S1131C400900000000800100008000000A0000007C
S1131C5000000200008000000B0000000080020071
S1131C60008000000C000000000003000080000061
S1131C700D00000000800300008000000E00000042
S1131C8000000400008000000F0000000080040039
S1131C90008000001000000000000500008000002B
S1131CA01100000000800500008000001200000008
S1131CB00000060000800000130000000080060001
S1131CC000800000140000000000070000800000F5
S1131CD015000000008007000080000016000000CE
S1131CE0443A2F6F70656E626C745F7630313138B0
S1131CF030302F5461726765742F536F757263654A
S1131D002F41524D434D345F5333324B31342F7294
S1131D10733233322E6300004F70656E424C5400B0
S1131D200884FF1FF8B500BFF8BC08BC9E46704786
S1131D30F8B500BFF8BC08BC9E4670470000000020
S10B1D405FF800F06D84FF1F41
S10B1D486CE7FF7F01000000BD
S1071D507D0400000A
S1071D54550400002E
S1131D5805000000006CDC02000000000000000028
S1131D680000000000000000000000000000000067
S1131D780000000000000000000000000000000057
S1131D880000000000000000000000000000000047
S1131D980000000000000000000000000000000037
S1131DA80000000000000000000000000000000027
S10F1DB80000000000000000000000001B
S1131DC4044A137843F080031370137813F0800FDC
S10B1DD4FBD07047000002403F
S9030531C6
