S01700006F70656E626C745F7333326B3134342E73726563DE
S113000000700020310500009905000099050000EA
S11300109905000099050000990500000000000002
S1130020000000000000000000000000990500002E
S113003099050000000000009905000099050000E2
S11300409905000099050000990500009905000034
S11300509905000099050000990500009905000024
S11300609905000099050000990500009905000014
S11300709905000099050000990500009905000004
S11303F0990500009905000099050000FFFFFFFF23
S1130400FFFFFFFFFFFFFFFFFFFFFFFFFE7FFFFF79
S1130410044B05481B1A062B02D9044B03B1184799
S1130420704700BF6F84FF1F6C84FF1F0000000033
S113043005490648091A891001EBD171491002D007
S1130440034B03B1184770476C84FF1F6C84FF1F74
S11304500000000010B5064C237843B9FFF7D8FF1D
S1130460044B13B10448AFF300800123237010BD83
S113047000000020000000002817000008B5084B09
S11304801BB108490848AFF300800848036813B952
S1130490BDE80840CCE7064B002BF9D09847F7E7B6
S11304A00000000004000020281700006884FF1FDB
S11304B000000000A3F5803A704700BF174B002BE3
S11304C008BF134B9D46FFF7F5FF00218B460F46EF
S11304D01348144A121A01F05DF80E4B002B00D099
S11304E098470D4B002B00D09847002000210400B2
S11304F00D000D48002802D00C48AFF3008001F035
S113050025F82000290000F0B1F801F00BF800BF35
S1130510000008000000000000000000007000203F
S11305200000002058090020000000000000000026
S113053072B64FF000014FF000024FF000034FF08D
S113054000044FF000054FF000064FF00007B846D6
S1130550B946BA46BB46BC460A490B4A521A013A46
S113056005DD0020042308601944043AFBDA074837
S11305708546074880470748804762B6FFF79EFFD5
S1130580FEE700000080FF1F0070002000700020C4
S1130590A91300005D140000FFF7FEBF08B5054B6A
S11305A01B69DB0403D400F04BF8012008BD0020D4
S11305B008BD00BF80F00F404FF47A7000F002B81D
S11305C000F016B8084B4FF48072DA6303F5332356
S11305D0C0335A6942F400425A615A6842F40042F4
S11305E05A60024B1880704700C004401C00002071
S11305F010B50F4C00F0CAFC226890420FD30D4A8C
S11306000D4B117861B9012111709A6842F40042CE
S11306109A6000F0BBFC094B1B881844206010BD95
S1130620002111705A6842F400425A60F1E700BF99
S1130630200000201E000020C0F00F401C000020FD
S1130640024A536843F0010353607047C0F00F40FF
S113065001300AD080F3088880F309884FF0E02342
S11306604FF48042C3F8082D8F46704738B5474B86
S113067040F20112C3F804220122C3F8082207221F
S1130680C3F80022D3F80022D001FBD540F20112B6
S1130690C3F804230022C3F808220922C3F8002265
S11306A03A4B1A46D3F80013C901FBD538495961AE
S11306B01369C3F30363032BFAD100F093FE354BA4
S11306C0D3F8242142F08042C3F82421D3F82C210A
S11306D042F08042C3F82C21D3F8302142F080420A
S11306E0C3F83021D3F8342142F08042C3F83421D6
S11306F0A3F5D03341F287341A6B42F480721A6343
S11307001A6B22F002021A63234A516921F48051C0
S11307105161916921F480519161596B41F4807167
S11307205963596B21F002015963516921F4005155
S11307305161916921F400519161184A116B41F49E
S113074040711163516B41F4407151639A6942F4F1
S113075000729A61DA6942F40072DA6100F05EFCB8
S113076000F014FC05460020401BA04208D944F2C6
S1130770040319684FF480431868FFF769FFFEE724
S113078000F05BFC00F002FCEEE700BF0040064016
S1130790010000030050064080F00F400090044028
S11307A072B6704762B6704738B50F4C2368002B99
S11307B003DADE210D4800F0F1FB236843F08043A7
S11307C02360236843F08053236000F0DFFB064C72
S11307D000F1FA052368DB0105D400F086FC00F083
S11307E0D5FB8542F6D238BD00500240A615000064
S11307F038B5094C236823F00043236000F0C6FB9E
S113080000F1FA052368DB0205D500F06EFC00F068
S1130810BDFB8542F6D238BD005002405F4A38B570
S1130820D2F894305E4C43F08043C2F8943023688D
S1130830002B01DAFFF7DCFFFFF7B6FF2368002B7C
S113084080F29780564C636843F4005363602368D6
S1130850002B01DAFFF7CCFFFFF7A6FF63685049CE
S113086023F087031B041B0C6360636843F0A063DD
S11308706360636843F005036360636843F40013D3
S11308806360636843F440336360636843F4400324
S113089063606368002243F08003636014460B4680
S11308A002F120000132402A41F82040F8D1002210
S11308B0114602F508700132102A43F82010F8D1CD
S11308C01A6822F07F0242F00F021A601A6842F49A
S11308D000321A601A6842F480321A601A6822F0F0
S11308E000521A606FF02042C3F8A4284FF08062CF
S11308F0C3F810212B4AC3F814214FF0FF32996238
S11309001A63294A1A621A6822F400021A605A68A1
S113091022F4805222F008025A601B68002B03DA8A
S1130920FE21224800F03AFB1D4C236823F080434B
S11309302360236823F08053236000F027FB00F139
S1130940FA052368DA0105D500F0CFFB00F01EFBA1
S11309508542F6D200F01AFB114C00F1FA05236827
S11309601B0105D500F0C1FB00F010FB8542F6D257
S113097038BD236843F00043236000F007FB084CB4
S113098000F1FA052368D9023FF55CAF00F0ADFB36
S113099000F0FCFA8542F5D254E700BF005006404F
S11309A00050024000009C1906003B00A615000000
S11309B038B5244B4FF480721A63D3F8002122F027
S11309C06042C3F80021D3F8002122F44012C3F896
S11309D00021D3F8002142F48002C3F80021D3F8A7
S11309E0002122F47022C3F80021D3F800410A0444
S11309F002F470222243144CC3F800210246131A55
S1130A00DBB2994217D80F4C104BC4F80431D4F818
S1130A10003143F04063C4F8003100F0B7FA00F14C
S1130A203205236BDB0505D400F05FFB00F0AEFA62
S1130A308542F6D238BD83F0030312F8015B1D55DD
S1130A40DDE700BF00500240085102400000841F4F
S1130A50114A136B13F4007330B51AD0D2F8103165
S1130A600E4DC3F303430B7000230C78DAB29442A7
S1130A7003F1010308D8084B4FF400721A639A6813
S1130A80074B01201A6030BD82F00304645D845476
S1130A90EBE7184630BD00BF005002401851024039
S1130AA024000020FFF77CBE10B500F014FAC0B19A
S1130AB0FFF774FDA8B100F0EFFA00F019FA00F0A6
S1130AC00CFA4FF0E02320F0604020F07F00C3F8E0
S1130AD0080DFFF767FE00F000FABDE81040436818
S1130AE0184710BD013A70B54D1E5618441AB54248
S1130AF000D170BD15F8013F635500F0F6FAF6E732
S1130B002DE9F0410C4F064600244FF00C0800F08C
S1130B10ECFA08FB04F2E5B2D359B34204D83A44E0
S1130B20526813449E4203D30134132CEFD1FF25A2
S1130B302846BDE8F08100BF341600002DE9F84FC7
S1130B4080460068FFF7DCFFFF2804D14FF0000B5C
S1130B505846BDE8F88F244C08F1030500274FF0F0
S1130B60010B4FF070094FF0070AD8F8006000F04D
S1130B70BCFA23781B063E44E8D5C6F3074384F841
S1130B80009084F807A0A371C6F307236371F3B23E
S1130B9023716B782372AB786372EB78A3722B7931
S1130BA0E3726B792373AB796373EB79A3732B7A59
S1130BB0E37300F0C5FD237813F0710FC6D1731EE3
S1130BC02A46073613F8010F12F8011F884208D18C
S1130BD0B342F7D10837B7F5806F05F10805C4D1E2
S1130BE0B6E74FF0000BF5E70000024038B5124BB2
S1130BF0984204460D461AD0B1F5804F19D0FFF73C
S1130C009DFF10B90024204638BD002CFAD0C5F34E
S1130C100903002BF6D12368AB42F4D020464FF4ED
S1130C20806240F8045B2946FFF75CFFEBE7034C66
S1130C30EDE71C46EBE700BF2C0400202800002051
S1130C402DE9F8439846036821F47F76013304467E
S1130C500D46174626F0030606D140F8046B4FF400
S1130C6080623146FFF73EFF23689E4208D020464B
S1130C703146FFF7BBFF044610B90020BDE8F883F6
S1130C8023680435ED1A2544B94606F5806600F05C
S1130C902CFA231DEB1AB3F5806F07D32046314697
S1130CA0FFF7A4FF04460028E7D0051D19F8013B0F
S1130CB005F8013BA8EB0903DF42E8D10120BDE8B8
S1130CC0F8830000034A4FF0FF331360024A1360B5
S1130CD0704700BF280000202C040020C0F5FF232B
S1130CE070B503F2FF7316464A1E9A4204460D4637
S1130CF006D9002070BD2B46324621460D4814E02B
S1130D00FFF7FEFEFF28F4D0601E2844FFF7F8FE2C
S1130D10FF28EED024F47F7323F00303B3F5804F50
S1130D20E9D105482B4632462146BDE87040FFF71D
S1130D3087BF00BF280000202C0400202DE9F84FB5
S1130D40C0F5FF234A1E03F2FF739A4204460E467F
S1130D5053D8FFF7D5FE0546601E3044FFF7D0FE9A
S1130D60FF2D4AD0854248D8122846D8401B244F2C
S1130D702CB2013555FA80F504EB44040C2007EB42
S1130D80840400FB05771F4D4FF0700900F0ADF9A6
S1130D90D4F800B06368BBF1FF3F2ED06BB3CBF344
S1130DA00B0252BBC3F30B063EBBC3F307384FF031
S1130DB0090AF3B2984505D80C34A742E6D10120BC
S1130DC0BDE8F88F00F091F92A7812060BEB063390
S1130DD013D5C3F3074285F8009085F807A0AA71DC
S1130DE0C3F30722DBB26A712B7100F0A9FC2B78E4
S1130DF013F0710F06F10106DBD00020BDE8F88F77
S1130E00341600000000024007B50F4A136801338E
S1130E1018D0916853680B44D1680B4411690B4492
S1130E2051690B449169D2690B44134402AA5B4291
S1130E3042F8043D042144F2F830FFF74FFF03B0B9
S1130E405DF804FB0120FAE72C0400204FF48043F2
S1130E5044F204021B681268134444F20802126844
S1130E60134444F20C021268134444F21002126850
S1130E70134444F214021268134444F21802126830
S1130E80134444F2F8321268D3420CBF012000200C
S1130E9070470000094808B50368013302D0FFF722
S1130EA04DFE20B106480368013301D1012008BD7D
S1130EB0FFF744FE003018BF012008BD2C040020B9
S1130EC0280000204FF480407047FFF7FBBEFFF777
S1130ED005BFFFF733BFFFF7B9BFFFF7F3BF08B58F
S1130EE0FFF792FF18B1BDE80840FFF7D3BF08BD74
S1130EF0024B00221A605A609A60704710E000E0CA
S1130F0008B5FFF7F5FF0C4B6FF07F425A600021E4
S1130F10052299601A60094A9B6812684FF47A7036
S1130F20B2FBF0F206480260064A1160064A23F05A
S1130F307F43136008BD00BF10E000E00484FF1F7E
S1130F403008002038080020340800200B4B0C48DF
S1130F509B680C4A30B504681268E31A23F07F4397
S1130F6093420AD3B3FBF2F3074D2968194403FBF8
S1130F70124323F07F432960036030BD10E000E09A
S1130F8034080020300800203808002008B5FFF796
S1130F90DDFF014B186808BD3808002008B500F0D3
S1130FA0A4F8FCE710B500F097F8012814D00B4C16
S1130FB02378012B10D1FFF7E9FF094B094A1B687D
S1130FC01268134403F5FA73984205D3002323707F
S1130FD0BDE81040FFF768BD10BD00BF4008002009
S1130FE03C0800204408002008B5044B1B78012B62
S1130FF003D1FFF7CBFF024B186008BD4008002067
S11310004408002008B5044B01221A70FFF7ECFFD6
S1131010BDE80840FFF7C6BF4008002008B5FFF749
S113102041FD00F060F8FFF76BFFFFF74EFF00F0A3
S11310300FF8BDE80840FFF7E5BF08B500F055F824
S1131040FFF784FF00F010F8BDE80840FFF7AABFDF
S113105008B500F059F8FFF7E1FB024B02221A70C1
S113106008BD00BF0084FF1F07B509480DF1070143
S1131070FFF7EEFC012807D1064B9DF80710044842
S113108002221A7000F064F803B05DF804FB00BF9C
S1131090480800200084FF1F7047000008B5054B76
S11310A01B78022B02D1C9B2FFF782FCBDE80840CD
S11310B000F046B80084FF1F044B1B78013BDBB2F1
S11310C0032B9ABF024AD05C812070470084FF1F23
S11310D018170000FFF7F0BF08B500F027F800303C
S11310E018BF012008BDFFF767BAFFF769BA00000F
S11310F0034BFE221A7002225870A3F88620704710
S1131100CC08002000687047074B002283F8812038
S1131110C3F8882083F88420A3F8862083F88320EA
S113112083F88220704700BFCC080020034B93F85B
S11311308100003018BF0120704700BFCC08002098
S1131140024B002283F88420704700BFCC080020A3
S1131150F8B50378924CFF2B05462FD100220125C8
S113116023701023637084F88220A27084F8815065
S1131170FFF7B0FFE070FFF79FFF2071FFF79CFFC0
S11311800823000A6071A571E571A4F88630FFF7A1
S11311909CFE94F88430012B02D11020FFF7A8FFA5
S11311A0B4F98610002940F3FA80012384F88430CE
S11311B089B27B48BDE8F840FFF770BF94F88160BE
S11311C0012E40F0EC80F32B62D01FD8CF2B00F01F
S11311D0E38007D8C92B00F09B80CC2B00F0A280C1
S11311E0202033E0D12B00F0CB80C0F0A880D22B9C
S11311F0F6D10025FF2323706570A570FFF76AFF01
S11312002571E0706571A571072331E0FA2B5CD07C
S11312100ED8F52B14D02ED3F62BE1D1FF230430B6
S11312202370FFF76FFFC4F88800A4F88660B0E766
S1131230FD2B59D0FE2B63D0FC2BD1D1002005E02F
S1131240FFF748FF6A78904203DC2220FFF750FF43
S11312509FE7D4F88810601CFFF744FCFF23237039
S11312606A78D4F888301344C4F888306B78013332
S1131270A4F886308DE7FFF72DFF6B789842E4DD04
S1131280281DFFF73FFFC4F8880001466A78E2E7AB
S1131290FF2304302370FFF735FFD4F8886000255E
S11312A08719BE420AD1012363700023257163713B
S11312B0A371E371A370E3700823D9E716F8013B27
S11312C01D44EDB2FFF711FFEBE7FF232370354B0D
S11312D0C4F88830072200236370A370E37022717E
S11312E06371A371E371E7E7FF23237094F882200D
S11312F0A27000236370E370237163710623B7E760
S1131300002384F8813084F88230FF2323708CE733
S1131310D4F88870FFF7DEFE6A1C411E3846FFF7DA
S1131320D6FD08B9312091E7FF232370FFF7D2FEE1
S1131330D4F8883001380344C4F8883075E7FFF7DF
S1131340C9FE6B78013898427FF77FAFFF23237083
S1131350A4F88660697829B9FFF7C1FD00287FF4F5
S113136018AFDFE7AA1CD4F88800FFF7B0FD002807
S1131370D8D06A78D4F888301344C4F8883008E7A1
S11313800430D4F88830FFF7BDFE01461846FFF755
S1131390A0FD0028B9D1C5E7FFF786FBB5E7F8BD86
S11313A0CC0800201C1700004FF0E023D3F8882D50
S11313B042F47002C3F8882DD3F8342F22F080420F
S11313C0C3F8342F054B064A5A605A6842F2201279
S11313D01A604FF6FF729A60704700BF0020054004
S11313E020C528D9194A13691169C1F30361C3F3EC
S11313F003430139581C05290FD8DFE801F0240301
S11314000F0E0E13D2F80832114A13F0010318BF5D
S11314101346104AB3FBF0F313607047D2F8083355
S11314200D4BF6E7D2F80836D2F80826C2F3044288
S113143002F11001C3F30223054A01334A435B005E
S1131440B2FBF3F3E5E7024BE3E700BF00400640DD
S113145000127A000484FF1F006CDC022249234A34
S113146010B54B1CD21A224B1A44934221D1214964
S1131470214A4B1CD21A214B1A4493421ED1204BB1
S1131480204A00219A421ED11F49204A4B1CD21ADD
S11314901F4B1A44934219D11E491F4A91420846D0
S11314A01FD01E49002389088B4214D11C4B18609D
S11314B010BD11F8010F03F8010BD6E711F8010F65
S11314C003F8010BD9E703F8011FDBE711F8010F5B
S11314D003F8010BDEE752F8234040F823400133C0
S11314E0E2E70F4B196010BD57170000C417000046
S11314F00084FF1FC3170000DC1700006C84FF1F6B
S1131500FFFFFF1F57090020DB170000DC17000056
S1131510000000200080FF1F000000000004000005
S113152008ED00E008B5074B044613B10021AFF302
S11315300080054B1868836A03B19847204600F081
S113154031F800BF000000002417000070B50D4EF4
S11315500D4CA41BA4100025A54209D10B4E0C4C24
S113156000F0E2F8A41BA4100025A54205D170BD2B
S113157056F8253098470135EEE756F82530984758
S11315800135F2E750170000501700005017000013
S11315905417000002440346934200D1704703F8F5
S11315A0011BF9E7FEE7433A2F55736572732F5217
S11315B06F68616E2F4F6E6544726976652F446F54
S11315C063756D656E74732F47425F456C65637216
S11315D06F6E696373565F5333324B3134345F41FA
S11315E075746F7361725F4D43414C2F426F6F741A
S11315F06C6F61646572732F4732425F426F6F7420
S11316006C6F61646572735F456C6563726F6E695C
S11316106373562F426F6F742F636F72652F41523D
S11316204D434D345F5333324B31342F63616E2E4F
S113163063000000004000000010000004000000EF
S113164000500000001000000500000000600000D1
S113165000100000060000000070000000100000F0
S11316600700000000800000008000000800000067
S1131670000001000080000009000000008001005B
S1131680008000000A00000000000200008000004A
S11316900B00000000800200008000000C0000002D
S11316A000000300008000000D0000000080030023
S11316B0008000000E000000000004000080000014
S11316C00F000000008004000080000010000000F3
S11316D000000500008000001100000000800500EB
S11316E000800000120000000000060000800000DE
S11316F013000000008006000080000014000000B9
S113170000000700008000001500000000800700B2
S11317100080000016000000000800004F70656E95
S1131720424C54000884FF1FF8B500BFF8BC08BC45
S11317309E467047F8B500BFF8BC08BC9E4670478B
S10B17405FF800F06D84FF1F47
S10B17486CEDFF7F01000000BD
S10717507D04000010
S10717545504000034
S113175805000000006CDC0200000000000000002E
S1131768000000000000000000000000000000006D
S1131778000000000000000000000000000000005D
S1131788000000000000000000000000000000004D
S1131798000000000000000000000000000000003D
S11317A8000000000000000000000000000000002D
S10F17B800000000000000000000000021
S11317C4044B1A7842F080021A701A781206FCD577
S10B17D4704700BF0000024051
S9030531C6
